:020000040800F2
:1000000000000820F5280008B1230008B3230008E9
:10001000B5230008B7230008B9230008000000003A
:10002000000000000000000000000000BB230008EA
:10003000BD23000800000000BF230008C123000802
:1000400045290008452900084529000845290008D8
:1000500045290008452900084529000845290008C8
:1000600045290008452900084529000845290008B8
:1000700045290008452900084529000845290008A8
:100080004529000845290008452900084529000898
:100090004529000845290008452900084529000888
:1000A0004529000845290008452900084529000878
:1000B0004529000845290008452900084529000868
:1000C0004529000845290008452900084529000858
:1000D0004529000845290008452900084529000848
:1000E0004529000845290008452900084529000838
:1000F0004529000845290008452900084529000828
:100100004529000845290008452900084529000817
:100110004529000845290008452900084529000807
:1001200045290008452900084529000845290008F7
:1001300045290008452900084529000845290008E7
:1001400045290008452900084529000845290008D7
:1001500045290008452900084529000845290008C7
:1001600045290008452900084529000845290008B7
:10017000452900084529000845290008000000001D
:100180004529000845290008452900084529000897
:100190004529000845290008452900084529000887
:1001A0004529000845290008452900084529000877
:1001B0004529000845290008452900084529000867
:1001C00045290008452900080000000045290008CD
:1001D0004529000845290008452900084529000847
:1001E0004529000845290008452900084529000837
:0801F00045290008452900081B
:1001F80010B5054C237833B9044B13B10448AFF359
:1002080000800123237010BD0C00002000000000B6
:100218009029000808B5034B1BB103490348AFF305
:10022800008008BD00000000100000209029000890
:1002380053B94AB9002908BF00281CBF4FF0FF3145
:100248004FF0FF3000F072B9ADF1080C6DE904CE43
:1002580000F006F8DDF804E0DDE9022304B0704799
:100268002DE9F047089E04468846002B4BD18A4268
:10027800154667D9B2FA82F24AB1C2F1200701FAEB
:1002880002F320FA07F7954047EA030894404FEA3B
:10029800154E230CB8FBFEF71FFA85FC0EFB1788DA
:1002A80043EA084307FB0CF1994209D9EB1807F117
:1002B800FF3080F01B81994240F21881023F2B44A5
:1002C8005B1AA4B2B3FBFEF00EFB103344EA0344FE
:1002D80000FB0CFCA44509D92C1900F1FF3380F070
:1002E8000781A44540F2048102382C4440EA0740C3
:1002F800A4EB0C0400271EB1D4400023C6E9004338
:100308003946BDE8F0878B4209D9002E00F0EB8012
:100318000027C6E9000138463946BDE8F087B3FA38
:1003280083F7002F47D18B4202D3824200F2FA8032
:10033800841A61EB030301209846002EE0D0C6E939
:100348000048DDE702B9FFDEB2FA82F2002A40F087
:100358008F80491B4FEA154E1FFA85F80127B1FB1C
:10036800FEFC230C0EFB1C1143EA014308FB0CF1B5
:10037800994207D9EB180CF1FF3002D2994200F2EA
:10038800CD808446591AA3B2B1FBFEF00EFB1014BF
:1003980043EA044408FB00F8A04507D92C1900F1EA
:1003A800FF3302D2A04500F2B6801846A4EB080439
:1003B80040EA0C409FE7C7F1200CBB4022FA0CFE34
:1003C8004EEA030E01FA07F420FA0CF521FA0CF3B1
:1003D8004FEA1E482543B3FBF8F92C0C08FB1933E8
:1003E8001FFA8EFA44EA034309FB0AF49C4202FA14
:1003F80007F200FA07F10BD91EEB030309F1FF30EE
:1004080080F087809C4240F28480A9F102097344FD
:100418001B1BADB2B3FBF8F008FB103345EA0344ED
:1004280000FB0AFAA24508D91EEB040400F1FF33C9
:100438006BD2A24569D90238744440EA0940A0FB4E
:100448000289A4EB0A044C45C2464B4654D351D00A
:10045800002E69D0B1EB0A0564EB030404FA0CFC26
:10046800FD40FC404CEA0505C6E90054002747E773
:10047800C2F1200320FA03F7954001FA02F021FAAD
:1004880003F34FEA154E3843010CB3FBFEF71FFA8E
:1004980085F80EFB173341EA034107FB08F38B424B
:1004A80004FA02F407D9691807F1FF3C2FD28B42EE
:1004B8002DD9023F2944CB1A81B2B3FBFEF00EFBC3
:1004C800103341EA034100FB08F38B4207D969184E
:1004D80000F1FF3C17D28B4215D902382944C91ABA
:1004E80040EA07473BE73746304609E70746E7E66D
:1004F8001846FBE64145ABD2B8EB020A69EB0E029F
:1005080001381346A4E76046E9E7184695E76746C9
:10051800D1E781467CE702382C4447E7ACF1020C6E
:100528002B442FE7384608E73746E9E6704700BF0F
:1005380010B504460E4B18784FF47A73B3FBF0F3FA
:100548000C4A1068B0FBF3F000F08CF868B90F2C77
:1005580001D901200AE0002221464FF0FF3000F0C7
:100568004FF8034B5C60002000E0012010BD00BF85
:10057800000000200800002008B5032000F02EF835
:100588000020FFF7D5FF01F0C7FE002008BD0000DE
:10059800034A1168034B1B780B441360704700BF74
:1005A8002800002000000020014B1868704700BF99
:1005B8002800002038B50446FFF7F6FF0546B4F1D9
:1005C800FF3F02D0044B1B781C44FFF7EDFF401B94
:1005D800A042FAD338BD00BF000000200649CB680E
:1005E80023F4E0631B041B0C000200F4E0600343E7
:1005F800024A1A43CA60704700ED00E00000FA059D
:1006080030B4154BDB68C3F30223C3F10704042C91
:1006180028BF04241D1D062D14D9033B4FF0FF35B8
:1006280005FA04F421EA0401994005FA03F322EAE1
:1006380003031943002807DB0901C9B2074B195402
:1006480030BC70470023E9E700F00F000901C9B288
:10065800034B1954F4E700BF00ED00E000E400E0AC
:1006680014ED00E00138B0F1807F0AD2064B5860E3
:10067800064AF02182F823100020986007221A60A9
:1006880070470120704700BF10E000E000ED00E077
:10069800042805D0054A136823F004031360704743
:1006A800024A136843F004031360704710E000E047
:1006B800704708B5FFF7FCFF08BD000000230F2BAB
:1006C80000F2E280F0B482B039E0092200E00022B2
:1006D800B2403A4302346D4E46F824206C4A1468FE
:1006E800EA4302EA04064F6817F4803F01D045EA5E
:1006F8000406674C2660646802EA04064F6817F42B
:10070800003F01D045EA0406614C6660A46802EA2D
:1007180004064F6817F4801F01D045EA04065C4CB4
:10072800A660E46822404E6816F4001F01D045EA2E
:100738000402574CE26001330F2B00F2A280012221
:100748009A400C6804EA0205AA42F4D14C68122CBB
:1007580018BF022C10D1DE08083650F826C003F066
:100768000704A7000F24BC402CEA040C0C69BC4009
:1007780044EA0C0440F8264004685F000326BE40A3
:10078800F64306EA040C4C6804F00304BC4044EA4F
:100798000C0404604C6804F1FF3C112C18BFBCF138
:1007A800010F01D9122C11D1846806EA040CCC6817
:1007B800BC4044EA0C048460446824EA020C4C6897
:1007C800C4F300129A4042EA0C024260C268164022
:1007D8008A68BA403243C2604A6812F0805FAAD081
:1007E8002C4A546C44F480445464526C02F48042A1
:1007F8000192019A9C08A61C244A52F8267003F01C
:10080800030296000F22B24027EA0207224A9042CA
:100818003FF45DAF02F58062904222D002F580621B
:10082800904220D002F5806290421ED002F580628C
:1008380090421CD002F5806290421AD002F5806284
:10084800904218D002F58062904216D002F580627C
:10085800904214D002F5806290423FF436AF0A22EB
:1008680036E7012234E7022232E7032230E7042286
:100878002EE705222CE706222AE7072228E7082286
:1008880026E702B0F0BC7047704700BF003801404F
:10089800003C0140003802400000024012B909043F
:1008A8008161704781617047002800F0DC8170B574
:1008B80082B00446036813F0010F29D0A24B9B684D
:1008C80003F00C03042B1AD09F4B9B6803F00C0316
:1008D800082B0FD06368B3F5803F40D0002B54D16C
:1008E800994B1A6822F480321A601A6822F480221E
:1008F8001A6039E0944B5B6813F4800FEAD0924B8E
:100908001B6813F4003F03D06368002B00F0AD812F
:10091800236813F0020F75D08B4B9B6813F00C0FF4
:100928005ED0894B9B6803F00C03082B53D0E36817
:10093800002B00F08A80844A136843F00103136097
:10094800FFF732FE0546804B1B6813F0020F73D188
:10095800FFF72AFE401B0228F5D9032088E17A4ACE
:10096800136843F48033136063682BB3FFF71CFEEE
:100978000546754B1B6813F4003FC9D1FFF714FEF9
:10098800401B6428F5D9032072E1B3F5A02F09D0E4
:100998006D4B1A6822F480321A601A6822F4802299
:1009A8001A60E1E7684B1A6842F480221A601A68F4
:1009B80042F480321A60D7E7FFF7F6FD0546624B2E
:1009C8001B6813F4003FA3D0FFF7EEFD401B64281B
:1009D800F5D903204CE15C4B5B6813F4800FA6D17A
:1009E800594B1B6813F0020F04D0E368012B01D0A8
:1009F80001203DE1544A136823F0F803216943EAD2
:100A0800C1031360236813F0080F46D0636983B3EA
:100A18004D4A536F43F001035367FFF7C5FD054681
:100A2800494B5B6F13F0020F37D1FFF7BDFD401B39
:100A38000228F5D903201BE1434A136823F0F80381
:100A4800216943EAC1031360DCE73F4A136823F0D6
:100A580001031360FFF7A8FD05463B4B1B6813F025
:100A6800020FCFD0FFF7A0FD401B0228F5D90320C5
:100A7800FEE0354A536F23F001035367FFF794FDF7
:100A88000546314B5B6F13F0020F06D0FFF78CFD64
:100A9800401B0228F5D90320EAE0236813F0040F6D
:100AA8007ED0294B1B6C13F0805F1ED1264B1A6C2D
:100AB80042F080521A641B6C03F080530193019B2F
:100AC8000125224B1B6813F4807F10D0A368012BEB
:100AD80021D0002B3CD11C4B1A6F22F001021A675F
:100AE8001A6F22F004021A671AE00025E9E7174A8C
:100AF800136843F480731360FFF756FD0646134BE3
:100B08001B6813F4807FE1D1FFF74EFD801B64283A
:100B1800F5D90320ACE00C4A136F43F001031367C7
:100B2800A3685BB3FFF740FD0646074B1B6F13F046
:100B3800020F34D1FFF738FD801B41F28833984209
:100B4800F3D9032094E000BF003802400070004051
:100B5800052B09D0484B1A6F22F001021A671A6F49
:100B680022F004021A67DBE7434B1A6F42F00402D3
:100B78001A671A6F42F001021A67D1E7FFF714FDEE
:100B880006463D4B1B6F13F0020F08D0FFF70CFD14
:100B9800801B41F288339842F3D9032068E0F5B905
:100BA800A369002B63D0344A926802F00C02082A29
:100BB80060D0022B19D0304A136823F08073136079
:100BC800FFF7F2FC04462C4B1B6813F0007F48D05B
:100BD800FFF7EAFC001B0228F5D9032048E0264A63
:100BE800136C23F080531364DAE7234A136823F065
:100BF80080731360FFF7D8FC05461F4B1B6813F082
:100C0800007F06D0FFF7D0FC401B0228F5D903204F
:100C18002EE0E369226A1343626A43EA8213A26AF6
:100C28005208013A43EA0243E26A43EA0263226B4A
:100C380043EA0273104A5360136843F080731360E9
:100C4800FFF7B2FC04460C4B1B6813F0007F06D17B
:100C5800FFF7AAFC001B0228F5D9032008E00020B2
:100C680006E0002004E001207047012000E0002099
:100C780002B070BD0120FBE700380240264B9B689C
:100C880003F00C03042B44D0082B01D023487047F1
:100C98002DE9F04B204B5A6802F03F025B6813F4D1
:100CA800800F13D01C4B5968C1F3881100231C48CE
:100CB800A1FB0001FFF7BCFA174B5B68C3F30143C4
:100CC80001335B00B0FBF3F0BDE8F08B124B5B68BF
:100CD800C3F388131E4600275C010025E41A65EB60
:100CE8000705A90141EA9461A001001B61EB050118
:100CF800CB0043EA5073C400A01943EB07018B02F1
:100D080043EA90538402204619460023FFF790FADD
:100D1800D2E70348704700BF003802400024F400BF
:100D280040787D01002800F0A28070B50446524B3F
:100D38001B6803F00F038B420CD24F4A136823F051
:100D48000F030B431360136803F00F038B4201D0AA
:100D5800012070BD236813F0020F17D013F0040FA1
:100D680004D0464A936843F4E0539360236813F031
:100D7800080F04D0414A936843F4604393603F4AA4
:100D8800936823F0F003A068034393600D4623683B
:100D980013F0010F31D06368012B20D0022B25D02E
:100DA800364A126812F0020F63D034498A6822F07A
:100DB800030213438B60FFF7F7FB06462F4B9B6834
:100DC80003F00C036268B3EB820F16D0FFF7ECFB5D
:100DD800801B41F288339842F0D90320B9E7274AAB
:100DE800126812F4003FE0D10120B2E7234A1268EA
:100DF80012F0007FD9D10120ABE71F4B1B6803F02D
:100E08000F03AB420CD91C4A136823F00F032B4382
:100E18001360136803F00F03AB4201D0012098E779
:100E2800236813F0040F06D0144A936823F4E053A0
:100E3800E1680B439360236813F0080F07D00F4A4B
:100E4800936823F46043216943EAC1039360FFF781
:100E580015FF0A4B9B68C3F30313094AD35CD840B8
:100E6800084B18600020FFF763FB002071E70120A2
:100E7800704701206DE700BF003C02400038024087
:100E8800A829000808000020014B1868704700BF17
:100E98000800002008B5FFF7F7FF044B9B68C3F371
:100EA8008223034AD35CD84008BD00BF0038024003
:100EB800B829000808B5FFF7E7FF044B9B68C3F3A0
:100EC8004233034AD35CD84008BD00BF0038024013
:100ED800B8290008F0B583B00446036813F0010F81
:100EE8000CD0B54B9A6822F400029A609A68416B5C
:100EF8000A439A60436BC3B1002600E000262368CA
:100F080013F4002F15D0AC4AD2F88C3023F44013D8
:100F1800E16B0B43C2F88C30E36BB3F5801F06D04E
:100F2800002B00F04581002504E00126E7E70126B3
:100F3800F6E70025236813F4801F0FD09E4AD2F8E5
:100F48008C3023F44003216C0B43C2F88C30236CA3
:100F5800B3F5800F00F02E8103B90125236813F043
:100F6800807F00D0012613F0200F40F027812368EE
:100F780013F0100F0CD0904BD3F88C2022F0807215
:100F8800C3F88C20D3F88C20A16B0A43C3F88C20BB
:100F9800236813F4804F08D0874AD2F8903023F49E
:100FA8004033616E0B43C2F89030236813F4004F4E
:100FB80008D0814AD2F8903023F44023A16E0B4325
:100FC800C2F89030236813F4803F08D07A4AD2F8E8
:100FD800903023F44013E16E0B43C2F8903023683D
:100FE80013F4003F08D0744AD2F8903023F4400339
:100FF800216F0B43C2F89030236813F0400F08D0DC
:101008006D4AD2F8903023F00303616C0B43C2F8A9
:101018009030236813F0800F08D0674AD2F89030D8
:1010280023F00C03A16C0B43C2F89030236813F42F
:10103800807F08D0604AD2F8903023F03003E16C0A
:101048000B43C2F89030236813F4007F08D05A4A43
:10105800D2F8903023F0C003216D0B43C2F89030D2
:10106800236813F4806F08D0534AD2F8903023F4E1
:101078004073616D0B43C2F89030236813F4006F1E
:1010880008D04D4AD2F8903023F44063A16D0B4349
:10109800C2F89030236813F4805F08D0464AD2F82B
:1010A800903023F44053E16D0B43C2F8903023682D
:1010B80013F4005F08D0404AD2F8903023F440433C
:1010C800216E0B43C2F89030236813F4800F08D0C8
:1010D800394AD2F8903023F08063A16F0B43C2F8ED
:1010E8009030236813F4001F0DD0334AD2F89030A3
:1010F80023F00063E16F0B43C2F89030E36FB3F164
:10110800006F00F0C180236813F0080F00D001259C
:1011180013F4802F08D0284AD2F8903023F0407377
:10112800616F0B43C2F89030236813F4000F09D0A5
:10113800214AD2F8903023F08053D4F880100B4322
:10114800C2F89030236813F0806F09D01A4AD2F899
:10115800903023F00053D4F884100B43C2F8903039
:10116800236813F0006F09D0134AD2F88C3023F0AB
:101178000073D4F888100B43C2F88C30236813F03E
:10118800805F09D00C4AD2F88C3023F08063D4F801
:101198008C100B43C2F88C30002E77D12368B3F142
:1011A800007F73D0002D40F00481002003B0F0BD13
:1011B8000125BFE60126CFE600380240B74B1A6C7E
:1011C80042F080521A641B6C03F080530193019B18
:1011D800B34A136843F480731360FFF7E5F90746D1
:1011E800AF4B1B6813F4807F06D1FFF7DDF9C01BF6
:1011F8006428F5D90320D9E7A84B1B6F13F4407373
:1012080015D0226B02F440729A4210D0A34B1A6F89
:1012180022F44072196F41F480311967196F21F473
:10122800803119671A671B6F13F0010F12D1236BF6
:1012380003F44072B2F5407F1DD0984A936823F4B6
:10124800F813936095490B6F226BC2F30B0213439B
:101258000B678CE6FFF7A8F90746904B1B6F13F056
:10126800020FE4D1FFF7A0F9C01B41F2883398427E
:10127800F3D903209AE78948826822F4F812894949
:1012880019400A438260DDE701253CE7834A136879
:1012980023F080631360FFF787F906467F4B1B68CE
:1012A80013F0006F06D0FFF77FF9801B6428F5D98B
:1012B80003207BE7236813F0010F13D0636B8BB90E
:1012C800764AD2F88430D2F88410606803F4403348
:1012D80043EA801301F070610B43A16843EA01738C
:1012E800C2F88430236813F4002F03D0E26BB2F500
:1012F800801F06D013F4801F1ED0236CB3F5800F17
:101308001AD1664AD2F88430D2F88410606803F49F
:10131800403343EA8013E06843EA006301F0E041A8
:101328000B43C2F88430D2F88C3023F01F03616A73
:1013380001390B43C2F88C30236813F0807F11D039
:10134800564AD2F88400D2F88410666823691B04D0
:1013580043EA861300F07060034301F0E0410B4359
:10136800C2F88430236813F0007F0DD062682369C7
:101378001B0443EA8213E26843EA0263A26843EA71
:101388000273464AC2F88430444A136843F08063C3
:101398001360FFF709F90646404B1B6813F0006F0E
:1013A8007FF400AFFFF700F9801B6428F4D903200D
:1013B800FCE63A4A136823F080531360FFF7F4F809
:1013C8000546364B1B6813F0005F06D0FFF7ECF8B4
:1013D800401B6428F5D90320E8E6236813F4002F9E
:1013E80001D0E26B22B113F4801F1DD0236CDBB94E
:1013F8002A4AD2F88830D2F88810606903F440335A
:1014080043EA8013A06943EA006301F0E0410B431B
:10141800C2F88830D2F88C3023F4F853A16A013925
:1014280043EA0123C2F88C30236813F4001F03D069
:10143800E36FB3F1006F37D0236813F0080F19D0AA
:10144800164AD2F88810D2F88830606903F440331D
:1014580043EA801301F070610B43E16943EA0173C9
:10146800C2F88830D2F88C3023F44033E16A0B4359
:10147800C2F88C30094A136843F080531360FFF7B1
:1014880093F80446054B1B6813F0005F1FD1FFF764
:101498008BF8001B6428F5D9032087E60038024042
:1014A80000700040FFFCFF0F0A4AD2F88800D2F80B
:1014B80088106569236A1B0443EA851300F070608D
:1014C800034301F0E0410B43C2F88830B4E7002041
:1014D8006CE600BF0038024070B403683A4CA04282
:1014E80014BF00240124B0F1804F14BF224644F0F9
:1014F8000102AAB9354DA84214BF00250125344E72
:10150800B0420DD065B905F1804505F58235A84290
:1015180014BF0025012506F50066B04200D01DB1B4
:1015280023F070034D682B43002A33D1274A904299
:1015380014BF00220122264DA8422BD052BB02F133
:10154800804202F58232904214BF0022012205F542
:101558000065A8421ED0EAB91E4A904214BF002274
:10156800012205F59A35A84214D09AB91A4A904230
:1015780014BF0022012205F50065A8420AD04AB925
:10158800164A904214BF00220122A5F59635A842BA
:1015980000D01AB123F44073CA68134323F08003C0
:1015A8004A69134303608A68C2620A6882620C4B04
:1015B800984214BF234644F001030BB10B6903633F
:1015C8000123436170BC70470000014000080040DF
:1015D8000004004000440140001800400020004082
:1015E80000040140A8B110B5044690F83D305BB145
:1015F800022384F83D30211D2068FFF76DFF012389
:1016080084F83D30002010BD80F83C3000F0E0FF49
:10161800EEE7012070470000002843D0F8B50546E2
:101628000C4690F83D30002B37D0022385F83D302A
:10163800294651F8042B90681B4B03409360286897
:10164800FFF74AFF286881688369026A26680E43A3
:10165800164F1F40A368A16943EA01231F43144B97
:101668003B40E168E76941EA072119432769236A92
:101678001B0343EA07130B4322F0AA01626864695B
:1016880042EA04120A43866029688B612B681A6251
:10169800012385F83D300020F8BD80F83C3000F08B
:1016A800ADFFC2E701207047F8FFFEFFFCFCFFFF1B
:1016B8000303FFFF70B4036A23F001030362036AA4
:1016C80042688569104C2C400D682C4323F00205B4
:1016D8008B682B430D4E0E4DA84218BFB0420BD15C
:1016E80023F00803CD682B4323F0040322F440724F
:1016F8004D6915438A692A43426084614A68426396
:10170800036270BC704700BF8CFFFEFF0000014001
:101718000004014070B4036A23F010030362036AF3
:1017280044688569124A2A400D6842EA052223F076
:1017380020038D6843EA05130E4E0F4DA84218BFCB
:10174800B0420ED123F08003CD6843EA051323F09D
:10175800400324F440644D6944EA85048D6944EAF1
:101768008504446082614A688263036270BC704782
:10177800FF8CFFFE000001400004014070B4036AC2
:1017880023F480730362036A4268C569124C2C40D3
:101798000D682C4323F400738D6843EA05230F4E2C
:1017A8000F4DA84218BFB0420ED123F40063CD6894
:1017B80043EA052323F4806322F440524D6942EA48
:1017C80005128D6942EA05124260C4614A68C26323
:1017D800036270BC704700BF8CFFFEFF0000014031
:1017E8000004014070B4036A23F480530362036A5F
:1017F8004468C5690D4A2A400D6842EA052223F467
:1018080000538D6843EA0533094E0A4DA84218BFB4
:10181800B04204D124F480444D6944EA85144460FC
:10182800C2614A680264036270BC7047FF8CFFFEA5
:10183800000001400004014010B4012303FA01F440
:10184800036A23EA04030362036A8A4013430362B8
:101858005DF8044B704710B5044661B1042916D0F1
:10186800012200210068FFF7E7FF01220421206818
:10187800FFF7E2FF04E0012200210068FFF7DCFF28
:101888002268136843F001031360002010BD012291
:1018980004210068FFF7D0FFF2E7000070B4036A84
:1018A80023F480330362036A4268446D0D4D25407A
:1018B8000C682C4323F400338D6843EA05430A4E31
:1018C8000A4DA84218BFB04204D122F480324D69B3
:1018D80042EA0522426044654A688265036270BC38
:1018E800704700BF8FFFFEFF000001400004014069
:1018F80070B4036A23F480130362036A4468456D75
:101908000D4A2A400D6842EA052223F400138D6827
:1019180043EA0553094E0A4DA84218BFB04204D104
:1019280024F480244D6944EA8524446042654A6869
:10193800C265036270BC7047FF8FFFFE0000014064
:101948000004014090F83C30012B21D070B40123F1
:1019580080F83C3003685A689D680E4E0E4CA342CE
:1019680018BFB34203D122F470024C68224322F01C
:1019780070020C68224325F08004896821435A606C
:1019880003689960002380F83C30184670BC7047A3
:1019980002207047000001400004014090F83C30EC
:1019A800012B3FD030B4012380F83C30CB6823F4BE
:1019B80040738A68134323F480634A68134323F40B
:1019C80000630A68134323F480530A69134323F41A
:1019D80000534A69134323F480438A6A134323F468
:1019E8000043134323F470238A6943EA02430268DD
:1019F8000D4D0E4CA24218BFAA420CD123F470031D
:101A08004C6A43EA045323F08073CC69234323F0E0
:101A18000073096A0B435364002380F83C3018466E
:101A280030BC7047022070470000014000040140AC
:101A380038B590F83C30012B00F092800D460446F2
:101A4800012380F83C30022380F83D30142A1ED848
:101A5800DFE802F00B1D1D1D241D1D1D381D1D1D59
:101A68004B1D1D1D5F1D1D1D72000068FFF722FE26
:101A78002268936943F0080393612268936923F00D
:101A8800040393612268936929690B4393610123D5
:101A980084F83D30002084F83C0038BD0068FFF72A
:101AA80039FE2268936943F400639361226893695D
:101AB80023F48063936122689369296943EA0123C7
:101AC8009361E4E70068FFF759FE2268D36943F0A1
:101AD8000803D3612268D36923F00403D361226821
:101AE800D36929690B43D361D1E70068FFF77AFE10
:101AF8002268D36943F40063D3612268D36923F46D
:101B08008063D3612268D369296943EA0123D361D9
:101B1800BDE70068FFF7C2FE2268536D43F0080373
:101B280053652268536D23F0040353652268536D8F
:101B380029690B435365AAE70068FFF7D9FE2268B5
:101B4800536D43F4006353652268536D23F4806337
:101B580053652268536D296943EA0123536596E763
:101B680002209AE72DE9F04105460F4616469846A9
:101B7800069C2B68DB6937EA03030CBF01230023AB
:101B8800B3421DD1B4F1FF3FF3D02CB1FEF70CFDE9
:101B9800A0EB0800A042ECD32A68136823F4D073A2
:101BA80013602A68936823F001039360202385F863
:101BB800693085F86A30002385F86830032000E032
:101BC8000020BDE8F081000010B504468368026972
:101BD800134342691343C2691343016808689D4A65
:101BE800024013430B602268536823F44053E168B2
:101BF8000B435360A369226A1A4321688B6823F454
:101C0800306313438B602368934A934219D0934AF5
:101C180093422AD0924A934240D0924A934255D056
:101C2800914A93426AD0914A934200F08280904A46
:101C3800934200F099808F4A934200F0B0801022BE
:101C4800C9E002F59432D2F8902002F00302032A88
:101C580003D8DFE802F0BF0604081022BBE0022226
:101C6800B9E00422B7E00822B5E002F5FA32D2F86A
:101C7800902002F00C020C2A08D8DFE802F0BA071C
:101C880007070B070707090707070D001022A2E03F
:101C98000222A0E004229EE008229CE002F5F8322D
:101CA800D2F8902002F03002102A0DD005D9202A4F
:101CB80008D0302A04D108228DE00AB900228AE02F
:101CC800102288E0022286E0042284E002F5F6323F
:101CD800D2F8902002F0C002402A0DD005D9802AFF
:101CE80008D0C02A04D1082275E00AB9002272E09F
:101CF800102270E002226EE004226CE002F5F43259
:101D0800D2F8902002F44072B2F5807F0FD007D944
:101D1800B2F5007F09D0B2F5407F04D108225AE01D
:101D28000AB9002257E0102255E0022253E00422AB
:101D380051E002F59232D2F8902002F44062B2F5F6
:101D4800806F0FD007D9B2F5006F09D0B2F5406F98
:101D580004D108223FE00AB901223CE010223AE00F
:101D6800022238E0042236E002F5E032D2F8902070
:101D780002F44052B2F5805F0FD007D9B2F5005F88
:101D880009D0B2F5405F04D1082224E00AB9002244
:101D980021E010221FE002221DE004221BE002F5D0
:101DA800DE32D2F8902002F44042B2F5804F0FD0D4
:101DB80007D9B2F5004F09D0B2F5404F04D1082237
:101DC80009E00AB9002206E0102204E0022202E03B
:101DD800042200E00122E169B1F5004F0BD0082A86
:101DE80000F29B80DFE802F0616D799983999999F7
:101DF8008F000022EFE7082A54D8DFE802F0051721
:101E080022533F5353534A00FFF744F8626853087C
:101E180003EB4003B3FBF2F39BB2002023F00F0265
:101E2800C3F3420313432268D36010BDFFF742F89F
:101E38006268530803EB4003B3FBF2F39BB2002044
:101E4800ECE762680C4B03EB5203B3FBF2F39BB273
:101E58000020E3E7F369FFEF001001400044004071
:101E680000480040004C0040005000400014014071
:101E780000780040007C00400048E801FEF7FEFEC4
:101E88006268530803EB4003B3FBF2F39BB20020F4
:101E9800C4E76268530803F58033B3FBF2F39BB2DF
:101EA8000020BBE701200023B8E7FEF7F3FF6368D3
:101EB80000EB5300B0FBF3F0236880B2D860002039
:101EC800B3E7FEF7F7FF636800EB5300B0FBF3F0EE
:101ED800236880B2D8600020A7E76168104A02EB47
:101EE8005102B2FBF1F292B2DA6000209DE7FEF7F0
:101EF800C5FE636800EB5300B0FBF3F0236880B2C3
:101F0800D860002091E761684A0802F50042B2FBF8
:101F1800F1F292B2DA60002087E7012085E700BF7E
:101F28000024F400436A13F0010F06D002685368D6
:101F380023F40033816A0B435360436A13F0020FA2
:101F480006D00268536823F48033C16A0B43536098
:101F5800436A13F0040F06D00268536823F4802301
:101F6800016B0B435360436A13F0080F06D00268F5
:101F7800536823F40043416B0B435360436A13F0E7
:101F8800100F06D00268936823F48053816B0B43CB
:101F98009360436A13F0200F06D00268936823F415
:101FA8000053C16B0B439360436A13F0400F0AD090
:101FB8000268536823F48013016C0B435360036C6D
:101FC800B3F5801F0BD0436A13F0800F06D0026868
:101FD800536823F40023816C0B43536070470268F5
:101FE800536823F4C003416C0B435360EBE710B50F
:101FF80082B004460023C366FEF7D6FA2268126848
:1020080012F0080F09D1202384F8693084F86A3067
:10201800002084F8680002B010BD6FF07E43009382
:10202800034600224FF400112046FFF79BFD0028CD
:10203800E9D00320EFE778B310B5044690F869308B
:102048000BB3242384F869302268136823F0010352
:1020580013602046FFF7B8FD012813D0636ABBB9A7
:102068002268536823F4904353602268936823F0EE
:102078002A0393602268136843F001031360204623
:10208800FFF7B5FF10BD80F8683000F007FCD8E70F
:102098002046FFF747FFE3E70120704710B58CB0F3
:1020A800254B1A6B42F004021A631A6B02F0040201
:1020B8000192019A1A6B42F080021A631A6B02F0BD
:1020C80080020292029A1A6B42F001021A631A6B9A
:1020D80002F001020392039A1A6B42F010021A638B
:1020E8001A6B02F010020492049A1A6B42F008026A
:1020F8001A631A6B02F008020592059A1A6B42F0ED
:1021080002021A631B6B03F002030693069B0B4C37
:1021180000224FF415412046FEF7C0FB4FF415434B
:10212800079301230893002309930A9307A92046DC
:10213800FEF7C4FA0CB010BD00380240001002408F
:10214800FEE7000000B5B9B02A4B1A6C42F0805285
:102158001A641B6C03F080530093009B264A136893
:1021680023F4404343F480431360136803F440436B
:102178000193019B02232B9301232E9310232F936A
:10218800002331932BA8FEF78FFB30BB0F23269338
:1021980000212791289129912A9126A8FEF7C2FDAE
:1021A800F8B9802302930023149302A8FEF792FE45
:1021B800D8B9FEF769FE114BA3FB00308009FEF782
:1021C80051FA0420FEF764FA002211464FF0FF305E
:1021D800FEF716FA39B05DF804FBCC210848FFF782
:1021E800AFFFDA210648FFF7ABFFE1210448FFF70C
:1021F800A7FF00BF0038024000700040D34D6210B6
:10220800C029000808B5FEF7B7F9FFF79BFFFFF7ED
:1022180045FF00F09BFA00F0FDF800F031F900F0FE
:1022280067F900F09DF900F019FB04212C48FFF72D
:1022380012FB04212B48FFF70EFB04212A48FFF765
:102248000AFB04212948FFF706FB08E0284B1B88F6
:102258001BB2B3F5FA6F3ED0254B1A881A804FF09F
:1022680080435B6A5B421BB2224A1380224B5B6A43
:102278005B421BB2214A1380214B5B6A1BB2214A85
:102288001380214B5B6A1BB2204A1380204C012229
:102298004FF480712046FEF701FB01224FF4806164
:1022A8002046FEF7FBFA01224FF480512046FEF744
:1022B800F5FA01224FF400412046FEF7EFFA6420B8
:1022C800FEF778F90A4B1B881BB2002BBED1114BC5
:1022D80064221A80BAE70F4B4FF69C721A80BBE74C
:1022E80038010020B80000203800002078000020C5
:1022F800320000202C0000200004004030000020A4
:102308000008004036000020000C00402E0000208D
:10231800001002403400002000B583B0214B1A6C35
:1023280042F080521A641A6C02F080520092009AAD
:102338005A6C42F480425A645B6C03F48043019304
:10234800019B0320FEF74AF9002211466FF00B00AB
:10235800FEF756F9002211466FF00A00FEF750F911
:10236800002211466FF00900FEF74AF900221146D3
:102378006FF00400FEF744F9002211466FF00300E5
:10238800FEF73EF9002211466FF00100FEF738F91A
:10239800002211464FF0FF30FEF732F903B05DF826
:1023A80004FB00BF003802407047FEE7FEE7FEE787
:1023B800FEE770477047704708B5FEF7E9F8FEF783
:1023C80078F908BD10B40F4AD2F8883043F4700386
:1023D800C2F888300C4B196841F0010119600020DF
:1023E80098601C68094921401960094959601968B1
:1023F80021F480211960D8604FF0006393605DF884
:10240800044B704700ED00E000380240FFFFF6FE85
:102418001030002400B58DB017484FF0804303609A
:102428000023436083604FF6FF72C26003618361DB
:10243800012203920493059206930F2107910893B2
:1024480009920A930B9103A9FFF7E6F850B9002304
:102458000093029369460848FFF774FA38B90DB03B
:102468005DF804FB97210548FFF76AFEEFE79E2118
:102478000248FFF765FEF2E738010020D02900087E
:1024880000B58DB01748184B036000234360836084
:102498004FF6FF72C26003618361012203920493C5
:1024A800059206930F210791089309920A930B91BD
:1024B80003A9FFF7B1F850B90023009302936946C6
:1024C8000848FFF73FFA38B90DB05DF804FBB921A9
:1024D8000648FFF735FEEFE7C0210448FFF730FE56
:1024E800F2E700BFB800002000040040D02900082F
:1024F80000B58DB01748184B036000234360836014
:102508004FF6FF72C2600361836101220392049354
:10251800059206930F210791089309920A930B914C
:1025280003A9FFF779F850B900230093029369468D
:102538000848FFF707FA38B90DB05DF804FBDB214E
:102548000648FFF7FDFDEFE7E2210448FFF7F8FD35
:10255800F2E700BF3800002000080040D02900083A
:1025680000B58DB01748184B0360002343608360A3
:102578004FF6FF72C26003618361012203920493E4
:10258800059206930F210791089309920A930B91DC
:1025980003A9FFF741F850B9002300930293694655
:1025A8000848FFF7CFF938B90DB05DF804FBFD21F5
:1025B8000648FFF7C5FDEFE74FF482710348FFF7C0
:1025C800BFFDF1E778000020000C0040D02900088A
:1025D8000268094B9A4200D0704782B003F59C33D9
:1025E8005A6C42F001025A645B6C03F001030193D8
:1025F800019B02B0704700BF0000014070B58AB06F
:102608000368B3F1804F0AD03A4A93422BD03A4A32
:1026180093423FD0394A934254D00AB070BD03F573
:102628000E331A6C42F001021A641B6C03F00103AA
:102638000193019B4FF4004305930226069600245C
:10264800079408940125099505A92D48FEF736F841
:1026580008230593069607940894099505A929481F
:10266800FEF72CF8D9E7284B1A6C42F002021A64DC
:102678001B6C03F002030293029BC0230593022301
:102688000693002207920892099305A91F48FEF7AE
:1026980015F8C2E71C4B1A6C42F004021A641B6C52
:1026A80003F004030393039B4FF440530593022361
:1026B8000693002207920892099305A91448FDF78A
:1026C800FDFFAAE7104B1A6C42F008021A641B6C53
:1026D80003F008030493049B032305930223069342
:1026E800002207920892099305A90548FDF7E6FF1D
:1026F80093E700BF0004004000080040000C0040C1
:102708000000024000040240003802400008024075
:10271800000C024002680B4B9A4200D0704700B58B
:1027280087B04FF4D4430193022302930023039309
:1027380004930123059301A90348FDF7BFFF07B0E0
:102748005DF804FB000001400010024000B597B09E
:102758003F48404B036049F6404343600023836091
:102768004FF4FA72C260036143618361FEF73AFF76
:1027780000284AD1002313931493159313A93448BE
:10278800FFF7E0F8002845D160230C934FF4C87395
:102798000D9300220E920F921092119212920CA990
:1027A8002B48FFF745F9002839D104220CA92848FD
:1027B800FFF73EF9002837D108220CA92448FFF773
:1027C80037F9002835D10C220CA92148FFF730F938
:1027D800002833D1002301930293039304930593B4
:1027E8004FF400520692079308934FF00072099233
:1027F8000A930B9301A91648FFF7D0F818BB1448A1
:10280800FFF788FF17B05DF804FB47211248FFF770
:1028180097FCAFE74F211048FFF792FCB4E75B2124
:102828000D48FFF78DFCC0E760210B48FFF788FCD7
:10283800C2E765210848FFF783FCC4E76A21064818
:10284800FFF77EFCC6E77A210348FFF779FCD6E755
:10285800F800002000000140D029000808B50C4805
:102868000C4B03604FF4E133436000238360C36083
:1028780003610C2242618361C36103624362FFF713
:10288800DAFB00B908BD44210348FFF759FCF9E712
:102898007801002000440040E02900080268114B3C
:1028A8009A4200D0704700B587B003F5FA331A6C26
:1028B80042F400321A641B6C03F400330093009B4B
:1028C80060230193022302930023039303230493B9
:1028D8000723059301A90448FDF7F0FE07B05DF84A
:1028E80004FB00BF00440040000C0240DFF834D075
:1028F800002103E00C4B5B58435004310B480C4B50
:1029080042189A42F6D30B4A02E0002342F8043BED
:10291800094B9A42F9D3FFF755FD00F011F8FFF77C
:1029280071FC704700000820002A00080000002001
:102938000C0000200C000020E8010020FEE7000049
:1029480070B50D4E0D4CA41BA4100025A54209D14D
:102958000B4E0C4C00F018F8A41BA4100025A5423F
:1029680005D170BD56F8253098470135EEE756F881
:10297800253098470135F2E7F8290008F8290008BA
:10298800F8290008FC290008F8B500BFF8BC08BC05
:102998009E467047F8B500BFF8BC08BC9E46704715
:1029A80000000000000000000102030406070809F7
:1029B80000000000010203042E2E2F5372632F6DB6
:1029C80061696E2E630000002E2E2F5372632F74E0
:1029D800696D2E63000000002E2E2F5372632F7531
:0829E800736172742E6300009C
:0829F00078D8FF7F0100000010
:0429F8001D020008B4
:0429FC00F9010008D5
:0C2A000001000000100000000024F400A1
:04000005080028F5D2
:00000001FF
