:020000040800F2
:1000000000000820214E00083D4800083F48000835
:100010004148000843480008454800080000000027
:10002000000000000000000000000000213C00086B
:100030004748000800000000C13C0008494800088B
:10004000714E0008714E0008714E0008714E000894
:10005000714E0008714E0008714E0008714E000884
:10006000714E0008714E0008714E0008714E000874
:10007000714E000851480008714E000861480008A0
:10008000714E0008714E0008714E0008714E000854
:10009000714E0008714E0008714E0008714E000844
:1000A000714E0008714E0008714E0008714E000834
:1000B000714E0008714E0008714E0008714E000824
:1000C000714E00087148000881480008714E000810
:1000D000714E0008714E000891480008714E0008EA
:1000E000A1480008714E0008714E0008714E0008CA
:1000F000714E0008DD480008714E0008714E00087E
:10010000714E0008714E0008714E0008714E0008D3
:10011000714E0008714E0008714E0008714E0008C3
:10012000714E0008714E0008714E0008714E0008B3
:10013000714E0008714E0008714E0008714E0008A3
:10014000714E0008714E0008714E0008714E000893
:10015000714E0008714E0008714E0008714E000883
:10016000714E0008714E0008714E0008714E000873
:10017000714E0008714E0008714E0008000000002A
:10018000714E0008714E0008714E0008714E000853
:10019000714E0008714E0008714E0008714E000843
:1001A000714E0008714E0008714E0008714E000833
:1001B000714E0008714E0008714E0008714E000823
:1001C000714E0008714E000800000000714E0008DA
:1001D000714E0008714E0008714E0008714E000803
:1001E000714E0008714E0008714E0008714E0008F3
:0801F000714E0008714E000879
:1002000010B5054C237833B9044B13B10448AFF350
:1002100000800123237010BD1000002000000000AA
:10022000CC4E000808B5034B1BB103490348AFF39C
:10023000008008BD0000000014000020CC4E000823
:1002400053B94AB9002908BF00281CBF4FF0FF313D
:100250004FF0FF3000F072B9ADF1080C6DE904CE3B
:1002600000F006F8DDF804E0DDE9022304B0704791
:100270002DE9F047089E04468846002B4BD18A4260
:10028000154667D9B2FA82F24AB1C2F1200701FAE3
:1002900002F320FA07F7954047EA030894404FEA33
:1002A000154E230CB8FBFEF71FFA85FC0EFB1788D2
:1002B00043EA084307FB0CF1994209D9EB1807F10F
:1002C000FF3080F01B81994240F21881023F2B449D
:1002D0005B1AA4B2B3FBFEF00EFB103344EA0344F6
:1002E00000FB0CFCA44509D92C1900F1FF3380F068
:1002F0000781A44540F2048102382C4440EA0740BB
:10030000A4EB0C0400271EB1D4400023C6E900432F
:100310003946BDE8F0878B4209D9002E00F0EB800A
:100320000027C6E9000138463946BDE8F087B3FA30
:1003300083F7002F47D18B4202D3824200F2FA802A
:10034000841A61EB030301209846002EE0D0C6E931
:100350000048DDE702B9FFDEB2FA82F2002A40F07F
:100360008F80491B4FEA154E1FFA85F80127B1FB14
:10037000FEFC230C0EFB1C1143EA014308FB0CF1AD
:10038000994207D9EB180CF1FF3002D2994200F2E2
:10039000CD808446591AA3B2B1FBFEF00EFB1014B7
:1003A00043EA044408FB00F8A04507D92C1900F1E2
:1003B000FF3302D2A04500F2B6801846A4EB080431
:1003C00040EA0C409FE7C7F1200CBB4022FA0CFE2C
:1003D0004EEA030E01FA07F420FA0CF521FA0CF3A9
:1003E0004FEA1E482543B3FBF8F92C0C08FB1933E0
:1003F0001FFA8EFA44EA034309FB0AF49C4202FA0C
:1004000007F200FA07F10BD91EEB030309F1FF30E5
:1004100080F087809C4240F28480A9F102097344F5
:100420001B1BADB2B3FBF8F008FB103345EA0344E5
:1004300000FB0AFAA24508D91EEB040400F1FF33C1
:100440006BD2A24569D90238744440EA0940A0FB46
:100450000289A4EB0A044C45C2464B4654D351D002
:10046000002E69D0B1EB0A0564EB030404FA0CFC1E
:10047000FD40FC404CEA0505C6E90054002747E76B
:10048000C2F1200320FA03F7954001FA02F021FAA5
:1004900003F34FEA154E3843010CB3FBFEF71FFA86
:1004A00085F80EFB173341EA034107FB08F38B4243
:1004B00004FA02F407D9691807F1FF3C2FD28B42E6
:1004C0002DD9023F2944CB1A81B2B3FBFEF00EFBBB
:1004D000103341EA034100FB08F38B4207D9691846
:1004E00000F1FF3C17D28B4215D902382944C91AB2
:1004F00040EA07473BE73746304609E70746E7E665
:100500001846FBE64145ABD2B8EB020A69EB0E0296
:1005100001381346A4E76046E9E7184695E76746C1
:10052000D1E781467CE702382C4447E7ACF1020C66
:100530002B442FE7384608E73746E9E6704700BF07
:10054000034613F8012B002AFBD1181A0138704713
:1005500008B5032000F01AF8002004F031F904F087
:10056000E7F8002008BD0000034A1168034B1B7820
:100570000B441360704700BF7C3D0020000000204A
:10058000014B1868704700BF7C3D00200649CB68CE
:1005900023F4E0631B041B0C000200F4E06003433F
:1005A000024A1A43CA60704700ED00E00000FA05F5
:1005B00030B4154BDB68C3F30223C3F10704042CEA
:1005C00028BF04241D1D062D14D9033B4FF0FF3511
:1005D00005FA04F421EA0401994005FA03F322EA3A
:1005E00003031943002807DB0901C9B2074B19545B
:1005F00030BC70470023E9E700F00F000901C9B2E1
:10060000034B1954F4E700BF00ED00E000E400E004
:1006100014ED00E000F01F02400901239340024A5C
:1006200042F82030704700BF00E100E00138B0F12F
:10063000807F0AD2064B5860064AF02182F82310C8
:100640000020986007221A6070470120704700BFA1
:1006500010E000E000ED00E0042805D0054A136832
:1006600023F0040313607047024A136843F0040345
:100670001360704710E000E00268D3B2103B0949F4
:10068000A1FB03131B090849C95CC165032B04D8EE
:10069000064B13408365806D7047044B1340043351
:1006A0008365F8E7ABAAAAAAE44E000800FCFFFFA6
:1006B000836A826992B9012B0AD01BB1022B01D047
:1006C00000207047C36A13F0807F2CD10020704750
:1006D000C36AB3F1C07F28D000207047B2F5005F35
:1006E00005D0022B29D9032B15D000207047032BEE
:1006F00003D8DFE803F01C041C0A00207047C36A1B
:1007000013F0807F15D100207047C36AB3F1C07F1A
:1007100011D000207047C36A13F0807F01D0012000
:10072000704700207047012070470120704701206A
:10073000704701207047012070470120704700007A
:1007400070B50446FFF71CFF002C5BD00546002364
:1007500084F83430022384F835302268136823F09B
:100760000103136023681A6812F0010F0AD0FFF723
:1007700007FF401B0528F5D920236365032084F873
:10078000350070BD1A68204810406168A2680A43AD
:10079000E1680A4321690A4361690A43A1690A437E
:1007A000E1690A43216A0A430243616A04291ED0AF
:1007B0001A602668756925F00705636A1D43042BD6
:1007C00007D1A36A1D43E36A1BB12046FFF770FF00
:1007D00090B975612046FFF74FFFE26D3F239340CC
:1007E000836000206065012384F83530C9E7E16A41
:1007F000206B01430A43DBE740236365012084F853
:100800003500BEE70120BCE73F8010E090F83530AE
:10081000DBB2022B03D08023436501207047052300
:1008200080F835300268136823F00103136000205C
:1008300070470000F0B583B0044600230193724B6B
:100840001D68724BA3FB0535AD0A876D3E68C26D0E
:1008500008239340334210D003681A6812F0040F43
:100860000BD01A6822F004021A60C26D082393406C
:10087000BB60436D43F001034365E26D0123934088
:10088000334209D02268526912F0800F04D0BB6055
:10089000636D43F002036365E26D042393403342CA
:1008A00009D02268126812F0020F04D0BB60636D99
:1008B00043F004036365E26D10239340334224D078
:1008C0002268126812F0080F1FD0BB6023681A68F4
:1008D00012F4802F0DD01B6813F4002F04D1236C69
:1008E0009BB12046984710E0A36C73B1204698470F
:1008F0000BE01A6812F4807F03D11A6822F0080214
:100900001A60236C0BB120469847E26D2023934078
:10091000334255D02268126812F0100F50D0BB60DD
:1009200094F83530DBB2052B0ED023681A6812F428
:10093000802F33D01B6813F4002F2AD1636C002B57
:100940003ED0204698473BE02268136823F0160308
:1009500013602268536923F080035361236CA3B1B1
:100960002268136823F008031360E26D3F2393406D
:10097000BB60002384F83430012384F83530236DC4
:10098000002B3FD0204698473CE0A36C002BE7D1DA
:10099000EBE7E36BA3B12046984711E01A6812F425
:1009A000807F09D11A6822F010021A60002384F8AF
:1009B0003430012384F83530E36B0BB1204698477F
:1009C000636DFBB1636D13F0010F17D0052384F83D
:1009D00035302268136823F001031360019B013353
:1009E0000193AB4204D823681B6813F0010FF5D1C3
:1009F000002384F83430012384F83530E36C0BB1E4
:100A00002046984703B0F0BD0C000020B5814E1B76
:100A100000230F2B00F2E280F0B482B039E009220B
:100A200000E00022B2403A4302346D4E46F82420E2
:100A30006C4A1468EA4302EA04064F6817F4803FE0
:100A400001D045EA0406674C2660646802EA0406A1
:100A50004F6817F4003F01D045EA0406614C666018
:100A6000A46802EA04064F6817F4801F01D045EA23
:100A700004065C4CA660E46822404E6816F4001F31
:100A800001D045EA0402574CE26001330F2B00F21B
:100A9000A28001229A400C6804EA0205AA42F4D11D
:100AA0004C68122C18BF022C10D1DE08083650F802
:100AB00026C003F00704A7000F24BC402CEA040C56
:100AC0000C69BC4044EA0C0440F8264004685F000E
:100AD0000326BE40F64306EA040C4C6804F0030407
:100AE000BC4044EA0C0404604C6804F1FF3C112C47
:100AF00018BFBCF1010F01D9122C11D1846806EA8C
:100B0000040CCC68BC4044EA0C048460446824EAC9
:100B1000020C4C68C4F300129A4042EA0C02426094
:100B2000C26816408A68BA403243C2604A6812F00E
:100B3000805FAAD02C4A546C44F480445464526CB4
:100B400002F480420192019A9C08A61C244A52F8A1
:100B5000267003F0030296000F22B24027EA020734
:100B6000224A90423FF45DAF02F58062904222D06B
:100B700002F58062904220D002F5806290421ED041
:100B800002F5806290421CD002F5806290421AD039
:100B900002F58062904218D002F58062904216D031
:100BA00002F58062904214D002F5806290423FF4D8
:100BB00036AF0A2236E7012234E7022232E7032267
:100BC00030E704222EE705222CE706222AE7072237
:100BD00028E7082226E702B0F0BC7047704700BF44
:100BE00000380140003C0140003802400000024053
:100BF00012B9090481617047816170477047000034
:100C000008B5054B5B69034200D108BD024B586132
:100C1000FFF7F4FFF9E700BF003C014003689A6961
:100C200012F0020F01D000229A6203689A6912F052
:100C3000010F03D19A6942F001029A61704710B422
:100C400011F0010F09D090F8413003F02803282B50
:100C500001D0F22302E0422300E0002311F0020F52
:100C600009D043F0440490F8412002F02802282AD9
:100C700019D043F0F40311F0040F01D043F0B8038E
:100C800001F01102112A10D001F0120112290FD027
:100C9000122910D001680A6822EA03030B600020C1
:100CA0005DF8044B70472346E5E743F09003EBE71C
:100CB00043F02003ECE743F04003EBE7002857D074
:100CC00010B5044690F84130002B41D0242384F81D
:100CD00041302268136823F00103136063682268BF
:100CE00023F0706313612268936823F400439360D8
:100CF000E368012B31D0A368226843F40443936076
:100D0000E368022B2FD0226851681A4B0B435360C3
:100D10002268D36823F40043D360236962691343D4
:100D2000A169226843EA0123D360E369216A22684A
:100D30000B4313602268136843F001031360002023
:100D40006064202384F84130206384F8420010BDA1
:100D500080F8403003F006FBB8E7A368226843F44C
:100D600000439360CCE723684FF400625A60CAE7FF
:100D7000012070470080000208B5036899691A686D
:100D8000436B03B1984708BD10B50446002380F8B3
:100D9000423090F84130DBB2292B05D090F8413039
:100DA000DBB22A2B0FD010BD282380F8413021233D
:100DB00003630121FFF743FF002384F840302046FE
:100DC00003F09AFBEFE7282380F8413022230363E6
:100DD0000221FFF734FF002384F84030204603F05F
:100DE0008CFBE0E77047F8B590F8413003F028033A
:100DF000282B06D003680822DA61002380F84030EF
:100E0000F8BD044603689E69C6F300469A69120C51
:100E100002F0FE059A68C2F30902DF6807F0FE07D8
:100E2000C168022921D185EAD21515F0060F10D12B
:100E3000816C01318164816C0229E1D100218164DE
:100E40000820D86184F8401031462046FFF7CAFFD9
:100E5000D6E70421FFF7F3FE002384F840303A463A
:100E600031462046FFF7BEFFCAE70421FFF7E7FE41
:100E7000002384F840302A4631462046FFF7B2FF6F
:100E8000BEE7704710B50446164BC36200230363E8
:100E9000202280F8412080F84230436311F0040F93
:100EA00011D003685A6A436A591C41621A70038D53
:100EB0004BB1013B0385438D013B9BB24385436CA2
:100EC00043F00403436407212046FFF7B8FE23687C
:100ED0001022DA61002384F840302046FFF7D1FF6A
:100EE00010BD00BF0000FFFF7047000010B50446B2
:100EF000002380F842303A4AC2624385436C19436A
:100F0000416490F84130DBB2282B09D090F8413091
:100F1000DBB2292B04D090F84130DBB22A2B1FD151
:100F200003212046FFF78BFE282384F8413000235D
:100F300023632C4B636323681A6812F4804F1ED11D
:100F40001A6812F4004F2DD194F84130DBB2602BB7
:100F50003BD0002384F84030204603F0DBFB10BD7B
:100F60000721FFF76CFE94F84130DBB2602B02D012
:100F7000202384F84130002323636363DBE71A688E
:100F800022F480421A60A36B174A1A65002384F882
:100F90004030A06BFFF73AFC0028E0D0A06B036D57
:100FA0009847DCE71A6822F400421A60E36B0E4AA5
:100FB0001A65002384F84030E06BFFF727FC002817
:100FC000CDD0E06B036D9847C9E7202384F841300A
:100FD000002384F840302046FFF786FFBFE700BFBC
:100FE0000000FFFF11110008C712000838B50446C1
:100FF0000D4603682022DA6103680822DA610721BE
:10100000FFF71DFE2268536843F4004353602268D3
:10101000536823F0FF7323F48B3323F4FF7323F01F
:10102000010353602046FFF7F9FD2268136813F4AB
:10103000804F03D1136813F4004F09D094F8413066
:10104000DBB2212B39D0E36B1B685B689BB26385F5
:10105000638D9BB21BB1636C43F00403636415F0B2
:10106000040F10D0526A636A591C61621A70238D92
:101070004BB1013B2385638D013B9BB26385636C60
:1010800043F0040363640023236384F84230636302
:10109000636CBBB9E36A13F5803F21D194F841300A
:1010A000DBB2222B28D0202384F84130002384F89F
:1010B0004030204603F020FA1DE0A36B1B685B68FC
:1010C0009BB2C4E7616C2046FFF710FF94F84130F3
:1010D000DBB2282B0FD129462046FFF7D3FE0AE0CA
:1010E0000A4BE362202384F84130002384F8403027
:1010F0002046FFF7C6FE38BD202384F84130002388
:1011000084F84030204603F0F8F9F4E70000FFFFD0
:1011100090F84030012B00F09E8070B516460D46C9
:101120000446012380F8403011F0100F3FD012F038
:10113000100F3CD0438D9BB243BBC36AB3F1007F19
:1011400003D0C36AB3F1007F04D194F84130DBB21D
:10115000282B0CD0E36A13F5803F04D094F841307B
:10116000DBB2292B08D023681022DA6115E029466A
:101170002046FFF787FE10E023681022DA61204640
:10118000FFF74CFD2046FFF7FFFD06E00368102245
:10119000DA61436C43F00403436415F0200F02D07E
:1011A00016F0200F52D1002084F8400070BD15F0D9
:1011B000040F1ED016F0040F1BD0638D9BB263B1D9
:1011C00023685A6A636A591C61621A70238D013B55
:1011D0002385638D013B9BB26385638D9BB2002B9E
:1011E000DBD1E36A13F5803FD7D02046FFF7CCFD73
:1011F000D3E715F0080F02D016F0080F16D115F03E
:10120000020FCAD016F0020FC7D0638D9BB293B104
:10121000636A5A1C626222681B789362638D013B89
:101220009BB26385238D013B2385B6E72946204683
:10123000FFF7D9FDB1E7E36AB3F1807F02D0E36A3B
:10124000002BAAD12046FFF79FFDA6E7294620469E
:10125000FFF7CCFEA7E70220704710B5026893693C
:10126000116813F4807F09D011F0800F06D0446C10
:1012700044F0010444644FF48074D46113F4806F2B
:101280000AD011F0800F07D0426C42F0080242648D
:1012900002684FF48064D46113F4007F0AD011F027
:1012A000800F07D0436C43F00203436403684FF49C
:1012B0000072DA61436C13F00B0F00D110BD416C6A
:1012C000FFF714FEFAE708B5806B0268536843F431
:1012D00000435360826B00231365C26B136590F863
:1012E0004130DBB2602B02D003F014FA08BD20239A
:1012F00080F84130FFF7F8FDF8E7406C704790F850
:101300004130DBB2202B24D190F84030012B22D089
:10131000012380F84030242380F8413002681368AC
:1013200023F0010313600268136823F480531360F1
:1013300002681368194311600268136843F00103DF
:101340001360202380F84130002380F84030184695
:101350007047022070470220704790F84130DBB29E
:10136000202B22D190F84030012B20D0012380F88F
:101370004030242380F841300268136823F00103D1
:1013800013600268136823F4706343EA012111605B
:101390000268136843F001031360202380F8413092
:1013A000002380F840301846704702207047022022
:1013B00070470000002800F0DC8170B582B0044660
:1013C000036813F0010F29D0A24B9B6803F00C03B4
:1013D000042B1AD09F4B9B6803F00C03082B0FD0F3
:1013E0006368B3F5803F40D0002B54D1994B1A6805
:1013F00022F480321A601A6822F480221A6039E0DE
:10140000944B5B6813F4800FEAD0924B1B6813F483
:10141000003F03D06368002B00F0AD81236813F018
:10142000020F75D08B4B9B6813F00C0F5ED0894B6D
:101430009B6803F00C03082B53D0E368002B00F0EB
:101440008A80844A136843F001031360FFF798F819
:101450000546804B1B6813F0020F73D1FFF790F81D
:10146000401B0228F5D9032088E17A4A136843F427
:101470008033136063682BB3FFF782F80546754B22
:101480001B6813F4003FC9D1FFF77AF8401B6428AA
:10149000F5D9032072E1B3F5A02F09D06D4B1A687E
:1014A00022F480321A601A6822F480221A60E1E77E
:1014B000684B1A6842F480221A601A6842F480323B
:1014C0001A60D7E7FFF75CF80546624B1B6813F418
:1014D000003FA3D0FFF754F8401B6428F5D9032040
:1014E0004CE15C4B5B6813F4800FA6D1594B1B6831
:1014F00013F0020F04D0E368012B01D001203DE17D
:10150000544A136823F0F803216943EAC1031360C6
:10151000236813F0080F46D0636983B34D4A536FB5
:1015200043F001035367FFF72BF80546494B5B6F08
:1015300013F0020F37D1FFF723F8401B0228F5D92B
:1015400003201BE1434A136823F0F803216943EAAF
:10155000C1031360DCE73F4A136823F00103136003
:10156000FFF70EF805463B4B1B6813F0020FCFD078
:10157000FFF706F8401B0228F5D90320FEE0354AA4
:10158000536F23F001035367FEF7FAFF0546314B13
:101590005B6F13F0020F06D0FEF7F2FF401B02282C
:1015A000F5D90320EAE0236813F0040F7ED0294B1D
:1015B0001B6C13F0805F1ED1264B1A6C42F08052D8
:1015C0001A641B6C03F080530193019B0125224B8D
:1015D0001B6813F4807F10D0A368012B21D0002B4F
:1015E0003CD11C4B1A6F22F001021A671A6F22F0CD
:1015F00004021A671AE00025E9E7174A136843F462
:1016000080731360FEF7BCFF0646134B1B6813F490
:10161000807FE1D1FEF7B4FF801B6428F5D9032059
:10162000ACE00C4A136F43F001031367A3685BB38C
:10163000FEF7A6FF0646074B1B6F13F0020F34D1CF
:10164000FEF79EFF801B41F288339842F3D90320B6
:1016500094E000BF0038024000700040052B09D024
:10166000484B1A6F22F001021A671A6F22F0040227
:101670001A67DBE7434B1A6F42F004021A671A6FCE
:1016800042F001021A67D1E7FEF77AFF06463D4BAA
:101690001B6F13F0020F08D0FEF772FF801B41F2A0
:1016A00088339842F3D9032068E0F5B9A369002B89
:1016B00063D0344A926802F00C02082A60D0022BF0
:1016C00019D0304A136823F080731360FEF758FF77
:1016D00004462C4B1B6813F0007F48D0FEF750FFE8
:1016E000001B0228F5D9032048E0264A136C23F09A
:1016F00080531364DAE7234A136823F0807313607E
:10170000FEF73EFF05461F4B1B6813F0007F06D017
:10171000FEF736FF401B0228F5D903202EE0E369CF
:10172000226A1343626A43EA8213A26A5208013AA8
:1017300043EA0243E26A43EA0263226B43EA02732A
:10174000104A5360136843F080731360FEF718FF6C
:1017500004460C4B1B6813F0007F06D1FEF710FF08
:10176000001B0228F5D9032008E0002006E0002035
:1017700004E001207047012000E0002002B070BDAD
:101780000120FBE700380240264B9B6803F00C0366
:10179000042B44D0082B01D0234870472DE9F04B8F
:1017A000204B5A6802F03F025B6813F4800F13D09D
:1017B0001C4B5968C1F3881100231C48A1FB000190
:1017C000FEF73EFD174B5B68C3F3014301335B003B
:1017D000B0FBF3F0BDE8F08B124B5B68C3F38813EA
:1017E0001E4600275C010025E41A65EB0705A901E8
:1017F00041EA9461A001001B61EB0501CB0043EAC3
:101800005073C400A01943EB07018B0243EA9053C5
:101810008402204619460023FEF712FDD2E7034852
:10182000704700BF003802400024F40040787D017A
:10183000002800F0A28070B50446524B1B6803F0EC
:101840000F038B420CD24F4A136823F00F030B4354
:101850001360136803F00F038B4201D0012070BDA9
:10186000236813F0020F17D013F0040F04D0464A78
:10187000936843F4E0539360236813F0080F04D097
:10188000414A936843F4604393603F4A936823F06E
:10189000F003A068034393600D46236813F0010F23
:1018A00031D06368012B20D0022B25D0364A126834
:1018B00012F0020F63D034498A6822F00302134306
:1018C0008B60FEF75DFE06462F4B9B6803F00C0312
:1018D0006268B3EB820F16D0FEF752FE801B41F216
:1018E00088339842F0D90320B9E7274A126812F4E6
:1018F000003FE0D10120B2E7234A126812F0007FD6
:10190000D9D10120ABE71F4B1B6803F00F03AB429B
:101910000CD91C4A136823F00F032B431360136880
:1019200003F00F03AB4201D0012098E7236813F0C6
:10193000040F06D0144A936823F4E053E1680B4384
:101940009360236813F0080F07D00F4A936823F4BD
:101950006043216943EAC1039360FFF715FF0A4B17
:101960009B68C3F30313094AD35CD840084B186043
:10197000002002F025FF002071E7012070470120C0
:101980006DE700BF003C024000380240144F0008E1
:101990000C000020014B1868704700BF0C000020AD
:1019A00008B5FFF7F7FF044B9B68C3F38223034A94
:1019B000D35CD84008BD00BF00380240244F000867
:1019C00008B5FFF7E7FF044B9B68C3F34233034AB4
:1019D000D35CD84008BD00BF00380240244F000847
:1019E0000F2303600B4B9A6802F0030242609A686F
:1019F00002F0F00282609A6802F4E052C2609B68D2
:101A0000DB0803F4E0530361034B1B6803F00F038F
:101A10000B60704700380240003C0240F0B583B0D4
:101A20000446036813F0010F0CD0B54B9A6822F4FA
:101A300000029A609A68416B0A439A60436BC3B193
:101A4000002600E00026236813F4002F15D0AC4ACE
:101A5000D2F88C3023F44013E16B0B43C2F88C3086
:101A6000E36BB3F5801F06D0002B00F04581002505
:101A700004E00126E7E70126F6E70025236813F4D2
:101A8000801F0FD09E4AD2F88C3023F44003216C83
:101A90000B43C2F88C30236CB3F5800F00F02E811D
:101AA00003B90125236813F0807F00D0012613F0CD
:101AB000200F40F02781236813F0100F0CD0904BBB
:101AC000D3F88C2022F08072C3F88C20D3F88C20BD
:101AD000A16B0A43C3F88C20236813F4804F08D00D
:101AE000874AD2F8903023F44033616E0B43C2F83A
:101AF0009030236813F4004F08D0814AD2F8903018
:101B000023F44023A16E0B43C2F89030236813F4F2
:101B1000803F08D07A4AD2F8903023F44013E16E27
:101B20000B43C2F89030236813F4003F08D0744A86
:101B3000D2F8903023F44003216F0B43C2F8903069
:101B4000236813F0400F08D06D4AD2F8903023F08C
:101B50000303616C0B43C2F89030236813F0800FCD
:101B600008D0674AD2F8903023F00C03A16C0B43E5
:101B7000C2F89030236813F4807F08D0604AD2F80E
:101B8000903023F03003E16C0B43C2F890302368AF
:101B900013F4007F08D05A4AD2F8903023F0C003E3
:101BA000216D0B43C2F89030236813F4806F08D086
:101BB000534AD2F8903023F44073616D0B43C2F85E
:101BC0009030236813F4006F08D04D4AD2F890305B
:101BD00023F44063A16D0B43C2F89030236813F4E3
:101BE000805F08D0464AD2F8903023F44053E16D2C
:101BF0000B43C2F89030236813F4005F08D0404ACA
:101C0000D2F8903023F44043216E0B43C2F8903059
:101C1000236813F4800F08D0394AD2F8903023F0AB
:101C20008063A16F0B43C2F89030236813F4001F48
:101C30000DD0334AD2F8903023F00063E16F0B43AC
:101C4000C2F89030E36FB3F1006F00F0C1802368F9
:101C500013F0080F00D0012513F4802F08D0284A74
:101C6000D2F8903023F04073616F0B43C2F890308C
:101C7000236813F4000F09D0214AD2F8903023F0E2
:101C80008053D4F880100B43C2F89030236813F0CF
:101C9000806F09D01A4AD2F8903023F00053D4F85C
:101CA00084100B43C2F89030236813F0006F09D002
:101CB000134AD2F88C3023F00073D4F888100B4309
:101CC000C2F88C30236813F0805F09D00C4AD2F838
:101CD0008C3023F08063D4F88C100B43C2F88C3026
:101CE000002E77D12368B3F1007F73D0002D40F030
:101CF0000481002003B0F0BD0125BFE60126CFE638
:101D000000380240B74B1A6C42F080521A641B6CC8
:101D100003F080530193019BB34A136843F480732B
:101D20001360FEF72DFC0746AF4B1B6813F4807F52
:101D300006D1FEF725FCC01B6428F5D90320D9E79E
:101D4000A84B1B6F13F4407315D0226B02F4407242
:101D50009A4210D0A34B1A6F22F44072196F41F4CB
:101D600080311967196F21F4803119671A671B6F69
:101D700013F0010F12D1236B03F44072B2F5407FD0
:101D80001DD0984A936823F4F813936095490B6F1C
:101D9000226BC2F30B0213430B678CE6FEF7F0FBDA
:101DA0000746904B1B6F13F0020FE4D1FEF7E8FBE0
:101DB000C01B41F288339842F3D903209AE789483F
:101DC000826822F4F812894919400A438260DDE7EB
:101DD00001253CE7834A136823F080631360FEF714
:101DE000CFFB06467F4B1B6813F0006F06D0FEF753
:101DF000C7FB801B6428F5D903207BE7236813F019
:101E0000010F13D0636B8BB9764AD2F88430D2F8C5
:101E10008410606803F4403343EA801301F070617A
:101E20000B43A16843EA0173C2F88430236813F4BA
:101E3000002F03D0E26BB2F5801F06D013F4801F91
:101E40001ED0236CB3F5800F1AD1664AD2F88430C5
:101E5000D2F88410606803F4403343EA8013E068EA
:101E600043EA006301F0E0410B43C2F88430D2F84A
:101E70008C3023F01F03616A01390B43C2F88C30A8
:101E8000236813F0807F11D0564AD2F88400D2F82C
:101E90008410666823691B0443EA861300F07060AF
:101EA000034301F0E0410B43C2F88430236813F090
:101EB000007F0DD0626823691B0443EA8213E26845
:101EC00043EA0263A26843EA0273464AC2F88430D6
:101ED000444A136843F080631360FEF751FB0646E3
:101EE000404B1B6813F0006F7FF400AFFEF748FB18
:101EF000801B6428F4D90320FCE63A4A136823F0D7
:101F000080531360FEF73CFB0546364B1B6813F00D
:101F1000005F06D0FEF734FB401B6428F5D9032090
:101F2000E8E6236813F4002F01D0E26B22B113F42A
:101F3000801F1DD0236CDBB92A4AD2F88830D2F832
:101F40008810606903F4403343EA8013A06943EAD0
:101F5000006301F0E0410B43C2F88830D2F88C30C6
:101F600023F4F853A16A013943EA0123C2F88C3003
:101F7000236813F4001F03D0E36FB3F1006F37D071
:101F8000236813F0080F19D0164AD2F88810D2F837
:101F90008830606903F4403343EA801301F07061D4
:101FA0000B43E16943EA0173C2F88830D2F88C3000
:101FB00023F44033E16A0B43C2F88C30094A1368BA
:101FC00043F080531360FEF7DBFA0446054B1B68B1
:101FD00013F0005F1FD1FEF7D3FA001B6428F5D978
:101FE000032087E60038024000700040FFFCFF0F2E
:101FF0000A4AD2F88800D2F888106569236A1B045F
:1020000043EA851300F07060034301F0E0410B43A5
:10201000C2F88830B4E700206CE600BF0038024008
:1020200070470268D36843F00103D3600268136805
:1020300043F00103136000207047704770477047FA
:10204000704710B5044603681A6912F0020F11D0E8
:10205000DA6812F0020F0DD06FF002021A6101234C
:10206000037703689B6913F0030F79D0FFF7E6FF4E
:102070000023237723681A6912F0040F12D0DA685C
:1020800012F0040F0ED06FF004021A6102232377BE
:1020900023689B6913F4407F68D02046FFF7CEFF8A
:1020A0000023237723681A6912F0080F12D0DA6828
:1020B00012F0080F0ED06FF008021A610423237784
:1020C0002368DB6913F0030F57D02046FFF7B6FFF4
:1020D0000023237723681A6912F0100F12D0DA68F0
:1020E00012F0100F0ED06FF010021A610823237740
:1020F0002368DB6913F4407F46D02046FFF79EFF3C
:102100000023237723681A6912F0010F03D0DA68DD
:1021100012F0010F3FD123681A6912F0800F03D02B
:10212000DA6812F0800F3DD123681A6912F4807FBB
:1021300003D0DA6812F0800F3BD123681A6912F0DD
:10214000400F03D0DA6812F0400F39D123681A69C2
:1021500012F0200F03D0DA6812F0200F37D110BD33
:10216000FFF76BFF2046FFF76AFF81E72046FFF786
:1021700064FF2046FFF763FF92E72046FFF75DFF0D
:102180002046FFF75CFFA3E72046FFF756FF2046F7
:10219000FFF755FFB4E76FF001021A61204602F025
:1021A000ADF9B8E76FF080021A61204600F02BFB12
:1021B000BAE76FF080021A61204600F024FBBCE70A
:1021C0006FF040021A612046FFF73AFFBEE76FF05A
:1021D00020021A61204600F015FBC0E770B40368C6
:1021E0003A4CA04214BF00240124B0F1804F14BF28
:1021F000224644F00102AAB9354DA84214BF002579
:102200000125344EB0420DD065B905F1804505F584
:102210008235A84214BF0025012506F50066B042AC
:1022200000D01DB123F070034D682B43002A33D139
:10223000274A904214BF00220122264DA8422BD0EB
:1022400052BB02F1804202F58232904214BF00225A
:10225000012205F50065A8421ED0EAB91E4A904247
:1022600014BF0022012205F59A35A84214D09AB96C
:102270001A4A904214BF0022012205F50065A842C7
:102280000AD04AB9164A904214BF00220122A5F58D
:102290009635A84200D01AB123F44073CA6813439C
:1022A00023F080034A69134303608A68C2620A68A4
:1022B00082620C4B984214BF234644F001030BB1D9
:1022C0000B6903630123436170BC70470000014048
:1022D0000008004000040040004401400018004095
:1022E0000020004000040140A8B110B5044690F859
:1022F0003D305BB1022384F83D30211D2068FFF79B
:102300006DFF012384F83D30002010BD80F83C3083
:10231000FFF786FEEEE701207047A8B110B504462E
:1023200090F83D305BB1022384F83D30211D2068D8
:10233000FFF754FF012384F83D30002010BD80F8E2
:102340003C3002F0DBFBEEE701207047002843D071
:10235000F8B505460C4690F83D30002B37D00223E7
:1023600085F83D30294651F8042B90681B4B0340FB
:1023700093602868FFF732FF286881688369026AE2
:1023800026680E43164F1F40A368A16943EA012344
:102390001F43144B3B40E168E76941EA07211943B9
:1023A0002769236A1B0343EA07130B4322F0AA01A0
:1023B0006268646942EA04120A43866029688B6194
:1023C0002B681A62012385F83D300020F8BD80F8A3
:1023D0003C3002F0A9FBC2E701207047F8FFFEFF86
:1023E000FCFCFFFF0303FFFF70B4036A23F001034B
:1023F0000362036A42688569104C2C400D682C43C7
:1024000023F002058B682B430D4E0E4DA84218BFDA
:10241000B0420BD123F00803CD682B4323F0040313
:1024200022F440724D6915438A692A4342608461EF
:102430004A684263036270BC704700BF8CFFFEFFB6
:10244000000001400004014070B4036A23F010034F
:102450000362036A44688569124A2A400D6842EAA9
:10246000052223F020038D6843EA05130E4E0F4D1D
:10247000A84218BFB0420ED123F08003CD6843EAD2
:10248000051323F0400324F440644D6944EA8504B5
:102490008D6944EA8504446082614A68826303620C
:1024A00070BC7047FF8CFFFE00000140000401403B
:1024B00070B4036A23F480730362036A4268C569D7
:1024C000124C2C400D682C4323F400738D6843EAB2
:1024D00005230F4E0F4DA84218BFB0420ED123F472
:1024E0000063CD6843EA052323F4806322F440525D
:1024F0004D6942EA05128D6942EA05124260C461E3
:102500004A68C263036270BC704700BF8CFFFEFF65
:10251000000001400004014070B4036A23F48053BA
:102520000362036A4468C5690D4A2A400D6842EA9D
:10253000052223F400538D6843EA0533094E0A4D02
:10254000A84218BFB04204D124F480444D6944EA43
:1025500085144460C2614A680264036270BC7047BB
:10256000FF8CFFFE000001400004014010B4012375
:1025700003FA01F4036A23EA04030362036A8A404C
:10258000134303625DF8044B7047000010B5044626
:1025900001220068FFF7EAFF23680849084A9342CE
:1025A00018BF8B4203D15A6C42F400425A6422682D
:1025B000136843F001031360002010BD00000140C8
:1025C0000004014010B5044600220068FFF7CEFF6A
:1025D00023681449144A934218BF8B420DD1196ADB
:1025E00041F21112114208D1196A40F244421142DB
:1025F00003D15A6C22F400425A642368196A41F2EA
:102600001112114208D1196A40F24442114203D119
:102610001A6822F001021A60012384F83D3000207C
:1026200010BD00BF000001400004014010B5044689
:1026300061B1042916D0012200210068FFF796FF3E
:10264000012204212068FFF791FF04E0012200210C
:102650000068FFF78BFF2268136843F001031360E3
:10266000002010BD012204210068FFF77FFFF2E780
:1026700070B4036A23F480330362036A4268446DD2
:102680000D4D25400C682C4323F400338D6843EA3C
:1026900005430A4E0A4DA84218BFB04204D122F4A5
:1026A00080324D6942EA0522426044654A6882658B
:1026B000036270BC704700BF8FFFFEFF0000014047
:1026C0000004014070B4036A23F480130362036AB8
:1026D0004468456D0D4A2A400D6842EA052223F4FC
:1026E00000138D6843EA0553094E0A4DA84218BFEE
:1026F000B04204D124F480244D6944EA8524446026
:1027000042654A68C265036270BC7047FF8FFFFE76
:10271000000001400004014090F83C30012B21D022
:1027200070B4012380F83C3003685A689D680E4EEF
:102730000E4CA34218BFB34203D122F470024C687E
:10274000224322F070020C68224325F0800489683D
:1027500021435A6003689960002380F83C30184692
:1027600070BC704702207047000001400004014027
:1027700090F83C30012B3FD030B4012380F83C303E
:10278000CB6823F440738A68134323F480634A6858
:10279000134323F400630A68134323F480530A6944
:1027A000134323F400534A69134323F480438A6A92
:1027B000134323F40043134323F470238A6943EA49
:1027C000024302680D4D0E4CA24218BFAA420CD122
:1027D00023F470034C6A43EA045323F08073CC69FA
:1027E000234323F00073096A0B435364002380F8EA
:1027F0003C30184630BC7047022070470000014052
:10280000000401407047704738B590F83C30012B08
:1028100000F092800D460446012380F83C300223EC
:1028200080F83D30142A1ED8DFE802F00B1D1D1D74
:10283000241D1D1D381D1D1D4B1D1D1D5F1D1D1D36
:1028400072000068FFF7D0FD2268936943F0080327
:1028500093612268936923F004039361226893696A
:1028600029690B439361012384F83D30002084F8EB
:102870003C0038BD0068FFF7E7FD2268936943F428
:10288000006393612268936923F4806393612268F3
:102890009369296943EA01239361E4E70068FFF73C
:1028A00007FE2268D36943F00803D3612268D36925
:1028B00023F00403D3612268D36929690B43D361F0
:1028C000D1E70068FFF728FE2268D36943F400636C
:1028D000D3612268D36923F48063D3612268D3690A
:1028E000296943EA0123D361BDE70068FFF7C0FE11
:1028F0002268536D43F0080353652268536D23F03B
:10290000040353652268536D29690B435365AAE795
:102910000068FFF7D7FE2268536D43F400635365E8
:102920002268536D23F4806353652268536D2969CF
:1029300043EA0123536596E702209AE790F869304D
:10294000DBB2212B2ED1B0F852309BB28BB1836811
:10295000B3F5805F19D0C36C5A1CC2641A7803683F
:102960009A62B0F85230013B9BB2A0F8523000207E
:1029700070470268136823F08003136002681368CD
:1029800043F040031360002070470369002BE2D13D
:10299000C36C1B880268C3F308039362C36C0233E1
:1029A000C364DEE7022070470268136823F4907363
:1029B00013600268936823F001039360202380F87A
:1029C0006A3070472DE9F04105460F461646984695
:1029D000069C2B68DB6937EA03030CBF0123002345
:1029E000B3421DD1B4F1FF3FF3D02CB1FDF7C8FDC8
:1029F000A0EB0800A042ECD32A68136823F4D0733C
:102A000013602A68936823F001039360202385F8FC
:102A1000693085F86A30002385F86830032000E0CB
:102A20000020BDE8F08108B501680B6823F0400381
:102A30000B60202380F8693001F052FD002008BDB2
:102A4000B0F85C2090F86A30DBB2222B32D110B59E
:102A50008368B3F5805F10D00368596AD2B2436DC2
:102A60005C1C44650A401A70B0F85A30013B9BB2B6
:102A7000A0F85A306BB1002010BD0369002BEBD1D8
:102A8000436D0168496A0A401A80436D0233436509
:102A9000EAE70268136823F490731360026893688E
:102AA00023F001039360202380F86A3001F01EFDBB
:102AB0000020E1E70268936943F008039361022074
:102AC0007047000038B504460268D3691068916801
:102AD00013F00F0505D113F0200F02D010F0200FD6
:102AE0005FD1002D73D011F0010102D110F4907F5D
:102AF0006DD013F0010F07D010F4807F04D00125B2
:102B00001562E26E2A43E26613F0020F07D031B17C
:102B1000226802251562E26E42F00402E26613F0BA
:102B2000040F07D031B1226804251562E26E42F02D
:102B30000202E26613F0080F09D010F0200F00D156
:102B400029B1226808211162E26E0A43E266E26E50
:102B5000002A48D013F0200F02D010F0200F24D10B
:102B6000E36E13F0080F04D123689B6813F0400F45
:102B700027D02046FFF718FF23689A6812F0400F0D
:102B80001BD09A6822F040029A60636E8BB11A4A99
:102B90001A65606EFDF73AFE28B3606E036D9847C4
:102BA00021E02046FFF74CFF1DE02046FFF748FFDD
:102BB000D6E7204601F0A6FD15E0204601F0A2FD73
:102BC00011E0204601F09EFD0023E3660BE013F0C8
:102BD000800F02D010F0800F06D113F0400F02D00A
:102BE00010F0400F04D138BD2046FFF7A7FEFAE7EA
:102BF0002046FFF718FFF6E7FD2B000808B5806BAD
:102C00000023A0F85A30A0F8523001F07BFD08BD37
:102C100010B5044683680269134342691343C269CD
:102C20001343016808689D4A024013430B60226801
:102C3000536823F44053E1680B435360A369226A4D
:102C40001A4321688B6823F4306313438B60236835
:102C5000934A934219D0934A93422AD0924A93427C
:102C600040D0924A934255D0914A93426AD0914AB9
:102C7000934200F08280904A934200F099808F4AFC
:102C8000934200F0B0801022C9E002F59432D2F8ED
:102C9000902002F00302032A03D8DFE802F0BF0607
:102CA00004081022BBE00222B9E00422B7E00822A7
:102CB000B5E002F5FA32D2F8902002F00C020C2AAC
:102CC00008D8DFE802F0BA0707070B07070709076C
:102CD00007070D001022A2E00222A0E004229EE0DD
:102CE00008229CE002F5F832D2F8902002F030027F
:102CF000102A0DD005D9202A08D0302A04D1082264
:102D00008DE00AB900228AE0102288E0022286E0E3
:102D1000042284E002F5F632D2F8902002F0C002DC
:102D2000402A0DD005D9802A08D0C02A04D1082213
:102D300075E00AB9002272E0102270E002226EE013
:102D400004226CE002F5F432D2F8902002F44072D2
:102D5000B2F5807F0FD007D9B2F5007F09D0B2F568
:102D6000407F04D108225AE00AB9002257E010221D
:102D700055E0022253E0042251E002F59232D2F8EB
:102D8000902002F44062B2F5806F0FD007D9B2F5FF
:102D9000006F09D0B2F5406F04D108223FE00AB9B4
:102DA00001223CE010223AE0022238E0042236E020
:102DB00002F5E032D2F8902002F44052B2F5805F82
:102DC0000FD007D9B2F5005F09D0B2F5405F04D14A
:102DD000082224E00AB9002221E010221FE002228A
:102DE0001DE004221BE002F5DE32D2F8902002F44E
:102DF0004042B2F5804F0FD007D9B2F5004F09D04D
:102E0000B2F5404F04D1082209E00AB9002206E0D9
:102E1000102204E0022202E0042200E00122E16923
:102E2000B1F5004F0BD0082A00F29B80DFE802F0DA
:102E3000616D7999839999998F000022EFE7082AAB
:102E400054D8DFE802F0051722533F5353534A008A
:102E5000FEF7A6FD6268530803EB4003B3FBF2F3F1
:102E60009BB2002023F00F02C3F3420313432268F6
:102E7000D36010BDFEF7A4FD6268530803EB400366
:102E8000B3FBF2F39BB20020ECE762680C4B03EB60
:102E90005203B3FBF2F39BB20020E3E7F369FFEFC9
:102EA000001001400044004000480040004C004039
:102EB000005000400014014000780040007C0040B9
:102EC0000048E801FEF760FC6268530803EB40032A
:102ED000B3FBF2F39BB20020C4E76268530803F52A
:102EE0008033B3FBF2F39BB20020BBE70120002349
:102EF000B8E7FEF755FD636800EB5300B0FBF3F055
:102F0000236880B2D8600020B3E7FEF759FD6368FC
:102F100000EB5300B0FBF3F0236880B2D8600020D0
:102F2000A7E76168104A02EB5102B2FBF1F292B2DC
:102F3000DA6000209DE7FEF727FC636800EB530092
:102F4000B0FBF3F0236880B2D860002091E761689D
:102F50004A0802F50042B2FBF1F292B2DA600020B8
:102F600087E7012085E700BF0024F400436A13F0DF
:102F7000010F06D00268536823F40033816A0B43C3
:102F80005360436A13F0020F06D00268536823F4BB
:102F90008033C16A0B435360436A13F0040F06D0B9
:102FA0000268536823F48023016B0B435360436A28
:102FB00013F0080F06D00268536823F40043416BF6
:102FC0000B435360436A13F0100F06D002689368F6
:102FD00023F48053816B0B439360436A13F0200FFB
:102FE00006D00268936823F40053C16B0B439360CF
:102FF000436A13F0400F0AD00268536823F4801329
:10300000016C0B435360036CB3F5801F0BD0436A14
:1030100013F0800F06D00268536823F40023816CFC
:103020000B43536070470268536823F4C003416C3C
:103030000B435360EBE710B582B004460023C36630
:10304000FDF79EFA2268126812F0080F09D12023BA
:1030500084F8693084F86A30002084F8680002B08F
:1030600010BD6FF07E430093034600224FF4001121
:103070002046FFF7A7FC0028E9D00320EFE778B34C
:1030800010B5044690F869300BB3242384F86930F6
:103090002268136823F0010313602046FFF7B8FD90
:1030A000012813D0636ABBB92268536823F49043A4
:1030B00053602268936823F02A03936022681368A0
:1030C00043F0010313602046FFF7B5FF10BD80F801
:1030D000683001F077FED8E72046FFF747FFE3E7C7
:1030E0000120704730B589B0041E07DAB4F1FF3F04
:1030F0001CDB00211948FFF765FA15E001224FF4A7
:1031000080711748FDF774FD602301930294002439
:1031100003940594114D224601A92846FFF774FB3C
:1031200021462846FFF732FA09B030BD00224FF49D
:1031300080710B48FDF75CFD6023019364420294AB
:10314000002403940594054D224601A92846FFF763
:103150005BFB21462846FFF719FAE5E74C410020C2
:103160000010024010B588B0041E07DAB4F1FF3F2A
:103170001DDB04211A48FFF725FA16E001224FF45F
:1031800080611848FDF734FD7023019302940023F9
:1031900003930593124C04220DEB02012046FFF726
:1031A00033FB04212046FFF7F1F908B010BD0022DF
:1031B0004FF480610B48FDF71BFD702301936442BF
:1031C0000294002303930593054C04220DEB0201A6
:1031D0002046FFF719FB04212046FFF7D7F9E4E763
:1031E0004C4100200010024010B588B0041E07DAE0
:1031F000B4F1FF3F1CDB08211948FFF7E3F915E0A4
:1032000000224FF480511748FDF7F2FC7023019320
:103210000294002303930593114C082201A9204630
:10322000FFF7F2FA08212046FFF7B0F908B010BD09
:1032300001224FF480510B48FDF7DAFC7023019313
:1032400064420294002303930593054C082201A9CC
:103250002046FFF7D9FA08212046FFF797F9E5E75E
:103260004C4100200010024010B588B0041E07DA5F
:10327000B4F1FF3F1CDB0C211948FFF7A3F915E05F
:1032800000224FF400411748FDF7B2FC6023019380
:103290000294002303930593114C0C2201A92046AC
:1032A000FFF7B2FA0C212046FFF770F908B010BD05
:1032B00001224FF400410B48FDF79AFC6023019373
:1032C00064420294002303930593054C0C2201A948
:1032D0002046FFF799FA0C212046FFF757F9E5E75A
:1032E0004C41002000100240842801D00330704778
:1032F0000020704708B500F0CDF9002008BDF0B5FA
:1033000085B00F46446805680669B0F90800FFF704
:10331000EBFF03AB019300903B46B2B22946204637
:1033200000F086F9012802D1039805B0F0BD002015
:10333000FBE708B5034600B90123184600F0F4FA8C
:10334000002008BD08B500F00BFC012801D000F0FA
:10335000E9FC08BD00F1080343604FF0FF328260D2
:10336000C36003610023036070470023036170475B
:1033700043684B609A688A609A68516099600861F6
:10338000036801330360704730B40D68B5F1FF3F47
:1033900002D000F1080202E0026904E01A46536814
:1033A0001C68AC42FAD953684B6099608A605160DE
:1033B000086103680133036030BC704703694268E9
:1033C000816891608268416851605A68824205D084
:1033D00000220261186801381860704782685A60DC
:1033E000F6E70000074B9B6A1B6833B1054B9A6AEE
:1033F000D268D2685268DA627047024B4FF0FF32EF
:10340000DA6270472C00002010B50446006B00F013
:10341000D9FD204600F0D6FD10BD2DE9F0478046CD
:103420009946089D099F0A9C266B6FF04043134400
:1034300006EB830626F0070600230F2B07D8C85C8F
:10344000E21882F83400CA5C0AB10133F5E70023C0
:1034500084F84330062D00D90625E56265644FF0F7
:10346000000AC4F848A0201DFFF77FFF04F11800F0
:10347000FFF77BFF2461C5F10705A5616462C4F80D
:103480004CA084F850A04A464146304600F0B0FBBC
:10349000206007B13C60BDE8F087000070B50024F3
:1034A00007E004EB8402930010481844FFF752FF32
:1034B0000134062CF5D90E4C04F1BC063046FFF75A
:1034C00049FF04F1D0052846FFF744FF04F114003A
:1034D000FFF740FF04F1E400FFF73CFF2046FFF751
:1034E00039FFA662C4F8F85070BD00BF5C00002030
:1034F0002C00002038B5054600F0A4FB264BD3F87D
:10350000FC200132C3F8FC20D3F8003173B1224B08
:10351000D3F804318BB9204BD3F80031DA6AEB6A67
:103520009A420AD81C4BC3F8005106E01A4BC3F864
:103530000051D3F8FC30012B2AD0174CD4F80831B5
:103540000133C4F80831EB6A01229A40D4F80C1117
:103550000A43C4F80C2104F1300003EB83039A0002
:10356000291D1044FFF704FF00F092FBD4F804314A
:103570006BB1D4F80031DA6AEB6A9A4207D2074B92
:103580004FF080521A60BFF34F8FBFF36F8F38BD7B
:10359000FFF784FFD1E700BF2C00002004ED00E01E
:1035A00070B504460E46214BD3F81051D3F80001F4
:1035B0000430FFF703FF60B91C4BD3F80021D16A38
:1035C000012202FA01F1D3F80C2122EA0102C3F828
:1035D0000C21B4F1FF3F14BF00230123002E08BFCC
:1035E000002393B92C44114BD3F800315C60A54201
:1035F00012D80E4DA86AD5F800110431FFF7C4FEA9
:10360000EB6AA34210D9EC620EE00848D0F8001132
:103610000431FFF7ADFE07E0044BD3F8F800D3F810
:1036200000110431FFF7B0FE70BD00BF2C00002078
:103630002DE9F04385B00746884615469946900027
:1036400000F040FCF8B10646542000F03BFC044674
:10365000A8B10663D4B10023039302940D9B019398
:103660000C9B00934B462A4641463846FFF7D5FE51
:103670002046FFF73FFF012005B0BDE8F08330464C
:1036800000F0A0FCE6E74FF0FF30F5E74FF0FF3029
:10369000F2E7000000B583B0194B019300230093BB
:1036A000802218491848FFF7C3FF012805D0B0F160
:1036B000FF3F19D003B05DF804FB4FF0500372B622
:1036C00083F31188BFF36F8FBFF34F8F62B60F4B39
:1036D0004FF0FF32DA620122C3F804210022C3F85E
:1036E000102100F04DFBE5E74FF0500372B683F375
:1036F0001188BFF36F8FBFF34F8F62B6FEE700BF35
:10370000480100202C4F0008CD3900082C00002073
:10371000034AD2F818310133C2F81831704700BF9C
:103720002C0000202DE9F041414BD3F81831002B3B
:103730006ED13F4BD3F810510135C3F81051DDB9AC
:103740009B6A1B6853B14FF0500372B683F3118824
:10375000BFF36F8FBFF34F8F62B6FEE7344B9A6AA9
:10376000D3F8F8109962C3F8F820D3F82021013279
:10377000C3F82021FFF736FE2D4BDB6AAB423DD963
:1037800000242B4AD2F80031DB6A03EB8303990053
:103790000A44136B012B42D9012440E00124244B3D
:1037A0009B6A1B6863B3224B9B6ADB68DE687368A5
:1037B0009D422AD306F104084046FFF7FFFDB36A95
:1037C0001BB106F11800FFF7F9FDF36A01229A40D8
:1037D000174FD7F80C110A43C7F80C2107F1300036
:1037E00003EB83039A0041461044FFF7C1FDF26AE0
:1037F000D7F80031DB6A9A42D0D2D0E70024CEE776
:103800000B4B4FF0FF32DA62BBE7094AD362B8E7ED
:10381000074AD2F824310133C2F824310024044B82
:10382000D3F8283103B101242046BDE8F08100BF60
:103830002C0000203A4BD3F8183153B94FF0500305
:1038400072B683F31188BFF36F8FBFF34F8F62B6E9
:10385000FEE770B500F0F6F9314BD3F81821013AC4
:10386000C3F81821D3F81831002B54D12C4BD3F8BE
:10387000FC3023B9002400F00BFA204670BD002470
:10388000274B5B692BB3264D2B6ADC6804F11800CB
:10389000FFF794FD261D3046FFF790FDE36A0122F5
:1038A0009A40D5F80C110A43C5F80C2105F13000F7
:1038B00003EB83039A0031461044FFF759FDE26A97
:1038C000D5F80031DB6A9A42DAD30122C5F8282103
:1038D000D6E70CB1FFF786FD114BD3F8244164B154
:1038E000FFF720FF18B10E4B0122C3F82821013C3D
:1038F000F6D10B4B0022C3F82421094BD3F8283111
:103900005BB1084B4FF080521A60BFF34F8FBFF38B
:103910006F8F0124AFE70024ADE70024ABE700BFC1
:103920002C00002004ED00E010B5C0B10446104B9F
:10393000D3F8183153B14FF0500372B683F31188A6
:10394000BFF36F8FBFF34F8F62B6FEE7FFF7E0FE66
:1039500000212046FFF724FEFFF76CFF38B9054B26
:103960004FF080521A60BFF34F8FBFF36F8F10BDBF
:103970002C00002004ED00E038B5134BD3F81431CF
:103980000BB3FFF7C5FE104BD3F8E440FFF752FF2F
:10399000002CF2D000F056F90B4CD4F8F030DD6872
:1039A000281DFFF70BFDD4F8FC30013BC4F8FC30B8
:1039B000D4F81431013BC4F8143100F069F92846F9
:1039C000FFF722FDD9E738BD2C00002008B5FFF72E
:1039D000D3FF064B1B6B012BF9D9054B4FF08052DF
:1039E0001A60BFF34F8FBFF36F8FF0E72C000020FA
:1039F00004ED00E0234BD3F8183123B1214B012211
:103A0000C3F8282170471F4A0023C2F82831D2F892
:103A10000C31B3FA83F3DBB2C3F11F0303EB830072
:103A200081000A44126B52B94FF0500372B683F30F
:103A30001188BFF36F8FBFF34F8F62B6FEE710B4EC
:103A4000104A9900CC18A0001044446B6468446389
:103A50003032194488000830024494420BD009499E
:103A600003EB83039A000A44536BDB68C1F800310F
:103A70005DF8044B704761680248142202FB0302A0
:103A80005163ECE72C00002070B5044600F0DAF832
:103A900064B3251D2846FFF791FC88B9E26A02EB62
:103AA000820399002C4B0B441B6B4BB9012303FA87
:103AB00002F22949D1F80C3123EA0203C1F80C3192
:103AC000A36A1BB104F11800FFF778FC224E2946C7
:103AD0003046FFF74DFC00F0DBF8D6F804314BB967
:103AE0001D4BD3F80031A3420BD070BD1A4BD3F855
:103AF0000041CEE700F0A6F8FFF774FC00F0C8F82C
:103B0000EEE7154BD3F80431BBB1134BD3F81831A2
:103B100053B14FF0500372B683F31188BFF36F8F28
:103B2000BFF34F8F62B6FEE70C4B4FF080521A6026
:103B3000BFF34F8FBFF36F8FD7E7074B1A68D3F8E8
:103B4000FC309A4204D1044B0022C3F80021CCE798
:103B5000FFF750FFC9E700BF2C00002004ED00E094
:103B6000064BD3F804313BB1044BD3F818310BB1F9
:103B70000020704702207047012070472C00002071
:103B80000D4B1B68B3F1FF3F0AD04FF0500372B6E4
:103B900083F31188BFF36F8FBFF34F8F62B6FEE7D9
:103BA0004FF0500372B683F31188BFF36F8FBFF3EA
:103BB0004F8F62B6FEE700BF08000020064800688D
:103BC000006880F3088862B661B6BFF34F8FBFF319
:103BD0006F8F00DF00BF000008ED00E0DFF80C0091
:103BE000016841F4700101607047000088ED00E059
:103BF0004FF0807340F8043C21F0010140F8081CAC
:103C0000054B40F80C3C40F8202C6FF0020340F8C4
:103C1000243C4438704700BF813B0008000000008E
:103C2000074B19680868B0E8F04F80F30988BFF3C4
:103C30006F8F4FF0000080F311887047AFF3008062
:103C40002C0100204FF0500372B683F31188BFF3AC
:103C50006F8FBFF34F8F62B60B4A13680133136047
:103C6000012B00D07047094B1B6813F0FF0FF9D0F0
:103C70004FF0500372B683F31188BFF36F8FBFF319
:103C80004F8F62B6FEE700BF0800002004ED00E0A1
:103C90000A4B1B6853B94FF0500372B683F3118877
:103CA000BFF36F8FBFF34F8F62B6FEE7013B034A4E
:103CB00013600BB983F31188704700BF0800002020
:103CC000EFF30980BFF36F8F154B1A681EF0100FCA
:103CD00008BF20ED108A20E9F04F10604DF8043D38
:103CE0004FF0500072B680F31188BFF34F8FBFF3CF
:103CF0006F8F62B6FFF77EFE4FF0000080F31188F1
:103D000008BC19680868B0E8F04F1EF0100F08BF33
:103D1000B0EC108A80F30988BFF36F8F704700BF43
:103D20002C01002008B54FF0500372B683F31188C0
:103D3000BFF36F8FBFF34F8F62B6FFF7F3FC18B17D
:103D4000034B4FF080521A60002383F3118808BDA3
:103D500004ED00E0064B1B68064AA2FB03239B0907
:103D6000013B054A1360054B07221A60704700BFEC
:103D70000C000020D34D621014E000E010E000E0E1
:103D800000B583B0224B1A78D2B20192FF221A708A
:103D90001B78DBB28DF803309DF8033003F050033D
:103DA0001C4A13700723536009E01A4A5368013B09
:103DB00053609DF803305B00DBB28DF803309DF853
:103DC000033013F0800FF0D1124A53681B0203F442
:103DD000E0635360019BDBB20D4A13700E4B1A680F
:103DE00042F470021A601A6842F070421A60FFF7DB
:103DF000B1FF0A4B00221A60FFF7F0FE084A136871
:103E000043F040431360FFF7D9FEFFF7B9FE00BF50
:103E100000E400E05801002020ED00E00800002050
:103E200034EF00E0104A12F0070F1AD0D11D21F034
:103E30000701C1F5705313440A460C490A6000207B
:103E400048601344083B23F007038B6058601860F8
:103E5000981A50601360C86008614FF000434B61CE
:103E600070474FF47053E8E77801002060010020AC
:103E700010B4134B1A6882421BD359685C188442F1
:103E800003D1406801445960184641684418A24271
:103E900013D10B4CA468A2420DD05268114441606A
:103EA0001A6812680260984200D018605DF8044BEE
:103EB00070471346DEE70460F5E70260F3E700BFF2
:103EC0006001002070B50446FFF722FC3C4B9B6864
:103ED000CBB13B4B5B691C4268D1BCB1083414F0D8
:103EE000070F13D024F00704083404F007036BB164
:103EF0004FF0500372B683F31188BFF36F8FBFF397
:103F00004F8F62B6FEE7FFF78DFFE2E7002C4FD040
:103F10002B4B1B69A3424DD3294B1D6801E02B4657
:103F200015466A68A24202D22A68002AF7D1244ABA
:103F30009268AA4240D01E6808362A681A606B68E8
:103F40001B1B102B12D9281910F0070F0AD04FF0A5
:103F5000500372B683F31188BFF36F8FBFF34F8F97
:103F600062B6FEE743606C60FFF782FF6968144A3F
:103F700013695B1A1361D268934201D2104AD3606D
:103F80000F4B5B690B436B6000232B60FFF752FC08
:103F900016F0070F12D04FF0500372B683F311885A
:103FA000BFF36F8FBFF34F8F62B6FEE70026EDE7DA
:103FB0000026EBE70026E9E70026E7E7304670BD7C
:103FC00060010020002834D038B50446A0F108056F
:103FD00050F8042C174949690A420AD14FF050039E
:103FE00072B683F31188BFF36F8FBFF34F8F62B642
:103FF000FEE750F8080C50B14FF0500372B683F34F
:104000001188BFF36F8FBFF34F8F62B6FEE722EACE
:10401000010244F8042CFFF77BFB54F8041C054A0A
:1040200013690B4413612846FFF722FFFFF702FCD8
:1040300038BD70476001002000B583B00E4B1A6B8D
:1040400042F400121A631B6B03F400130193019BEB
:10405000002205210D20FCF7ABFA0D20FCF7DAFA5F
:10406000002205210F20FCF7A3FA0F20FCF7D2FA5B
:1040700003B05DF804FB00BF0038024008B5012022
:10408000FFF757F9FBE7000008B511E06420FFF7E0
:1040900029F86420FFF766F86420FFF7A5F864208C
:1040A000FFF7E2F86420FFF744F90120FFF741F938
:1040B0004FF080435B6A5B422B4A13802B4B5B6A59
:1040C0005B422B4A13802B4B5A6A2B4B1A802B4B8B
:1040D0005A6A2B4B1A802B4B1B78012BD6D0022B04
:1040E0001AD0032B2CD0042BDFD14FF0FF30FEF77A
:1040F000F9FF4FF0FF30FFF735F84FF0FF30FFF7D3
:1041000073F84FF0FF30FFF7AFF81F4B01221A7022
:104110006420FFF70EF9C8E76FF06300FEF7E2FFD7
:104120006FF06300FFF71EF86FF06300FFF75CF8B5
:104130006FF06300FFF798F86420FFF7FAF8B4E730
:104140000020FEF7CFFF0020FFF70CF80020FFF75C
:104150004BF80020FFF788F80B4B00221A70642000
:10416000FFF7E7F8A1E700BF803D00200004004012
:10417000843D002000080040863D0020000C0040E7
:10418000823D00203C3F0020883D002070B58AB071
:104190000E4C05AD26460FCE0FC533682B600021AF
:1041A00005A8FFF7ACF80A4B1860FFF76DFC6D46E9
:1041B00014340FCC0FC523682B6000216846FFF72D
:1041C0009EF8044B18600AB070BD00BFEC4E0008AA
:1041D0008C3D0020903D00202DE9F0418CB0414BFA
:1041E0001A6B42F004021A631A6B02F00402019285
:1041F000019A1A6B42F080021A631A6B02F0800275
:104200000292029A1A6B42F001021A631A6B02F0D0
:1042100001020392039A1A6B42F010021A631A6B9E
:1042200002F010020492049A1A6B42F002021A631E
:104230001A6B02F002020592059A1A6B42F008020C
:104240001A631B6B03F008030693069B264E00229D
:1042500008213046FCF7CCFC244D00224FF41541D8
:104260002846FCF7C5FC4FF400530793204F0897EE
:104270000024099407A93046FCF7CAFB08230793DA
:104280004FF00108CDF8208009940A9407A9304620
:10429000FCF7BEFB802307930894099407A92846DE
:1042A000FCF7B6FB4FF415430793CDF82080099433
:1042B0000A9407A92846FCF7ABFB4FF48043079309
:1042C0000897099407A90B48FCF7A2FB2246214650
:1042D0002820FCF76DF92820FCF79CF90CB0BDE80C
:1042E000F08100BF00380240000802400010024088
:1042F00000001110000C024008B51648164B036070
:10430000164B4360372383600123C360002303619E
:1043100043618361C3610362FCF7D0FC50B90021A3
:104320000C48FCF7ECFF50B900210A48FDF715F8DE
:1043300050B908BD4F210A4800F0ECF8EFE75621CC
:10434000074800F0E7F8EFE75D21054800F0E2F8E4
:10435000EFE700BF403F002000580040AF747000FE
:10436000F84F00080268384B9A4200D0704710B5E9
:1043700086B004464FF44063019312230293012355
:10438000039303230493042305930DEB03012F48A8
:10439000FCF73EFB2E4B1A6C42F480021A641B6C35
:1043A00003F480030093009B2A482B4B03604FF0DB
:1043B00080534360402383600023C3604FF48062D6
:1043C000026143618361C3614FF400320262436260
:1043D000FCF7B6F900282DD11E4BA3639C631F4840
:1043E0001F4B03604FF06063436000238360C36032
:1043F0004FF48062026143618361C3614FF4803294
:1044000002624362FCF79CF9C8B9144BE3639C63F6
:10441000002205212120FCF7CBF82120FCF7FAF837
:10442000002205212220FCF7C3F82220FCF7F2F835
:1044300006B010BD88210B4800F06CF8CCE79A213B
:10444000084800F067F8E0E7005800400004024028
:1044500000380240EC3F0020706002408C3F00209A
:1044600040600240F84F000810B4BFF34F8FBFF315
:104470006F8F1A4B0021C3F850125A6942F4003270
:104480005A61BFF34F8FBFF36F8FC3F88410BFF330
:104490004F8FD3F88040C4F34E300FE01A4643F6F6
:1044A000E07303EA401343EA82730C49C1F86032B7
:1044B000531E002AF2D1431E18B11846C4F3C90294
:1044C000EDE7BFF34F8F4B6943F480334B61BFF38C
:1044D0004F8FBFF36F8F5DF8044B704700ED00E026
:1044E000014B01221A707047783D0020014B0122D8
:1044F0001A707047783D00207047704708B5026811
:10450000034B9A4200D008BDFCF72EF8FBE700BF32
:1045100000200040FEE7000000B5B9B0334B1A6C34
:1045200042F080521A641B6C03F080530093009B8E
:104530002F4A136823F4404343F480431360136805
:1045400003F440430193019B01232B934FF48033E9
:104550002C93022331934FF480023292142233922F
:10456000C02234923593052336932BA8FCF722FF03
:1045700068BB0F23269302232793002328934FF42D
:10458000A05329932A93032126A8FDF751F910BBC4
:1045900048F2800302930423149300231C9302A87F
:1045A000FDF73CFAE0B9FDF7F5F9124BA3FB00303B
:1045B0008009FCF73BF80420FCF74EF800220F219D
:1045C0004FF0FF30FBF7F4FF39B05DF804FBF32147
:1045D0000948FFF79FFF40F201110748FFF79AFFD4
:1045E00040F209110448FFF795FF00BF0038024070
:1045F00000700040D34D62100850000808B5FBF76A
:10460000A7FFFFF731FFFFF787FFFFF7E5FDFFF794
:1046100013FD00F031FB00F091F900F0C5F900F056
:10462000FBF900F031FA00F0ADFBFFF765FE002466
:10463000284B1C700125284B1D70284E3046FBF777
:104640007FFF02462146304600F038FC244E3046BB
:10465000FBF776FF02462146304600F02FFC214B47
:104660001D70214D2846FBF76BFF02462146284668
:1046700000F024FC1D4D2846FBF762FF0246214650
:10468000284600F01BFC1A4D21462846FDF77EFF08
:1046900004212846FDF77AFF08212846FDF776FF1A
:1046A0000C212846FDF772FF04211248FDF7BEFFDA
:1046B00004211148FDF7BAFF04211048FDF7B6FFA9
:1046C00004210F48FDF7B2FFFFF760FDFEF712FE71
:1046D000FEE700BF3C3F0020883D0020683E0020F0
:1046E000CC3E0020F83D0020043E0020943D0020F8
:1046F0004C4100208C4100200C4100208C400020C7
:10470000CC40002008B54FF4A8710148FFF702FF24
:104710000850000808B5FCF7F0FD042800D108BDDA
:1047200040F27B110148FFF7F5FE00BF085000087A
:1047300000B583B0214B1A6C42F080521A641A6C97
:1047400002F080520092009A5A6C42F480425A64FD
:104750005B6C03F480430193019B0320FBF716FF7E
:10476000002211466FF00B00FBF722FF00221146DA
:104770006FF00A00FBF71CFF002211466FF00900E2
:10478000FBF716FF002211466FF00400FBF710FF45
:10479000002211466FF00300FBF70AFF00220F21F1
:1047A0006FF00100FBF704FF00220F214FF0FF30F4
:1047B000FBF7FEFE03B05DF804FB00BF00380240CB
:1047C00000B589B0002201462D20FBF7F1FE2D2017
:1047D000FBF720FF154B1A6C42F480721A641B6CB5
:1047E00003F480730193019B02A903A8FDF7F8F875
:1047F000FDF7D6F843000E48A0FB03239B0C013BBA
:104800000C480D4A026040F2E732C2604360002368
:1048100003618360FDF768FD18B1012009B05DF800
:1048200004FB0448FDF7FDFBF8E700BF0038024039
:1048300083DE1B434C400020002000407047FEE711
:10484000FEE7FEE7FEE7704708B5FEF77BFD08BD13
:1048500008B50248FBF7EEFF08BD00BF8C3F002003
:1048600008B50248FBF7E6FF08BD00BFEC3F00209B
:1048700008B50248FCF780FA08BD00BF403F0020A1
:1048800008B50248FCF7E9FC08BD00BF403F002026
:1048900008B50248FEF716F908BD00BFCC4100205C
:1048A00008B50C4B5B6913F4005F09D00A4A137812
:1048B0000133DBB21370042B02D9134600221A70A5
:1048C0004FF40050FCF79CF94FF48040FCF798F946
:1048D00008BD00BF003C01403C3F002008B5024835
:1048E000FDF7AFFB08BD00BF4C40002010B40F4ADD
:1048F000D2F8883043F47003C2F888300C4B196842
:1049000041F001011960002098601C6809492140AC
:10491000196009495960196821F480211960D8602B
:104920004FF0006393605DF8044B704700ED00E0CA
:1049300000380240FFFFF6FE1030002400B58DB0B5
:1049400017484FF0804303600023436083604FF6B5
:10495000FF72C26003618361012203920493059296
:1049600006930F210791089309920A930B9103A9CB
:10497000FDF7ECFC50B90023009302936946084808
:10498000FDF7CAFE38B90DB05DF804FBA12105485A
:10499000FFF7C0FDEFE7A8210248FFF7BBFDF2E7F4
:1049A0008C4100201850000800B58DB01748184BF6
:1049B00003600023436083604FF6FF72C2600361AF
:1049C0008361012203920493059206930F210791BC
:1049D000089309920A930B9103A9FDF7B7FC50B90C
:1049E00000230093029369460848FDF795FE38B905
:1049F0000DB05DF804FBC3210648FFF78BFDEFE720
:104A0000CA210448FFF786FDF2E700BF0C410020F1
:104A1000000400401850000800B58DB01748184B2E
:104A200003600023436083604FF6FF72C26003613E
:104A30008361012203920493059206930F2107914B
:104A4000089309920A930B9103A9FDF77FFC50B9D3
:104A500000230093029369460848FDF75DFE38B9CC
:104A60000DB05DF804FBE5210648FFF753FDEFE7C5
:104A7000EC210448FFF74EFDF2E700BF8C40002018
:104A8000000800401850000800B58DB01848194BB8
:104A900003600023436083604FF6FF72C2600361CE
:104AA0008361012203920493059206930F210791DB
:104AB000089309920A930B9103A9FDF747FC50B99B
:104AC00000230093029369460948FDF725FE40B98B
:104AD0000DB05DF804FB40F207110748FFF71AFD1F
:104AE000EEE74FF487710448FFF714FDF0E700BFCD
:104AF000CC400020000C0040185000080268094B10
:104B00009A4200D0704782B003F59C335A6C42F051
:104B100001025A645B6C03F001030193019B02B034
:104B2000704700BF0000014070B58AB00368B3F160
:104B3000804F0AD03A4A93422BD03A4A93423FD010
:104B4000394A934254D00AB070BD03F50E331A6C43
:104B500042F001021A641B6C03F001030193019BF4
:104B60004FF4004305930226069600240794089408
:104B70000125099505A92D48FBF74AFF0823059350
:104B8000069607940894099505A92948FBF740FF64
:104B9000D9E7284B1A6C42F002021A641B6C03F02E
:104BA00002030293029BC023059302230693002273
:104BB00007920892099305A91F48FBF729FFC2E74E
:104BC0001C4B1A6C42F004021A641B6C03F00403C1
:104BD0000393039B4FF44053059302230693002253
:104BE00007920892099305A91448FBF711FFAAE759
:104BF000104B1A6C42F008021A641B6C03F0080395
:104C00000493049B03230593022306930022079237
:104C10000892099305A90548FBF7FAFE93E700BF40
:104C20000004004000080040000C0040000002406A
:104C3000000402400038024000080240000C02401C
:104C400002680B4B9A4200D0704700B587B04FF412
:104C5000D44301930223029300230393049301237B
:104C6000059301A90348FBF7D3FE07B05DF804FBE9
:104C7000000001400010024000B597B03E483F4B95
:104C80000360132343600023836040F2E732C26075
:104C9000036143618361FDF740FB002848D1002395
:104CA00013931493159313A93348FDF735FD00288A
:104CB00043D160230C9300220D920E920F9210921A
:104CC000119212920CA92C48FDF79EFD002839D1B3
:104CD00004220CA92848FDF797FD002837D10822A7
:104CE0000CA92548FDF790FD002835D10C220CA910
:104CF0002148FDF789FD002833D100230193029359
:104D00000393049305934FF400520692079308937C
:104D10004FF0007209920A930B9301A91648FDF710
:104D200027FD18BB1448FFF78BFF17B05DF804FB95
:104D300051211348FFF7EEFBB1E759211048FFF767
:104D4000E9FBB6E765210E48FFF7E4FBC0E76A21FF
:104D50000B48FFF7DFFBC2E76F210948FFF7DAFBDB
:104D6000C4E774210648FFF7D5FBC6E78421044851
:104D7000FFF7D0FBD6E700BF4C4100200000014008
:104D80001850000808B50C480C4B03604FF4E13391
:104D9000436000238360C36003610C22426183612E
:104DA000C36103624362FEF76AF900B908BD4E2190
:104DB0000348FFF7AFFBF9E7CC4100200044004077
:104DC000285000080268144B9A4200D0704710B572
:104DD00086B003F5FA331A6C42F400321A641B6C85
:104DE00003F400330093009B60230193022302939A
:104DF00000240394032304930723059301A9074880
:104E0000FBF706FE224605212620FBF7D1FB2620D4
:104E1000FBF700FC06B010BD00440040000C02404F
:104E2000DFF834D0002103E00C4B5B5843500431D1
:104E30000B480C4B42189A42F6D30B4A02E000236F
:104E400042F8043B094B9A42F9D3FFF74FFD00F0BB
:104E500011F8FFF7D3FB7047000008204850000806
:104E60000000002010000020100000203C42002024
:104E7000FEE7000070B50D4E0D4CA41BA4100025DC
:104E8000A54209D10B4E0C4C00F020F8A41BA41035
:104E90000025A54205D170BD56F82530984701354B
:104EA000EEE756F8253098470135F2E74050000804
:104EB0004050000840500008445000080244034697
:104EC000934200D1704703F8011BF9E7F8B500BF22
:104ED000F8BC08BC9E467047F8B500BFF8BC08BCDB
:044EE0009E46704733
:104EE4000006101600061016EC4F00087D4000085E
:104EF400000000000000000080000000DC4F0008FB
:104F0400894000080000000000000000800000004C
:104F14000000000000000000010203040607080965
:104F2400000000000102030449444C450000000055
:104F34000A0D54657374696E6720726563656976DA
:104F4400652E200A0D09456E746572202725642795
:104F54002063686172616374657220776F72643A6A
:104F64000A0D09002E2E2F5372632F667265657227
:104F7400746F732E630000000A0D09596F75206861
:104F840061766520656E74657265642027257327D4
:104F94002E0A0D007C0000000D554152542054721D
:104FA400616E736D697420546573742025730000F9
:104FB4002F0000002D0000005C0000000A0D00001E
:104FC400543243205472616E736D69742054657356
:104FD400742027256427000064726976655465731C
:104FE400745461736B00000064656661756C74547D
:104FF40061736B002E2E2F5372632F6932632E63FD
:10500400000000002E2E2F5372632F6D61696E2EE7
:10501400630000002E2E2F5372632F74696D2E636C
:10502400000000002E2E2F5372632F75736172746B
:045034002E630000E7
:0850380038B2FF7F0100000007
:04504000250200083D
:04504400010200085D
:105048000100000010000000AAAAAAAA0024F40087
:0400000508004E2180
:00000001FF
