:020000040800F2
:1000000000000820F95D0008755500087D550008BE
:10001000C5550008C7550008C95500080000000074
:10002000000000000000000000000000A1460008E1
:10003000CB5500080000000041470008A547000814
:10004000495E0008495E0008495E0008495E0008F4
:10005000495E0008495E0008495E0008495E0008E4
:10006000495E0008495E0008495E0008495E0008D4
:10007000CD550008495E0008DD550008495E0008BE
:10008000495E0008495E0008ED550008495E000819
:10009000495E0008495E0008495E0008495E0008A4
:1000A000495E0008495E0008495E0008495E000894
:1000B000495E0008495E0008495E0008495E000884
:1000C000495E0008495E0008495E0008495E000874
:1000D000495E0008495E0008495E0008FD550008B9
:1000E0000D560008495E0008495E0008495E000898
:1000F000495E000819560008495E0008495E00087C
:10010000495E0008495E0008495E0008495E000833
:10011000495E0008495E0008495E0008495E000823
:1001200029560008495E0008495E0008495E00083B
:10013000495E0008495E0008495E0008495E000803
:10014000495E0008495E0008495E0008495E0008F3
:10015000495E0008495E0008495E0008495E0008E3
:10016000495E0008495E0008495E0008495E0008D3
:10017000495E0008495E0008495E00080000000072
:10018000495E0008495E0008495E0008495E0008B3
:10019000495E0008495E0008495E0008495E0008A3
:1001A000495E0008495E0008495E0008495E000893
:1001B000495E0008495E0008495E0008495E000883
:1001C000495E0008495E000800000000495E000822
:1001D000495E0008495E0008495E0008495E000863
:1001E000495E0008495E0008495E0008495E000853
:0801F000495E0008495E0008A9
:1002000010B5054C237833B9044B13B10448AFF350
:1002100000800123237010BD1800002000000000A2
:10022000BC5E000808B5034B1BB103490348AFF39C
:10023000008008BD000000001C000020BC5E00081B
:1002400053B94AB9002908BF00281CBF4FF0FF313D
:100250004FF0FF3000F072B9ADF1080C6DE904CE3B
:1002600000F006F8DDF804E0DDE9022304B0704791
:100270002DE9F047089E04468846002B4BD18A4260
:10028000154667D9B2FA82F24AB1C2F1200701FAE3
:1002900002F320FA07F7954047EA030894404FEA33
:1002A000154E230CB8FBFEF71FFA85FC0EFB1788D2
:1002B00043EA084307FB0CF1994209D9EB1807F10F
:1002C000FF3080F01B81994240F21881023F2B449D
:1002D0005B1AA4B2B3FBFEF00EFB103344EA0344F6
:1002E00000FB0CFCA44509D92C1900F1FF3380F068
:1002F0000781A44540F2048102382C4440EA0740BB
:10030000A4EB0C0400271EB1D4400023C6E900432F
:100310003946BDE8F0878B4209D9002E00F0EB800A
:100320000027C6E9000138463946BDE8F087B3FA30
:1003300083F7002F47D18B4202D3824200F2FA802A
:10034000841A61EB030301209846002EE0D0C6E931
:100350000048DDE702B9FFDEB2FA82F2002A40F07F
:100360008F80491B4FEA154E1FFA85F80127B1FB14
:10037000FEFC230C0EFB1C1143EA014308FB0CF1AD
:10038000994207D9EB180CF1FF3002D2994200F2E2
:10039000CD808446591AA3B2B1FBFEF00EFB1014B7
:1003A00043EA044408FB00F8A04507D92C1900F1E2
:1003B000FF3302D2A04500F2B6801846A4EB080431
:1003C00040EA0C409FE7C7F1200CBB4022FA0CFE2C
:1003D0004EEA030E01FA07F420FA0CF521FA0CF3A9
:1003E0004FEA1E482543B3FBF8F92C0C08FB1933E0
:1003F0001FFA8EFA44EA034309FB0AF49C4202FA0C
:1004000007F200FA07F10BD91EEB030309F1FF30E5
:1004100080F087809C4240F28480A9F102097344F5
:100420001B1BADB2B3FBF8F008FB103345EA0344E5
:1004300000FB0AFAA24508D91EEB040400F1FF33C1
:100440006BD2A24569D90238744440EA0940A0FB46
:100450000289A4EB0A044C45C2464B4654D351D002
:10046000002E69D0B1EB0A0564EB030404FA0CFC1E
:10047000FD40FC404CEA0505C6E90054002747E76B
:10048000C2F1200320FA03F7954001FA02F021FAA5
:1004900003F34FEA154E3843010CB3FBFEF71FFA86
:1004A00085F80EFB173341EA034107FB08F38B4243
:1004B00004FA02F407D9691807F1FF3C2FD28B42E6
:1004C0002DD9023F2944CB1A81B2B3FBFEF00EFBBB
:1004D000103341EA034100FB08F38B4207D9691846
:1004E00000F1FF3C17D28B4215D902382944C91AB2
:1004F00040EA07473BE73746304609E70746E7E665
:100500001846FBE64145ABD2B8EB020A69EB0E0296
:1005100001381346A4E76046E9E7184695E76746C1
:10052000D1E781467CE702382C4447E7ACF1020C66
:100530002B442FE7384608E73746E9E6704700BF07
:1005400008B5032000F090FB002004F0D7FF04F072
:10055000B5FF002008BD0000034A1168034B1B785B
:100560000B441360704700BF843D00200000002052
:10057000014B1868704700BF843D00204A4B5A6801
:1005800022F440325A605A6841680A435A6002684D
:10059000536823F48073536002685368016943EA27
:1005A000012353600268536823F04073536002686C
:1005B000536881680B4353600268936823F40063B7
:1005C000936002689368C1680B439360826A374BFB
:1005D0009A424BD00268936823F07063936002687C
:1005E0009368816A0B4393600268936823F04053D9
:1005F000936002689368C16A0B43936002689368D2
:1006000023F00203936002689368816943EA41031F
:10061000936090F82030002B33D10268536823F4A4
:10062000006353600268D36A23F47003D3620168E5
:10063000CB6AC269013A43EA0253CB62026893680B
:1006400023F4007393600268936890F8301043EAD3
:10065000412393600268936823F480639360026887
:100660009368416943EA8123936070470268936805
:1006700023F0706393600268936823F040539360A3
:10068000BCE70268536843F4006353600268536830
:1006900023F46043536001684B68426A013A43EABD
:1006A00042334B60BEE700BF002301400100000F52
:1006B00028B310B50446036C43B1236C13F0100F3C
:1006C0000BD00120002384F83C3010BD04F0A4FCC2
:1006D0000023636484F83C30EFE7226C094B13403D
:1006E00043F0020323642046FFF748FF00206064C4
:1006F000236C23F0030343F001032364E2E70120AA
:10070000704700BFFDEEFFFF30B583B000230193BB
:1007100090F83C30012B00F09180012380F83C30B0
:100720000468A36813F0010F13D1A36843F0010319
:10073000A360484B1C68484BA3FB0434A40C04EB97
:100740004404019402E0019C013C0194019C002CB2
:10075000F9D103689C6814F0010F71D0056C3F4C0F
:100760002C4044F4807404645B6813F4806F05D0FB
:10077000036C23F4405343F480530364036C13F479
:10078000805F36D0436C23F006034364134604466F
:10079000002280F83C20826B3148D063A26B314844
:1007A0001064A26B3048D06422686FF022001060A1
:1007B0002568686840F0806068602568A86840F433
:1007C0008070A86020680A4600F14C01A06B00F020
:1007D0007DFB264B5B6813F01F0F0DD123689A68D1
:1007E00012F0405F2FD19A6842F080429A60002058
:1007F00027E000234364C9E723681D4A93420AD0D7
:100800001A4B5B6813F0100F1FD12368194A9342EB
:100810000AD0002015E09A6812F0405FF0D19A6883
:1008200042F080429A60EBE79A6812F0405F0ED186
:100830009A6842F080429A60002002E0022000E0C4
:10084000002003B030BD0020FBE70020F9E70020C6
:10085000F7E700BF1400002083DE1B43FEF8FFFF14
:10086000470A0008DB080008310A0008002301409D
:10087000002001400022014090F83C30012B26D09E
:1008800010B50446012380F83C300268936823F0D9
:100890000103936003689A6812F0010F04D00020EE
:1008A000002384F83C3010BD9A6822F480729A606C
:1008B000806B00F045FB2268536823F0806353602F
:1008C000226C044B134043F001032364E8E7022049
:1008D000704700BFFEEEFFFF704708B5806BFFF763
:1008E000FBFF08BD7047704738B5044601680A68C9
:1008F000C2F340024B68C3F340131A422CD0036C7E
:1009000013F0100F03D1036C43F4007303648B687E
:1009100013F0405F19D1A369BBB9CB6A13F4700F10
:1009200003D08B6813F4806F0FD14B6823F0200342
:100930004B60236C23F480732364236C13F4805F77
:1009400003D1236C43F001032364204604F096FA9C
:1009500023686FF012021A6023681968C1F38001DE
:100960005A68C2F3C012114234D0226C12F0100F38
:1009700003D1226C42F4005222649A6812F4401FA0
:1009800021D19A6B12F4401F03D09A6812F4806F41
:1009900019D15A6812F4806F15D19A6812F0405F2D
:1009A00011D1A2697AB95A6822F080025A60236C88
:1009B00023F480532364236C13F4807F03D1236CCE
:1009C00043F001032364204600F04CF923686FF0E4
:1009D0000C021A60226811685368C3F3801319422D
:1009E00003D0136813F0010F09D121680A68C2F31C
:1009F00040124B68C3F380631A420CD138BD236C9C
:100A000043F4803323642046FFF76CFF23686FF0C4
:100A100001021A60E9E7636C43F0020363646FF05C
:100A200020050D602046FFF75EFF23681D60E5E7A7
:100A300008B5806B40230364436C43F004034364B4
:100A4000FFF751FF08BD08B5836B1A6C12F0500F09
:100A500026D11A6C42F400721A641A68916811F077
:100A6000405F19D19969B9B9D16A11F4700F03D0F7
:100A7000916811F4806F0FD1516821F0200151600D
:100A80001A6C22F480721A641A6C12F4805F03D11B
:100A90001A6C42F001021A64184604F0EFF908BD1E
:100AA0001A6C12F0100F03D19B6BDB6C9847F6E7C2
:100AB0001846FFF718FFF2E730B482B00023019325
:100AC00090F83C30012B00F0C080012380F83C30CE
:100AD0000B68092B22D90568EA689BB203EB430334
:100AE0001E3B072404FA03F322EA0303EB600B68BE
:100AF000574A93420BD00568EA688C689BB203EBB7
:100B000043031E3B04FA03F31343EB601BE002684C
:100B1000D3688C6843EA0463D36014E005682A69EB
:100B20009BB203EB4303072404FA03F322EA030313
:100B30002B6105682A698C680B8803EB430304FA70
:100B400003F313432B614B68062B24D805686A6BAB
:100B500003EB8303053B1F2404FA03F322EA030398
:100B60006B6305686A6B4B6803EB8303053B0C887A
:100B700004FA03F313436B630268364B9A423AD08C
:100B80000268344B9A423FD0002380F83C3018462C
:100B900002B030BC70470C2B16D805682A6B03EBEB
:100BA0008303233B1F2404FA03F322EA03032B638A
:100BB00005682A6B4B6803EB8303233B0C8804FA1C
:100BC00003F313432B63D7E70568EA6A03EB830358
:100BD000413B1F2404FA03F322EA0303EB62056896
:100BE000EA6A4B6803EB8303413B0C8804FA03F386
:100BF0001343EB62C0E70B68122BC1D1164A53684E
:100C000043F480035360BBE70B68114A112B18BFF4
:100C10009342B9D1104A536843F4000353600A6801
:100C20000B4B9A42B0D10D4B1B680D4AA2FB03231C
:100C30009B0C03EB83035A00019202E0019B013BF2
:100C40000193019B002BF9D19EE70220A0E700BF92
:100C50001200001000200140002301401400002079
:100C600083DE1B43704700000649CB6823F4E06332
:100C70001B041B0C000200F4E0600343024A1A4309
:100C8000CA60704700ED00E00000FA0530B4154B73
:100C9000DB68C3F30223C3F10704042C28BF042438
:100CA0001D1D062D14D9033B4FF0FF3505FA04F442
:100CB00021EA0401994005FA03F322EA03031943E8
:100CC000002807DB0901C9B2074B195430BC704733
:100CD0000023E9E700F00F000901C9B2034B1954E2
:100CE000F4E700BF00ED00E000E400E014ED00E0F8
:100CF000002807DB00F01F02400901239340024A4D
:100D000042F82030704700BF00E100E030B40568D1
:100D10002C6824F480242C60046863608368402B72
:100D200005D0036899600368DA6030BC70470368D7
:100D30009A600368D960F8E70268D3B2103B0949AA
:100D4000A1FB03131B090849C95CC165032B04D827
:100D5000064B13408365806D7047044B134004338A
:100D60008365F8E7ABAAAAAAD45E000800FCFFFFDF
:100D7000836A826992B9012B0AD01BB1022B01D080
:100D800000207047C36A13F0807F2CD10020704789
:100D9000C36AB3F1C07F28D000207047B2F5005F6E
:100DA00005D0022B29D9032B15D000207047032B27
:100DB00003D8DFE803F01C041C0A00207047C36A54
:100DC00013F0807F15D100207047C36AB3F1C07F54
:100DD00011D000207047C36A13F0807F01D001203A
:100DE00070470020704701207047012070470120A4
:100DF00070470120704701207047012070470000B4
:100E000070B50446FFF7B4FB002C5BD00546002309
:100E100084F83430022384F835302268136823F0D4
:100E20000103136023681A6812F0010F0AD0FFF75C
:100E30009FFB401B0528F5D920236365032084F818
:100E4000350070BD1A68204810406168A2680A43E6
:100E5000E1680A4321690A4361690A43A1690A43B7
:100E6000E1690A43216A0A430243616A04291ED0E8
:100E70001A602668756925F00705636A1D43042B0F
:100E800007D1A36A1D43E36A1BB12046FFF770FF39
:100E900090B975612046FFF74FFFE26D3F23934005
:100EA000836000206065012384F83530C9E7E16A7A
:100EB000206B01430A43DBE740236365012084F88C
:100EC0003500BEE70120BCE73F8010E038B5856DF6
:100ED00090F83440012C31D0012480F8344090F84F
:100EE0003540E4B2012C04D0002380F834300220D5
:100EF00038BD0446022084F8350000206065204695
:100F0000FFF704FFE26D3F239340AB602268136854
:100F100043F0160313602268536943F08003536162
:100F2000236C23B12268136843F00803136022681E
:100F3000136843F0010313600020D9E70220D7E7CC
:100F400070B50446866DFFF713FB94F83530DBB2BD
:100F5000022B06D080236365002384F834300120FF
:100F600070BD05462268136823F0160313602268DB
:100F7000536923F080035361236CE3B12268136843
:100F800023F0080313602268136823F00103136041
:100F900023681B6813F0010F11D0FFF7E9FA401B1B
:100FA0000528F5D920236365002384F83430032015
:100FB00084F83500D4E7A36C002BDFD1E3E7E26DC2
:100FC0003F239340B360002084F83400012384F869
:100FD0003530C5E790F83530DBB2022B03D08023E3
:100FE000436501207047052380F835300268136897
:100FF00023F001031360002070470000F0B583B0B8
:10100000044600230193724B1D68724BA3FB053508
:10101000AD0A876D3E68C26D08239340334210D0FD
:1010200003681A6812F0040F0BD01A6822F0040249
:101030001A60C26D08239340BB60436D43F0010307
:101040004365E26D01239340334209D0226852691F
:1010500012F0800F04D0BB60636D43F00203636540
:10106000E26D04239340334209D02268126812F0E3
:10107000020F04D0BB60636D43F004036365E26D4F
:1010800010239340334224D02268126812F0080FD4
:101090001FD0BB6023681A6812F4802F0DD01B6824
:1010A00013F4002F04D1236C9BB12046984710E025
:1010B000A36C73B1204698470BE01A6812F4807F46
:1010C00003D11A6822F008021A60236C0BB1204683
:1010D0009847E26D20239340334255D0226812682E
:1010E00012F0100F50D0BB6094F83530DBB2052BF6
:1010F0000ED023681A6812F4802F33D01B6813F4C3
:10110000002F2AD1636C002B3ED0204698473BE04D
:101110002268136823F0160313602268536923F0D2
:1011200080035361236CA3B12268136823F0080382
:101130001360E26D3F239340BB60002384F834309A
:10114000012384F83530236D002B3FD0204698478B
:101150003CE0A36C002BE7D1EBE7E36BA3B12046A7
:10116000984711E01A6812F4807F09D11A6822F0BA
:1011700010021A60002384F83430012384F83530DB
:10118000E36B0BB120469847636DFBB1636D13F0C1
:10119000010F17D0052384F835302268136823F037
:1011A00001031360019B01330193AB4204D8236810
:1011B0001B6813F0010FF5D1002384F834300123AC
:1011C00084F83530E36C0BB12046984703B0F0BD8E
:1011D00014000020B5814E1B00230F2B00F2E2808B
:1011E000F0B482B039E0092200E00022B2403A4374
:1011F00002346D4E46F824206C4A1468EA4302EA31
:1012000004064F6817F4803F01D045EA0406674C96
:101210002660646802EA04064F6817F4003F01D0B4
:1012200045EA0406614C6660A46802EA04064F6859
:1012300017F4801F01D045EA04065C4CA660E46800
:1012400022404E6816F4001F01D045EA0402574CB4
:10125000E26001330F2B00F2A28001229A400C6859
:1012600004EA0205AA42F4D14C68122C18BF022CE1
:1012700010D1DE08083650F826C003F00704A70096
:101280000F24BC402CEA040C0C69BC4044EA0C045A
:1012900040F8264004685F000326BE40F64306EA95
:1012A000040C4C6804F00304BC4044EA0C040460E1
:1012B0004C6804F1FF3C112C18BFBCF1010F01D99F
:1012C000122C11D1846806EA040CCC68BC4044EAB4
:1012D0000C048460446824EA020C4C68C4F30012D5
:1012E0009A4042EA0C024260C26816408A68BA40DC
:1012F0003243C2604A6812F0805FAAD02C4A546C14
:1013000044F480445464526C02F480420192019A85
:101310009C08A61C244A52F8267003F0030296008B
:101320000F22B24027EA0207224A90423FF45DAF03
:1013300002F58062904222D002F58062904220D075
:1013400002F5806290421ED002F5806290421CD06D
:1013500002F5806290421AD002F58062904218D065
:1013600002F58062904216D002F58062904214D05D
:1013700002F5806290423FF436AF0A2236E701223E
:1013800034E7022232E7032230E704222EE7052267
:101390002CE706222AE7072228E7082226E702B0E0
:1013A000F0BC7047704700BF00380140003C01406E
:1013B000003802400000024012B909048161704700
:1013C000816170477047000008B5054B5B690342B7
:1013D00000D108BD024B5861FFF7F4FFF9E700BFE9
:1013E000003C0140024A136843F480731360704765
:1013F00000700040002800F0DC8170B582B0044627
:10140000036813F0010F29D0A24B9B6803F00C0373
:10141000042B1AD09F4B9B6803F00C03082B0FD0B2
:101420006368B3F5803F40D0002B54D1994B1A68C4
:1014300022F480321A601A6822F480221A6039E09D
:10144000944B5B6813F4800FEAD0924B1B6813F443
:10145000003F03D06368002B00F0AD81236813F0D8
:10146000020F75D08B4B9B6813F00C0F5ED0894B2D
:101470009B6803F00C03082B53D0E368002B00F0AB
:101480008A80844A136843F001031360FFF770F801
:101490000546804B1B6813F0020F73D1FFF768F805
:1014A000401B0228F5D9032088E17A4A136843F4E7
:1014B0008033136063682BB3FFF75AF80546754B0A
:1014C0001B6813F4003FC9D1FFF752F8401B642892
:1014D000F5D9032072E1B3F5A02F09D06D4B1A683E
:1014E00022F480321A601A6822F480221A60E1E73E
:1014F000684B1A6842F480221A601A6842F48032FB
:101500001A60D7E7FFF734F80546624B1B6813F4FF
:10151000003FA3D0FFF72CF8401B6428F5D9032027
:101520004CE15C4B5B6813F4800FA6D1594B1B68F0
:1015300013F0020F04D0E368012B01D001203DE13C
:10154000544A136823F0F803216943EAC103136086
:10155000236813F0080F46D0636983B34D4A536F75
:1015600043F001035367FFF703F80546494B5B6FF0
:1015700013F0020F37D1FEF7FBFF401B0228F5D90D
:1015800003201BE1434A136823F0F803216943EA6F
:10159000C1031360DCE73F4A136823F001031360C3
:1015A000FEF7E6FF05463B4B1B6813F0020FCFD05A
:1015B000FEF7DEFF401B0228F5D90320FEE0354A86
:1015C000536F23F001035367FEF7D2FF0546314BFB
:1015D0005B6F13F0020F06D0FEF7CAFF401B022814
:1015E000F5D90320EAE0236813F0040F7ED0294BDD
:1015F0001B6C13F0805F1ED1264B1A6C42F0805298
:101600001A641B6C03F080530193019B0125224B4C
:101610001B6813F4807F10D0A368012B21D0002B0E
:101620003CD11C4B1A6F22F001021A671A6F22F08C
:1016300004021A671AE00025E9E7174A136843F421
:1016400080731360FEF794FF0646134B1B6813F478
:10165000807FE1D1FEF78CFF801B6428F5D9032041
:10166000ACE00C4A136F43F001031367A3685BB34C
:10167000FEF77EFF0646074B1B6F13F0020F34D1B7
:10168000FEF776FF801B41F288339842F3D903209E
:1016900094E000BF0038024000700040052B09D0E4
:1016A000484B1A6F22F001021A671A6F22F00402E7
:1016B0001A67DBE7434B1A6F42F004021A671A6F8E
:1016C00042F001021A67D1E7FEF752FF06463D4B92
:1016D0001B6F13F0020F08D0FEF74AFF801B41F288
:1016E00088339842F3D9032068E0F5B9A369002B49
:1016F00063D0344A926802F00C02082A60D0022BB0
:1017000019D0304A136823F080731360FEF730FF5E
:1017100004462C4B1B6813F0007F48D0FEF728FFCF
:10172000001B0228F5D9032048E0264A136C23F059
:1017300080531364DAE7234A136823F0807313603D
:10174000FEF716FF05461F4B1B6813F0007F06D0FF
:10175000FEF70EFF401B0228F5D903202EE0E369B7
:10176000226A1343626A43EA8213A26A5208013A68
:1017700043EA0243E26A43EA0263226B43EA0273EA
:10178000104A5360136843F080731360FEF7F0FE55
:1017900004460C4B1B6813F0007F06D1FEF7E8FEF1
:1017A000001B0228F5D9032008E0002006E00020F5
:1017B00004E001207047012000E0002002B070BD6D
:1017C0000120FBE700380240024A136843F400237B
:1017D0001360704700380240264B9B6803F00C03EF
:1017E000042B44D0082B01D0234870472DE9F04B3F
:1017F000204B5A6802F03F025B6813F4800F13D04D
:101800001C4B5968C1F3881100231C48A1FB00013F
:10181000FEF716FD174B5B68C3F3014301335B0012
:10182000B0FBF3F0BDE8F08B124B5B68C3F3881399
:101830001E4600275C010025E41A65EB0705A90197
:1018400041EA9461A001001B61EB0501CB0043EA72
:101850005073C400A01943EB07018B0243EA905375
:101860008402204619460023FEF7EAFCD2E703482B
:10187000704700BF003802400024F40040787D012A
:10188000002800F0A28070B50446524B1B6803F09C
:101890000F038B420CD24F4A136823F00F030B4304
:1018A0001360136803F00F038B4201D0012070BD59
:1018B000236813F0020F17D013F0040F04D0464A28
:1018C000936843F4E0539360236813F0080F04D047
:1018D000414A936843F4604393603F4A936823F01E
:1018E000F003A068034393600D46236813F0010FD3
:1018F00031D06368012B20D0022B25D0364A1268E4
:1019000012F0020F63D034498A6822F003021343B5
:101910008B60FEF72DFE06462F4B9B6803F00C03F1
:101920006268B3EB820F16D0FEF722FE801B41F2F5
:1019300088339842F0D90320B9E7274A126812F495
:10194000003FE0D10120B2E7234A126812F0007F85
:10195000D9D10120ABE71F4B1B6803F00F03AB424B
:101960000CD91C4A136823F00F032B431360136830
:1019700003F00F03AB4201D0012098E7236813F076
:10198000040F06D0144A936823F4E053E1680B4334
:101990009360236813F0080F07D00F4A936823F46D
:1019A0006043216943EAC1039360FFF715FF0A4BC7
:1019B0009B68C3F30313094AD35CD840084B1860F3
:1019C000002003F09BFD002071E7012070470120FB
:1019D0006DE700BF003C0240003802401C5F000879
:1019E00014000020014B1868704700BF140000204D
:1019F00008B5FFF7F7FF044B9B68C3F38223034A44
:101A0000D35CD84008BD00BF003802402C5F0008FE
:101A100008B5FFF7E7FF044B9B68C3F34233034A63
:101A2000D35CD84008BD00BF003802402C5F0008DE
:101A30000F2303600B4B9A6802F0030242609A681E
:101A400002F0F00282609A6802F4E052C2609B6881
:101A5000DB0803F4E0530361034B1B6803F00F033F
:101A60000B60704700380240003C024070470000A5
:101A700008B5064BDB6813F0800F00D108BDFFF7F7
:101A8000F5FF034B80221A70F8E700BF00380240D0
:101A90000E380240F0B583B00446036813F0010F1E
:101AA0000CD0B54B9A6822F400029A609A68416B98
:101AB0000A439A60436BC3B1002600E00026236806
:101AC00013F4002F15D0AC4AD2F88C3023F4401315
:101AD000E16B0B43C2F88C30E36BB3F5801F06D08B
:101AE000002B00F04581002504E00126E7E70126F0
:101AF000F6E70025236813F4801F0FD09E4AD2F822
:101B00008C3023F44003216C0B43C2F88C30236CDF
:101B1000B3F5800F00F02E8103B90125236813F07F
:101B2000807F00D0012613F0200F40F0278123682A
:101B300013F0100F0CD0904BD3F88C2022F0807251
:101B4000C3F88C20D3F88C20A16B0A43C3F88C20F7
:101B5000236813F4804F08D0874AD2F8903023F4DA
:101B60004033616E0B43C2F89030236813F4004F8A
:101B700008D0814AD2F8903023F44023A16E0B4361
:101B8000C2F89030236813F4803F08D07A4AD2F824
:101B9000903023F44013E16E0B43C2F89030236879
:101BA00013F4003F08D0744AD2F8903023F4400375
:101BB000216F0B43C2F89030236813F0400F08D018
:101BC0006D4AD2F8903023F00303616C0B43C2F8E6
:101BD0009030236813F0800F08D0674AD2F8903015
:101BE00023F00C03A16C0B43C2F89030236813F46C
:101BF000807F08D0604AD2F8903023F03003E16C47
:101C00000B43C2F89030236813F4007F08D05A4A7F
:101C1000D2F8903023F0C003216D0B43C2F890300E
:101C2000236813F4806F08D0534AD2F8903023F41D
:101C30004073616D0B43C2F89030236813F4006F5A
:101C400008D04D4AD2F8903023F44063A16D0B4385
:101C5000C2F89030236813F4805F08D0464AD2F867
:101C6000903023F44053E16D0B43C2F89030236869
:101C700013F4005F08D0404AD2F8903023F4404378
:101C8000216E0B43C2F89030236813F4800F08D004
:101C9000394AD2F8903023F08063A16F0B43C2F829
:101CA0009030236813F4001F0DD0334AD2F89030DF
:101CB00023F00063E16F0B43C2F89030E36FB3F1A0
:101CC000006F00F0C180236813F0080F00D00125D9
:101CD00013F4802F08D0284AD2F8903023F04073B4
:101CE000616F0B43C2F89030236813F4000F09D0E2
:101CF000214AD2F8903023F08053D4F880100B435F
:101D0000C2F89030236813F0806F09D01A4AD2F8D5
:101D1000903023F00053D4F884100B43C2F8903075
:101D2000236813F0006F09D0134AD2F88C3023F0E7
:101D30000073D4F888100B43C2F88C30236813F07A
:101D4000805F09D00C4AD2F88C3023F08063D4F83D
:101D50008C100B43C2F88C30002E77D12368B3F17E
:101D6000007F73D0002D40F00481002003B0F0BD4F
:101D70000125BFE60126CFE600380240B74B1A6CBA
:101D800042F080521A641B6C03F080530193019B54
:101D9000B34A136843F480731360FEF7E9FB074608
:101DA000AF4B1B6813F4807F06D1FEF7E1FBC01B2D
:101DB0006428F5D90320D9E7A84B1B6F13F44073AF
:101DC00015D0226B02F440729A4210D0A34B1A6FC6
:101DD00022F44072196F41F480311967196F21F4B0
:101DE000803119671A671B6F13F0010F12D1236B33
:101DF00003F44072B2F5407F1DD0984A936823F4F3
:101E0000F813936095490B6F226BC2F30B021343D7
:101E10000B678CE6FEF7ACFB0746904B1B6F13F08D
:101E2000020FE4D1FEF7A4FBC01B41F288339842B5
:101E3000F3D903209AE78948826822F4F812894985
:101E400019400A438260DDE701253CE7834A1368B5
:101E500023F080631360FEF78BFB06467F4B1B6805
:101E600013F0006F06D0FEF783FB801B6428F5D9C2
:101E700003207BE7236813F0010F13D0636B8BB94A
:101E8000764AD2F88430D2F88410606803F4403384
:101E900043EA801301F070610B43A16843EA0173C8
:101EA000C2F88430236813F4002F03D0E26BB2F53C
:101EB000801F06D013F4801F1ED0236CB3F5800F53
:101EC0001AD1664AD2F88430D2F88410606803F4DC
:101ED000403343EA8013E06843EA006301F0E041E5
:101EE0000B43C2F88430D2F88C3023F01F03616AB0
:101EF00001390B43C2F88C30236813F0807F11D076
:101F0000564AD2F88400D2F88410666823691B040C
:101F100043EA861300F07060034301F0E0410B4395
:101F2000C2F88430236813F0007F0DD06268236903
:101F30001B0443EA8213E26843EA0263A26843EAAD
:101F40000273464AC2F88430444A136843F08063FF
:101F50001360FEF70DFB0646404B1B6813F0006F45
:101F60007FF400AFFEF704FB801B6428F4D9032044
:101F7000FCE63A4A136823F080531360FEF7F8FA40
:101F80000546364B1B6813F0005F06D0FEF7F0FAEB
:101F9000401B6428F5D90320E8E6236813F4002FDA
:101FA00001D0E26B22B113F4801F1DD0236CDBB98A
:101FB0002A4AD2F88830D2F88810606903F4403396
:101FC00043EA8013A06943EA006301F0E0410B4358
:101FD000C2F88830D2F88C3023F4F853A16A013962
:101FE00043EA0123C2F88C30236813F4001F03D0A6
:101FF000E36FB3F1006F37D0236813F0080F19D0E7
:10200000164AD2F88810D2F88830606903F4403359
:1020100043EA801301F070610B43E16943EA017305
:10202000C2F88830D2F88C3023F44033E16A0B4395
:10203000C2F88C30094A136843F080531360FEF7EE
:1020400097FA0446054B1B6813F0005F1FD1FEF79B
:102050008FFA001B6428F5D9032087E60038024078
:1020600000700040FFFCFF0F0A4AD2F88800D2F847
:1020700088106569236A1B0443EA851300F07060C9
:10208000034301F0E0410B43C2F88830B4E700207D
:102090006CE600BF00380240002858D010B5044656
:1020A0000023836290F85D30002B45D0022384F832
:1020B0005D302268136823F040031360E368B3F5D2
:1020C000E06F3ED90022B3F5706F18BFB3F5E06F33
:1020D00001D00021A162216B21B9B3F5E06F33D9A2
:1020E000022323636368A1680B4321690B43616981
:1020F0000B43A16901F400710B43E1690B43216AB1
:102100000B43A06A216803430B60638B03F0040355
:10211000616A0B43616B0B43E1680B432168134316
:102120004B602268D36923F40063D36100202066EA
:10213000012384F85D3010BD80F85C3003F074F941
:10214000B4E74FF48052BEE701232363CAE70120BE
:102150007047000070B4036A23F001030362036A4E
:1021600042688569124C2C400D68254323F0020417
:102170008B6823430F4C104EB04218BFA0420CBFD7
:102180000124002405D123F00803CE68334323F053
:1021900004032CB122F440724C6914438A6922432F
:1021A000426085614A684263036270BC704700BF49
:1021B0008CFFFEFF000001400004014070B4036A80
:1021C00023F480730362036A4268C569144C2C408F
:1021D0000E68264323F400738C6843EA0423114CF1
:1021E000114DA84218BFA0420CBF0124002406D103
:1021F00023F40063CD6843EA052323F480633CB1F4
:1022000022F440524C6942EA04128C6942EA0412F8
:102210004260C6614A68C263036270BC704700BF17
:102220008CFFFEFF000001400004014070B4036A0F
:1022300023F480530362036A4468C5690D4A2A4047
:102240000D6842EA052223F400538D6843EA053302
:10225000094E0A4DA84218BFB04204D124F480446C
:102260004D6944EA85144460C2614A6802640362AD
:1022700070BC7047FF8CFFFE00000140000401406D
:1022800070B4036A23F480330362036A4268446DC6
:102290000D4D25400C682C4323F400338D6843EA30
:1022A00005430A4E0A4DA84218BFB04204D122F499
:1022B00080324D6942EA0522426044654A6882657F
:1022C000036270BC704700BF8FFFFEFF000001403B
:1022D0000004014070B4036A23F480130362036AAC
:1022E0004468456D0D4A2A400D6842EA052223F4F0
:1022F00000138D6843EA0553094E0A4DA84218BFE2
:10230000B04204D124F480244D6944EA8524446019
:1023100042654A68C265036270BC7047FF8FFFFE6A
:102320000000014000040140704700000268D368CB
:1023300043F00103D36002689168064B0B40062B03
:1023400018BFB3F5803F03D0136843F00103136057
:1023500000207047070001007047704770477047C2
:1023600010B5044603681A6912F0020F11D0DA683A
:1023700012F0020F0DD06FF002021A6101230377F1
:1023800003689B6913F0030F79D0FFF7E6FF002382
:10239000237723681A6912F0040F12D0DA6812F05A
:1023A000040F0ED06FF004021A6102232377236812
:1023B0009B6913F4407F68D02046FFF7CEFF0023CF
:1023C000237723681A6912F0080F12D0DA6812F026
:1023D000080F0ED06FF008021A61042323772368D8
:1023E000DB6913F0030F57D02046FFF7B6FF002339
:1023F000237723681A6912F0100F12D0DA6812F0EE
:10240000100F0ED06FF010021A6108232377236893
:10241000DB6913F4407F46D02046FFF79EFF002380
:10242000237723681A6912F0010F03D0DA6812F0DB
:10243000010F3FD123681A6912F0800F03D0DA68C8
:1024400012F0800F3DD123681A6912F4807F03D007
:10245000DA6812F0800F3BD123681A6912F0400F3E
:1024600003D0DA6812F0400F39D123681A6912F0EC
:10247000200F03D0DA6812F0200F37D110BD02F020
:1024800007FD2046FFF76AFF81E7204602F000FDC6
:102490002046FFF763FF92E7204602F0F9FC204652
:1024A000FFF75CFFA3E7204602F0F2FC2046FFF7AF
:1024B00055FFB4E76FF001021A61204602F00CFFED
:1024C000B8E76FF080021A61204600F094FBBAE78B
:1024D0006FF480721A61204600F08EFBBCE76FF04B
:1024E00040021A612046FFF73AFFBEE76FF0200274
:1024F0001A61204600F07EFBC0E7000070B403685C
:102500003A4CA04214BF00240124B0F1804F14BF04
:10251000224644F00102AAB9354DA84214BF002555
:102520000125344EB0420DD065B905F1804505F561
:102530008235A84214BF0025012506F50066B04289
:1025400000D01DB123F070034D682B43002A33D116
:10255000274A904214BF00220122264DA8422BD0C8
:1025600052BB02F1804202F58232904214BF002237
:10257000012205F50065A8421ED0EAB91E4A904224
:1025800014BF0022012205F59A35A84214D09AB949
:102590001A4A904214BF0022012205F50065A842A4
:1025A0000AD04AB9164A904214BF00220122A5F56A
:1025B0009635A84200D01AB123F44073CA68134379
:1025C00023F080034A69134303608A68C2620A6881
:1025D00082620C4B984214BF234644F001030BB1B6
:1025E0000B6903630123436170BC70470000014025
:1025F0000008004000040040004401400018004072
:102600000020004000040140A8B110B5044690F835
:102610003D305BB1022384F83D30211D2068FFF777
:102620006DFF012384F83D30002010BD80F83C3060
:10263000FFF77AFEEEE701207047A8B110B5044617
:1026400090F83D305BB1022384F83D30211D2068B5
:10265000FFF754FF012384F83D30002010BD80F8BF
:102660003C30FFF779FEEEE701207047A8B110B5C6
:10267000044690F83D305BB1022384F83D30211DC3
:102680002068FFF73BFF012384F83D30002010BD98
:1026900080F83C3003F060F9EEE70120704700005D
:1026A000002843D0F8B505460C4690F83D30002B85
:1026B00037D0022385F83D30294651F8042B906825
:1026C0001B4B034093602868FFF718FF2868816858
:1026D0008369026A26680E43164F1F40A368A169EA
:1026E00043EA01231F43144B3B40E168E76941EA99
:1026F000072119432769236A1B0343EA07130B4386
:1027000022F0AA016268646942EA04120A43866000
:1027100029688B612B681A62012385F83D300020FF
:10272000F8BD80F83C3003F02DF9C2E70120704776
:10273000F8BFFEFFFCFCFFFF0303FFFF70B4036A5A
:1027400023F010030362036A42688569144C2C402D
:102750000D6844EA052523F020038C6843EA04133E
:10276000104C114EB04218BFA0420CBF01240024EF
:1027700006D123F08003CE6843EA061323F040031A
:102780003CB122F440624C6942EA84028C6942EA1C
:102790008402426085614A688263036270BC70474C
:1027A000FF8CFFFE000001400004014090F83C3027
:1027B000012B34D010B50446012380F83C300223AD
:1027C00080F83D30142A0FD8DFE802F00B0E0E0E11
:1027D000150E0E0E190E0E0E1D0E0E0E210E0E0EE5
:1027E00025000068FFF7B6FC012384F83D30002087
:1027F00084F83C0010BD0068FFF7A0FFF4E7006814
:10280000FFF7DCFCF0E70068FFF710FDECE700687D
:10281000FFF736FDE8E70068FFF75CFDE4E702201C
:10282000704738B590F83C30012B00F092800D468F
:102830000446012380F83C30022380F83D30142AFE
:102840001ED8DFE802F00B1D1D1D241D1D1D381DA7
:102850001D1D4B1D1D1D5F1D1D1D72000068FFF716
:1028600079FC2268936943F00803936122689369B5
:1028700023F0040393612268936929690B439361F0
:10288000012384F83D30002084F83C0038BD006806
:10289000FFF754FF2268936943F400639361226851
:1028A000936923F48063936122689369296943EAF9
:1028B00001239361E4E70068FFF780FC2268D36995
:1028C00043F00803D3612268D36923F00403D36182
:1028D0002268D36929690B43D361D1E70068FFF708
:1028E000A5FC2268D36943F40063D3612268D369ED
:1028F00023F48063D3612268D369296943EA012301
:10290000D361BDE70068FFF7BBFC2268536D43F05D
:10291000080353652268536D23F00403536522684E
:10292000536D29690B435365AAE70068FFF7D2FC92
:102930002268536D43F4006353652268536D23F49A
:10294000806353652268536D296943EA0123536507
:1029500096E702209AE710B401F01F01012303FA61
:1029600001F4036A23EA04030362036A8A401343FF
:1029700003625DF8044B704710B504460C290DD86E
:10298000DFE801F0070C0C0C2A0C0C0C300C0C0CC2
:1029900036000268D36843F00203D3600122206846
:1029A000FFF7D9FF23681549154A934218BF8B4298
:1029B00003D15A6C42F400425A6422689168114B68
:1029C0000B40062B18BFB3F5803F03D0136843F0CC
:1029D00001031360002010BD0268D36843F00403B4
:1029E000D360DBE70268D36843F00803D360D5E720
:1029F0000268D36843F01003D360CFE700000140C2
:102A0000000401400700010010B5044601220068DF
:102A1000FFF7A1FF23680C490C4A934218BF8B4271
:102A200003D15A6C42F400425A6422689168084B00
:102A30000B40062B18BFB3F5803F03D0136843F05B
:102A400001031360002010BD00000140000401409C
:102A50000700010010B5044600220068FFF77BFF65
:102A600023681449144A934218BF8B420DD1196A46
:102A700041F21112114208D1196A40F24442114246
:102A800003D15A6C22F400425A642368196A41F255
:102A90001112114208D1196A40F24442114203D185
:102AA0001A6822F001021A60012384F83D300020E8
:102AB00010BD00BF000001400004014010B50446F5
:102AC00061B1042916D0012200210068FFF743FFFD
:102AD000012204212068FFF73EFF04E001220021CB
:102AE0000068FFF738FF2268136843F001031360A2
:102AF000002010BD012204210068FFF72CFFF2E73F
:102B000090F83C30012B27D070B4012380F83C3082
:102B1000022380F83D3003685A689D680F4E104CC0
:102B2000A34218BFB34203D122F470024C6822437F
:102B300022F070020C68224325F08004896821434A
:102B40005A6003689960012380F83D30002380F8C3
:102B50003C30184670BC70470220704700000140AE
:102B60000004014090F83C30012B3CD030B40123EC
:102B700080F83C30CB6823F440738A68134323F415
:102B800080634A68134323F400630A68134323F401
:102B900080530A69134323F400534A69134323F40F
:102BA00080438A6A134323F470238A6943EA024309
:102BB00002680E4D0E4CA24218BFAA420CD123F45B
:102BC00070034C6A43EA045323F08073CC692343B7
:102BD00023F00073096A0B435364002380F83C30F0
:102BE000184630BC70470220704700BF000001400B
:102BF000000401407047704770470268136823F073
:102C0000C00313602023436770470268136823F4EE
:102C1000907313600268936823F00103936020238C
:102C2000836700230366704738B5446F202C42D178
:102C3000B2FA82F56D09002908BF0125002D3CD1AB
:102C400090F87030012B3AD013460446012280F8E8
:102C50007020C164A0F85030A0F852300022C26742
:102C600021224267826E8AB11649D163826E16496B
:102C70001164826E1549D164826E0021116502686B
:102C80002832C16C806EFEF721F958B923684022C2
:102C90001A62002084F870002268936843F0800371
:102CA000936009E01023E367002384F87030202349
:102CB0006367012000E0022038BD0120FCE702200C
:102CC000FAE700BFD12C00081D2D0008292D0008AF
:102CD00008B5836BC269B2F5807F0DD00022A3F8DE
:102CE000522019688A6822F080028A601A68136884
:102CF00043F04003136008BD184602F09DFCFAE75C
:102D000008B501680A6822F040020A602022426782
:102D10000022426602F090FC08BD704708B5806B47
:102D2000FFF7FBFF08BD704738B5846B626FA56F76
:102D300023689B6813F0800F01D0212A0ED02368EE
:102D40009B6813F0400F01D0222D0ED0E36F43F0AB
:102D50001003E3672046FFF7E6FF38BD0023A4F821
:102D600052302046FFF749FFE9E70023A4F85A3024
:102D70002046FFF74AFFE9E738B504460268D36901
:102D80001568906813F00F010CD113F0200F09D0D3
:102D900015F0200F06D0236E002B00F08680204611
:102DA000984782E000296FD010F0010002D115F49D
:102DB000907F69D013F0010F07D015F4807F04D005
:102DC00001211162E26F0A43E26713F0020F07D09C
:102DD00030B1226802211162E26F42F00402E26720
:102DE00013F0040F07D030B1226804211162E26FA2
:102DF00042F00202E26713F0080F09D015F0200F2D
:102E000000D128B1226808211162E26F0A43E2670B
:102E1000E26F002A49D013F0200F06D015F0200FE2
:102E200003D0236E0BB120469847E26F23689B685E
:102E300013F0400F02D112F0080F1FD02046FFF709
:102E4000E4FE23689A6812F0400F13D09A6822F0CB
:102E500040029A60E36E4BB1164A1A65E06EFEF7C7
:102E6000B9F810B3E06E036D98471EE02046FFF7F7
:102E70005AFF1AE02046FFF756FF16E02046FFF7FC
:102E800052FF0023E36710E013F0800F07D015F026
:102E9000800F04D0636E43B12046984705E013F0DD
:102EA000400F02D015F0400F00D138BD2046FFF78B
:102EB00027FFFAE7B92E000808B5806B0023A0F8B9
:102EC0005A30A0F85230FFF72EFF08BD10B5044667
:102ED00083680269134342691343C269134301685B
:102EE0000868994A024013430B602268536823F430
:102EF0004053E1680B435360A269236A1A43216877
:102F00008B6823F4306313438B6023688F4A9342AA
:102F100018D08F4A934228D08E4A93423DD08E4A91
:102F2000934250D08D4A934262D08D4A934277D0DB
:102F30008C4A934200F08C808B4A934200F0A08030
:102F40001023B6E0894BD3F8903003F00303032B32
:102F500009D8DFE803F00204AD060123A9E0042349
:102F6000A7E00823A5E01023A3E0804BD3F890301E
:102F700003F00C030C2B0ED8DFE803F0070D0D0D4A
:102F8000090D0D0DA90D0D0D0B00002391E004237B
:102F90008FE008238DE010238BE0744BD3F8903042
:102FA00003F03003102B0AD006D9202B00F09180BB
:102FB000302B06D108237CE01BB9002379E00423E1
:102FC00077E0102375E0694BD3F8903003F0C0032D
:102FD000402B09D005D9802B7DD0C02B06D10823EA
:102FE00067E01BB9002364E0042362E0102360E083
:102FF0005E4BD3F8903003F44073B3F5807F0BD071
:1030000007D9B3F5007F68D0B3F5407F06D1082318
:103010004FE01BB900234CE004234AE0102348E0B2
:10302000524BD3F8903003F44063B3F5806F0BD06C
:1030300007D9B3F5006F52D0B3F5406F06D108231E
:1030400037E01BB9012334E0042332E0102330E0E1
:10305000464BD3F8903003F44053B3F5805F0BD068
:1030600007D9B3F5005F3CD0B3F5405F06D1082324
:103070001FE01BB900231CE004231AE0102318E012
:103080003A4BD3F8903003F44043B3F5804F0BD064
:1030900007D9B3F5004F26D0B3F5404F06D108232A
:1030A00007E01BB9002304E0042302E0102300E042
:1030B0000223E269B2F5004F17D0082B00F2B3806B
:1030C000DFE803F0768B95B19EB1B1B1A800022381
:1030D000EFE70223EDE70223EBE70223E9E7022310
:1030E000E7E70223E5E70223E3E7082B5DD8DFE803
:1030F00003F0051F3F5C485C5C5C5300FEF778FC06
:103100006268530803EB4003B3FBF2F39BB2002069
:10311000A3F110014FF6EF72914200F287809AB24C
:1031200022F00F02C3F3420313432268D36050E03E
:10313000FEF76EFC6268530803EB4003B3FBF2F347
:103140009BB20020E4E700BFF369FFEF00100140ED
:103150000044004000480040004C00400050004047
:103160000014014000780040007C0040003802401C
:103170006268304B03EB5203B3FBF2F39BB20020C7
:10318000C6E7FEF729FB6268530803EB4003B3FB75
:10319000F2F39BB20020BBE76268530803F580336B
:1031A000B3FBF2F39BB20020B2E701200023AFE7AC
:1031B000FEF71EFC626800EB5203B3FBF2F39BB216
:1031C0000020A3F110014FF6EF72914230D822682F
:1031D000D36000232366636610BDFEF719FC6268A6
:1031E00000EB5203B3FBF2F39BB20020E9E7626805
:1031F000114B03EB5203B3FBF2F39BB20020E0E769
:10320000FEF7EAFA626800EB5203B3FBF2F39BB2FB
:103210000020D6E76268530803F50043B3FBF2F3DE
:103220009BB20020CDE701200023CAE70120D0E7B0
:103230000120CEE70048E8010024F400436A13F0BF
:10324000010F06D00268536823F40033816A0B43F0
:103250005360436A13F0020F06D00268536823F4E8
:103260008033C16A0B435360436A13F0040F06D0E6
:103270000268536823F48023016B0B435360436A55
:1032800013F0080F06D00268536823F40043416B23
:103290000B435360436A13F0100F06D00268936823
:1032A00023F48053816B0B439360436A13F0200F28
:1032B00006D00268936823F40053C16B0B439360FC
:1032C000436A13F0400F0AD00268536823F4801356
:1032D000016C0B435360036CB3F5801F0BD0436A42
:1032E00013F0800F06D00268536823F40023816C2A
:1032F0000B43536070470268536823F4C003416C6A
:103300000B435360EBE72DE9F04105460F461646A7
:103310009846069C2B68DB6937EA03030CBF012340
:103320000023B3421CD1B4F1FF3FF3D0FDF720F9E5
:10333000A0EB0800A04201D8002CEBD12A6813684A
:1033400023F4D07313602A68936823F00103936019
:1033500020236B67AB67002385F87030032000E003
:103360000020BDE8F08110B582B004460023C36799
:10337000FDF7FEF82268126812F0080F07D120232B
:103380006367A367002084F8700002B010BD6FF07F
:103390007E430093034600224FF400112046FFF7BE
:1033A000B2FF0028EBD00320EFE768B310B5044666
:1033B000436F03B3242363672268136823F0010378
:1033C00013602046FFF782FD012813D0636ABBB962
:1033D0002268536823F4904353602268936823F073
:1033E0002A0393602268136843F0010313602046A8
:1033F000FFF7B9FF10BD80F8703002F05BFCD9E731
:103400002046FFF71BFFE3E701207047842801D027
:103410000330704700207047EFF30580003018BF7D
:103420000120704708B500F0A9FC002008BDF0B5E8
:1034300085B00F46446805680669B0F90800FFF7D3
:10344000E5FF03AB019300903B46B2B2294620460C
:1034500000F0F2FB012802D1039805B0F0BD002076
:10346000FBE708B500F01AFC002008BD08B50346CC
:1034700000B90123184600F0CBFD002008BD000074
:1034800030B585B004460D46002303930293FFF741
:10349000C3FFA0B103AB009302AB01222946204633
:1034A00001F012F8012815D1039B83B10C4B4FF0AA
:1034B00080521A60BFF34F8FBFF36F8F07E002ABEC
:1034C00001222946204600F08BFF012805D10298F1
:1034D00005B030BD4FF00040FAE74FF00040F7E78D
:1034E00004ED00E070B584B004460E46002302935C
:1034F000B2F1FF3F03D015461AB91D4601E04FF067
:10350000FF35FFF789FF48B18223019304AB13E92C
:10351000070084E80700204604B070BD2B4602AACD
:103520003146002000F008FF012806D015B900231D
:103530000193EBE740230193E8E7029B002B02DBBA
:1035400008230193E2E786230193DFE710B5012901
:103550000DD103220021012000F026F9044620B1FC
:1035600000231A46194600F045F9204610BD0024F4
:10357000FBE700F1080343604FF0FF328260C36055
:1035800003610023036070470023036170474368B1
:103590004B609A688A609A68516099600861036814
:1035A00001330360704730B40D68B5F1FF3F02D0BE
:1035B00000F1080202E0026904E01A4653681C6840
:1035C000AC42FAD953684B6099608A6051600861D7
:1035D00003680133036030BC704703694268816847
:1035E00091608268416851605A68824206D0002228
:1035F00002611A68013A1A601868704782685A6056
:10360000F5E710B5044601F05DF8A26BE36B9A4252
:1036100004D0002401F07CF8204610BD0124F9E715
:1036200070B504461646856B026C5AB903681BB127
:1036300000200135A56370BD406800F021FE002325
:103640006360F6E76EB9806802F024FC226CA36820
:103650001344A3606268934219D32368A3600020D7
:10366000E7E7C06802F016FC226C5242E36813449C
:10367000E36021688B4202D263681A44E260022E42
:1036800001D00020D5E725B1013D0020D1E7002081
:10369000CFE70020CDE738B5054601F013F895F8DF
:1036A000454064B203E000F0D3FD013C64B2002C5D
:1036B00008DD6B6A33B105F1240000F037FD002806
:1036C000F3D0F0E7FF2385F8453001F021F800F052
:1036D000F9FF95F8444064B203E000F0B9FD013C05
:1036E00064B2002C08DD2B6933B105F1100000F045
:1036F0001DFD0028F3D0F0E7FF2385F8443001F0EA
:1037000007F838BD38B550B94FF0500372B683F39F
:103710001188BFF36F8FBFF34F8F62B6FEE7044689
:103720000D4600F0CFFF2168E26B236C03FB021013
:1037300060600020A063A160013A02FB0313E36014
:10374000FF2384F8443084F84530A5B923691BB9B8
:1037500000F0DEFF012038BD04F1100000F0E6FCAF
:103760000028F5D0084B4FF080521A60BFF34F8FFE
:10377000BFF36F8FECE704F11000FFF7FAFE04F1DE
:103780002400FFF7F6FEE3E704ED00E010B5029B2E
:103790000C4639B11A60D8631C6401211846FFF742
:1037A000B1FF10BD1B60F6E750B94FF0500372B681
:1037B00083F31188BFF36F8FBFF34F8F62B6FEE7BD
:1037C000F0B583B0054611B101FB00F000E0002028
:1037D00017460C46483001F0FDF8064638B1009017
:1037E0003B4600F1480221462846FFF7CFFF30460E
:1037F00003B0F0BDF0B585B0019270B10446B9B91F
:10380000026CAAB14FF0500372B683F31188BFF374
:103810006F8FBFF34F8F62B6FEE74FF0500372B663
:1038200083F31188BFF36F8FBFF34F8F62B6FEE74C
:10383000022B0DD1E26B012A0AD04FF0500372B671
:1038400083F31188BFF36F8FBFF34F8F62B6FEE72C
:103850001E460F4600F004FD60B9019B63B14FF0B6
:10386000500372B683F31188BFF36F8FBFF34F8F8E
:1038700062B6FEE700253AE0002538E032463946D8
:103880002046FFF7CDFE636A4BB9A8B13B4B4FF022
:1038900080521A60BFF34F8FBFF36F8F0CE004F1BB
:1038A000240000F043FC38B1344B4FF080521A60D2
:1038B000BFF34F8FBFF36F8F00F02AFF012005B0D9
:1038C000F0BD00F025FF0020F9E702A800F072FC2F
:1038D000012519E0002384F8443021E0002384F816
:1038E000453023E02046FFF7D6FE00F017FB00F03E
:1038F000E9FEA26BE36B9A42C0D3022EBED0019BBD
:10390000002BDED0002DE0D000F002FF00F074FAB2
:1039100000F0D8FE94F844305BB2B3F1FF3FD9D049
:1039200094F845305BB2B3F1FF3FD7D000F0F0FE22
:1039300001A902A800F048FCC8B92046FFF761FEC3
:103940000028CFD0019904F1100000F0D3FB2046ED
:10395000FFF7A1FE00F0E2FA0028C8D1074B4FF0B4
:1039600080521A60BFF34F8FBFF36F8FBFE72046BF
:10397000FFF791FE00F0D2FA0020A0E704ED00E08E
:10398000074B9B6A1B6833B1054B9A6AD268D268B1
:103990005268DA627047024B4FF0FF32DA627047CA
:1039A0003400002010B50446006B01F093F8204667
:1039B00001F090F810BD2DE9F04780469946089D2A
:1039C000099F0A9C266B6FF04043134406EB830665
:1039D00026F0070600230F2B07D8C85CE21882F8F0
:1039E0003400CA5C0AB10133F5E7002384F84330A0
:1039F000062D00D90625E56265644FF0000AC4F87B
:103A000048A0201DFFF7C0FD04F11800FFF7BCFD22
:103A10002461C5F10705A5616462C4F84CA084F86F
:103A200050A04A464146304600F020FE206007B1D3
:103A30003C60BDE8F087000070B5002407E004EBAF
:103A40008402930010481844FFF793FD0134062CBC
:103A5000F5D90E4C04F1BC063046FFF78AFD04F19F
:103A6000D0052846FFF785FD04F11400FFF781FD1E
:103A700004F1E400FFF77DFD2046FFF77AFDA66222
:103A8000C4F8F85070BD00BF64000020340000206E
:103A900038B5054600F016FE264BD3F8FC2001325F
:103AA000C3F8FC20D3F8003173B1224BD3F80431B2
:103AB0008BB9204BD3F80031DA6AEB6A9A420AD804
:103AC0001C4BC3F8005106E01A4BC3F80051D3F861
:103AD000FC30012B2AD0174CD4F808310133C4F83C
:103AE0000831EB6A01229A40D4F80C110A43C4F859
:103AF0000C2104F1300003EB83039A00291D1044CC
:103B0000FFF745FD00F004FED4F804316BB1D4F8A2
:103B10000031DA6AEB6A9A4207D2074B4FF08052C3
:103B20001A60BFF34F8FBFF36F8F38BDFFF784FF6D
:103B3000D1E700BF3400002004ED00E038B517E005
:103B400000F0C0FD0D4CD4F8F030DD68281DFFF703
:103B500044FDD4F8FC30013BC4F8FC30D4F81031FB
:103B6000013BC4F8103100F0D3FD2846FFF71AFFDF
:103B7000024BD3F81031002BE2D138BD34000020C5
:103B800008B5FFF7DBFF064B1B6B012BF9D9054B83
:103B90004FF080521A60BFF34F8FBFF36F8FF0E783
:103BA0003400002004ED00E070B504460E46214BC1
:103BB000D3F81451D3F800010430FFF70EFD60B9BB
:103BC0001C4BD3F80021D16A012202FA01F1D3F88B
:103BD0000C2122EA0102C3F80C21B4F1FF3F14BF0B
:103BE00000230123002E08BF002393B92C44114B5E
:103BF000D3F800315C60A54212D80E4DA86AD5F802
:103C000000110431FFF7CFFCEB6AA34210D9EC623C
:103C10000EE00848D0F800110431FFF7B8FC07E0C7
:103C2000044BD3F8F800D3F800110431FFF7BBFCC4
:103C300070BD00BF340000202DE9F04385B0074679
:103C4000884615469946900000F0C4FEF8B1064635
:103C5000542000F0BFFE0446A8B10663D4B100238F
:103C6000039302940D9B01930C9B00934B462A46B1
:103C700041463846FFF79FFE2046FFF709FF012027
:103C800005B0BDE8F083304600F024FFE6E74FF0D2
:103C9000FF30F5E74FF0FF30F2E7000070B5044663
:103CA00000F010FD002C3DD0261D3046FFF795FC9E
:103CB00088B9E26A02EB820399002E4B0B441B6B1E
:103CC0004BB9012303FA02F22A49D1F80C3123EA55
:103CD0000203C1F80C31A36A1BB104F11800FFF70D
:103CE0007CFC244BD3F808210132C3F80821D3F817
:103CF0000031A3421AD01F4AD2F8FC30013BC2F86F
:103D0000FC302046FFF74EFEFFF73AFE00F000FDC4
:103D1000184BD3F8043123B1164BD3F80031A3422A
:103D200010D070BD134BD3F80041BDE7114D3146A3
:103D300005F1E400FFF72BFCD5F810310133C5F88D
:103D40001031E3E70B4BD3F8183153B14FF0500368
:103D500072B683F31188BFF36F8FBFF34F8F62B6D4
:103D6000FEE7054B4FF080521A60BFF34F8FBFF351
:103D70006F8FD6E73400002004ED00E000B583B07B
:103D8000194B019300230093802218491848FFF72C
:103D900053FF012805D0B0F1FF3F19D003B05DF803
:103DA00004FB4FF0500372B683F31188BFF36F8F9B
:103DB000BFF34F8F62B60F4B4FF0FF32DA62012232
:103DC000C3F804210022C3F8142100F01FFDE5E729
:103DD0004FF0500372B683F31188BFF36F8FBFF3B8
:103DE0004F8F62B6FEE700BF50010020345F00082D
:103DF000813B000834000020034AD2F81831013317
:103E0000C2F81831704700BF340000202DE9F0419E
:103E1000414BD3F81831002B6ED13F4BD3F81451DE
:103E20000135C3F81451DDB99B6A1B6853B14FF0DB
:103E3000500372B683F31188BFF36F8FBFF34F8FB8
:103E400062B6FEE7344B9A6AD3F8F8109962C3F869
:103E5000F820D3F820210132C3F82021FFF790FD8C
:103E60002D4BDB6AAB423DD900242B4AD2F80031FE
:103E7000DB6A03EB830399000A44136B012B42D9DD
:103E8000012440E00124244B9B6A1B6863B3224B4E
:103E90009B6ADB68DE6873689D422AD306F10408DA
:103EA0004046FFF79AFBB36A1BB106F11800FFF713
:103EB00094FBF36A01229A40174FD7F80C110A437A
:103EC000C7F80C2107F1300003EB83039A00414649
:103ED0001044FFF75CFBF26AD7F80031DB6A9A42C4
:103EE000D0D2D0E70024CEE70B4B4FF0FF32DA629E
:103EF000BBE7094AD362B8E7074AD2F82431013355
:103F0000C2F824310024044BD3F8283103B1012432
:103F10002046BDE8F08100BF340000203A4BD3F8C2
:103F2000183153B94FF0500372B683F31188BFF3C1
:103F30006F8FBFF34F8F62B6FEE770B500F0C2FB24
:103F4000314BD3F81821013AC3F81821D3F81831AE
:103F5000002B54D12C4BD3F8FC3023B9002400F0B3
:103F6000D7FB204670BD0024274B5B692BB3264D41
:103F70002B6ADC6804F11800FFF72FFB261D304682
:103F8000FFF72BFBE36A01229A40D5F80C110A4394
:103F9000C5F80C2105F1300003EB83039A0031468C
:103FA0001044FFF7F4FAE26AD5F80031DB6A9A426E
:103FB000DAD30122C5F82821D6E70CB1FFF7E0FCDF
:103FC000114BD3F8244164B1FFF720FF18B10E4B19
:103FD0000122C3F82821013CF6D10B4B0022C3F883
:103FE0002421094BD3F828315BB1084B4FF08052A4
:103FF0001A60BFF34F8FBFF36F8F0124AFE7002428
:10400000ADE70024ABE700BF3400002004ED00E082
:1040100010B5C0B10446104BD3F8183153B14FF06E
:10402000500372B683F31188BFF36F8FBFF34F8FC6
:1040300062B6FEE7FFF7E0FE00212046FFF7B4FD81
:10404000FFF76CFF38B9054B4FF080521A60BFF391
:104050004F8FBFF36F8F10BD3400002004ED00E0E0
:10406000234BD3F8183123B1214B0122C3F8282167
:1040700070471F4A0023C2F82831D2F80C31B3FA36
:1040800083F3DBB2C3F11F0303EB830081000A4417
:10409000126B52B94FF0500372B683F31188BFF31D
:1040A0006F8FBFF34F8F62B6FEE710B4104A9900CE
:1040B000CC18A0001044446B646844633032194447
:1040C00088000830024494420BD0094903EB830373
:1040D0009A000A44536BDB68C1F800315DF8044B69
:1040E000704761680248142202FB03025163ECE747
:1040F0003400002050B94FF0500372B683F311889A
:10410000BFF36F8FBFF34F8F62B6FEE710B50C465B
:10411000054BD3F800111831FFF745FA012120466D
:10412000FFF742FD10BD00BF3400002038B5C36862
:10413000DC6854B94FF0500372B683F31188BFF3B3
:104140006F8FBFF34F8F62B6FEE704F11805284664
:10415000FFF743FA154BD3F8183103BB251D28464A
:10416000FFF73BFAE36A01219940104AD2F80C01AB
:104170000143C2F80C11303203EB83039800294647
:104180001044FFF704FAE26A084BD3F80031DB6A07
:104190009A4209D90120054BC3F8280138BD2946A8
:1041A0000348FFF7F4F9EEE70020F7E734000020BA
:1041B00048000020034BD3F820210260D3F81431CB
:1041C0004360704734000020F8B560B10546A9B9D6
:1041D0004FF0500372B683F31188BFF36F8FBFF3B4
:1041E0004F8F62B6FEE74FF0500372B683F311882B
:1041F000BFF36F8FBFF34F8F62B6FEE70C4600F040
:1042000061FA124BD3F8141168680A1A2368B3F1E3
:10421000FF3F17D02F680D4ED6F82061B74201D06E
:10422000884211D9934203D800232360012405E07A
:104230009B1A23602846FFF7BDFF002400F068FAB0
:104240002046F8BD0024F9E70124F7E734000020F8
:10425000024B0122C3F82821704700BF3400002020
:10426000064BD3F804313BB1044BD3F818310BB1F2
:104270000020704702207047012070473400002062
:10428000002851D038B504462A4AD2F8002182428B
:104290000AD04FF0500372B683F31188BFF36F8FCB
:1042A000BFF34F8F62B6FEE7826C52B94FF05003F6
:1042B00072B683F31188BFF36F8FBFF34F8F62B66F
:1042C000FEE7013A8264C06A616C88422ED07ABBF4
:1042D000251D2846FFF781F978B9E26A15491423AC
:1042E00003FB02131B6B43B9012303FA02F2D1F85B
:1042F0000C3123EA0203C1F80C31626CE262C2F1B4
:104300000703A361012404FA02F10A4BD3F80C015C
:104310000143C3F80C1130332946142000FB02304E
:10432000FFF735F9204638BD002070470020FAE736
:104330000020F8E734000020F8B507460D46144683
:104340001E4600F0BFF9244BD3F8003193F85030EB
:10435000DBB2022B0CD0204BD3F80021D06C20EA2A
:104360000700D064D3F80031012283F85020E6B969
:1043700000F0CEF900F0A6F924B1174BD3F80031C4
:10438000DB6C2360144BD3F8003193F85030DBB270
:10439000022B17D00024104BD3F80031002283F8F1
:1043A000502000F0B5F92046F8BD11463046FFF721
:1043B000FBFB0A4B4FF080521A60BFF34F8FBFF3E5
:1043C0006F8FD5E7044BD3F80021D36C23EA0505A2
:1043D000D5640124DFE700BF3400002004ED00E0D5
:1043E000F8B550B94FF0500372B683F31188BFF39C
:1043F0006F8FBFF34F8F62B6FEE704461F46154628
:104400000E4600F05FF90FB1E36C3B6094F850305A
:10441000DBB2022284F850206A1E032A1AD8DFE891
:1044200002F0020C1114E26C1643E6640125012B24
:1044300014D000F06DF92846F8BDE26C0132E26458
:104440000125F4E7E6640125F1E7022B04D0E664D8
:104450000125ECE70125EAE70025E8E7261D3046BF
:10446000FFF7BBF8E06A01228240154BD3F80C112C
:104470000A43C3F80C2130333146142202FB0030CA
:10448000FFF785F8A36A53B14FF0500372B683F378
:104490001188BFF36F8FBFF34F8F62B6FEE7E26AFA
:1044A000074BD3F80031DB6A9A42C2D9054B4FF073
:1044B00080521A60BFF34F8FBFF36F8FB9E700BF11
:1044C0003400002004ED00E02DE9F843089E50B9C7
:1044D0004FF0500372B683F31188BFF36F8FBFF3B1
:1044E0004F8F62B6FEE70446994615460F4600F028
:1044F000F1F9EFF311884FF0500372B683F311888E
:10450000BFF36F8FBFF34F8F62B6B9F1000F02D0C8
:10451000E36CC9F8003094F85030DBB2022284F822
:1045200050206A1E032A1BD8DFE802F0020D121584
:10453000E26C1743E7640125012B15D088F311883D
:104540002846BDE8F883E26C0132E2640125F3E716
:10455000E7640125F0E7022B04D0E7640125EBE7CF
:104560000125E9E70025E7E7A36A53B14FF05003BF
:1045700072B683F31188BFF36F8FBFF34F8F62B6AC
:10458000FEE7174BD3F81831F3B9271D3846FFF76C
:1045900024F8E06A01228240114BD3F80C110A433F
:1045A000C3F80C2130333946142202FB0030FEF7E9
:1045B000EEFFE26A0A4BD3F80031DB6A9A42BDD9BA
:1045C00046B101233360B9E704F118010548FEF74D
:1045D000DEFFEEE7024B0122C3F82821AEE700BF61
:1045E000340000204800002082B0002301930F4BCC
:1045F0001B68B3F1FF3F0AD04FF0500372B683F34C
:104600001188BFF36F8FBFF34F8F62B6FEE74FF095
:10461000500372B683F31188BFF36F8FBFF34F8FD0
:1046200062B6019B002BFCD002B07047080000204E
:1046300008480068006880F308884FF0000080F3A5
:10464000148862B661B6BFF34F8FBFF36F8F00DF80
:1046500000BF000008ED00E0DFF80C00016841F445
:10466000700101607047000088ED00E04FF080733A
:1046700040F8043C21F0010140F8081C054B40F8CB
:104680000C3C40F8202C6FF0020340F8243C4438E6
:10469000704700BFE945000800000000000000006E
:1046A000074B19680868B0E8F04F80F30988BFF33A
:1046B0006F8F4FF0000080F311887047AFF30080D8
:1046C000340100204FF0500372B683F31188BFF31A
:1046D0006F8FBFF34F8F62B60B4A136801331360BD
:1046E000012B00D07047094B1B6813F0FF0FF9D066
:1046F0004FF0500372B683F31188BFF36F8FBFF38F
:104700004F8F62B6FEE700BF0800002004ED00E016
:104710000A4B1B6853B94FF0500372B683F31188EC
:10472000BFF36F8FBFF34F8F62B6FEE7013B034AC3
:1047300013600BB983F31188704700BF0800002095
:10474000EFF30980BFF36F8F154B1A681EF0100F3F
:1047500008BF20ED108A20E9F04F10602DE9090014
:104760004FF0500072B680F31188BFF34F8FBFF344
:104770006F8F62B6FFF774FC4FF0000080F3118872
:1047800009BC19680868B0E8F04F1EF0100F08BFA8
:10479000B0EC108A80F30988BFF36F8F704700BFB9
:1047A0003401002008B54FF0500372B683F311882E
:1047B000BFF36F8FBFF34F8F62B6FFF727FB18B1C0
:1047C000034B4FF080521A60002383F3118808BD19
:1047D00004ED00E0084A0023136008490B60084B11
:1047E0001B680849A1FB03139B09013B06490B60A9
:1047F00007231360704700BF10E000E018E000E0FE
:1048000014000020D34D621014E000E010B582B017
:104810002B4B1A78D2B20192FF221A701B78DBB2AE
:104820008DF803309DF8033003F05003254A1370D0
:104830000723536009E0234A5368013B53609DF806
:1048400003305B00DBB28DF803309DF8033013F0CA
:10485000800FF0D11B4B5B68032B0AD04FF0500345
:1048600072B683F31188BFF36F8FBFF34F8F62B6B9
:10487000FEE71B0203F4E063124A5360019BDBB2C4
:104880000F4A1370104B1A6842F470021A601A68CB
:1048900042F070421A60FFF79DFF00240B4B1C6032
:1048A000FFF7DAFE0A4A136843F040431360FFF74C
:1048B000BFFEFFF7D5FBFFF797FE204602B010BD05
:1048C00000E400E06001002020ED00E0080000208E
:1048D00034EF00E0EFF305830F2B11D9124A9B5CF4
:1048E000DBB2124A12789A420AD94FF0500372B6DC
:1048F00083F31188BFF36F8FBFF34F8F62B6FEE76C
:104900000B4B1B6803F4E063084A526893420AD9D0
:104910004FF0500372B683F31188BFF36F8FBFF36C
:104920004F8F62B6FEE77047F0E300E060010020C1
:104930000CED00E0104A12F0070F1AD0D11D21F043
:104940000701C1F5705313440A460C490A60002060
:1049500048601344083B23F007038B6058601860DD
:10496000981A50601360C86008614FF000434B61B3
:1049700070474FF47053E8E7800100206801002081
:1049800010B4134B1A6882421BD359685C188442D6
:1049900003D1406801445960184641684418A24256
:1049A00013D10B4CA468A2420DD05268114441604F
:1049B0001A6812680260984200D018605DF8044BD3
:1049C00070471346DEE70460F5E70260F3E700BFD7
:1049D0006801002070B50446FFF70EFA3C4B9B6857
:1049E000CBB13B4B5B691C4268D1BCB1083414F0BD
:1049F000070F13D024F00704083404F007036BB149
:104A00004FF0500372B683F31188BFF36F8FBFF37B
:104A10004F8F62B6FEE7FFF78DFFE2E7002C4FD025
:104A20002B4B1B69A3424DD3294B1D6801E02B463C
:104A300015466A68A24202D22A68002AF7D1244A9F
:104A40009268AA4240D01E6808362A681A606B68CD
:104A50001B1B102B12D9281910F0070F0AD04FF08A
:104A6000500372B683F31188BFF36F8FBFF34F8F7C
:104A700062B6FEE743606C60FFF782FF6968144A24
:104A800013695B1A1361D268934201D2104AD36052
:104A90000F4B5B690B436B6000232B60FFF73EFA03
:104AA00016F0070F12D04FF0500372B683F311883F
:104AB000BFF36F8FBFF34F8F62B6FEE70026EDE7BF
:104AC0000026EBE70026E9E70026E7E7304670BD61
:104AD00068010020002834D038B50446A0F108054C
:104AE00050F8042C174949690A420AD14FF0500383
:104AF00072B683F31188BFF36F8FBFF34F8F62B627
:104B0000FEE750F8080C50B14FF0500372B683F333
:104B10001188BFF36F8FBFF34F8F62B6FEE722EAB3
:104B2000010244F8042CFFF767F954F8041C054A05
:104B300013690B4413612846FFF722FFFFF7EEF9D4
:104B400038BD70476801002010B401292DD002291A
:104B50003ED0B0F920108BB242881A4412B2428083
:104B6000448C1B1B1BB2838090ED026B07EE901AE6
:104B7000B8EEE75B90ED044B07EE903AB8EEE77BBA
:104B800027EE047B05EE067B90ED065B06EE902A91
:104B9000B8EEE66B06EE057BBDEEC77B17EE103A6E
:104BA000838441845DF8044B70470C4B1B685B6A3F
:104BB0000B4A1268526A1A440A4B1B685B6A0A491C
:104BC0000968496A0B445B08C3EB52030384C0E7DE
:104BD000064A9388D2889B1A0384BAE77C40002057
:104BE000FC3F00207C3F0020BC3F0020983D00207F
:104BF000F8B5042229492A48FBF786FD294C0C21E7
:104C00002046FDF7B9FE284F0C213846FDF7B4FECB
:104C1000264E0C213046FDF7AFFE254D0C212846CF
:104C2000FDF7AAFE3C212046FDF748FF3C2138460F
:104C3000FDF744FF3C213046FDF740FF3C2128466C
:104C4000FDF73CFFD4F800C00024CCF824403868BD
:104C5000446231684C622A6854624FF47A73CCF82B
:104C6000403003640B641364124D01224FF48071D1
:104C70002846FCF7A1FB01224FF480612846FCF78F
:104C80009BFB22464FF480512846FCF795FB2246B9
:104C90004FF400412846FCF78FFBF8BD983D0020FB
:104CA000243E00207C400020FC3F00207C3F002070
:104CB000BC3F0020001002400A4B1B6803B1704744
:104CC00070B586B0044601AD074E0FCE0FC53368F0
:104CD0002B60214601A8FEF7AAFB024B186006B024
:104CE00070BD00BF803D0020DC5E000810B50D4C9B
:104CF00000212046FDF7AEFE08212046FDF7AAFE62
:104D000004212046FDF7A6FE0C212046FDF7A2FE59
:104D1000054B186820B1FEF7A4FB034B00221A6074
:104D200010BD00BF3C400020803D0020024B1B68AE
:104D300058639863704700BF3C400020024B1B68DB
:104D4000D8631864704700BF3C40002070B598B02D
:104D5000044628252A4600210EA801F0A6F82A4676
:104D6000002104A801F0A1F82046FFF741FF002C24
:104D7000B8BF64423F4B1D88AC4217DC25B23E4CA5
:104D800023685D639D63DD631D6400212046FDF79C
:104D90003BFE08212046FDF737FE04212046FDF7A3
:104DA00033FE0C212046FDF72FFE2CE02DB2E6E766
:104DB00001210EA8FFF7C8FE022104A8FFF7C4FED8
:104DC000BDF83440BDF85C000444A4B223B2002B0B
:104DD00024DB83EAE372A2EBE3722A4425490988C3
:104DE0008A423EDCAEB21C46002B38DBC4F34F04D3
:104DF000301B80B2FFF79AFF301980B2FFF79EFF99
:104E00000120FEF733FB0522012101A8FEF76AFB12
:104E1000019B082BCCD0FFF769FFF1E783EAE3722F
:104E2000A2EBE3722A4413490888824210DCAEB236
:104E30001C46002B0ADBC4F34F04301B80B2FFF783
:104E400075FF301980B2FFF779FFD9E75C1CF2E7F4
:104E5000FFF76CFF601980B2FFF770FFD0E75C1CB2
:104E6000C4E7281B80B2FFF761FF024B1888FFF7E9
:104E700065FFC5E70C0000203C40002008B501217B
:104E8000024B1868FEF7FCFA08BD00BF803D002009
:104E9000294B98420CD0294B98421AD0284B984263
:104EA00028D0284B984236D0036800225A627047B7
:104EB00003681B6813F0100F05D1234A136803F52C
:104EC0007A731360F0E7204A1368A3F57A731360CE
:104ED000EAE703681B6813F0100F05D11B4A13683B
:104EE00003F57A731360DFE7184A1368A3F57A7342
:104EF0001360D9E703681B6813F0100F05D1144A3B
:104F0000136803F57A731360CEE7114A1368A3F5AB
:104F10007A731360C8E703681B6813F0100F05D09D
:104F20000C4A1368A3F57A731360BDE7094A136846
:104F300003F57A731360B7E77C400020FC3F002044
:104F40007C3F0020BC3F00208C3D0020943D002091
:104F5000203E0020903D002000B585B00023009346
:104F60000193029303932948294A026043608360B6
:104F700001220261826180F82030C362254981628A
:104F8000C3600421C16180F830204361FBF790FBCE
:104F900068BB092300930123019307230293694609
:104FA0001A48FBF789FD28BB0823009302230193CD
:104FB0000723029369461548FBF77EFDE8B90323F2
:104FC000009301930723029369461048FBF774FD91
:104FD000B0B9022300930423019307230293694687
:104FE0000A48FBF769FD70B905B05DF804FB00F0F5
:104FF0007FF9CEE700F07CF9D6E700F079F9DEE73B
:1050000000F076F9E5E700F073F9EDE7243E0020C3
:10501000002001400100000F70B588B00023039309
:105020000493059306930793026803F1804303F505
:1050300090339A4201D008B070BD044603F58C331A
:105040005A6C42F480725A645A6C02F48072009274
:10505000009A1A6B42F001021A631A6B02F0010205
:105060000192019A1A6B42F002021A631B6B03F061
:1050700002030293029B0C2303930325049501264C
:1050800005960DEB03011848FCF7A6F80395049567
:10509000059603A91548FCF79FF81548154B0360C2
:1050A000002343608360C3604FF4806202614FF469
:1050B000006242614FF4005282614FF48072C2611B
:1050C00003624362FBF79CFE58B9094BA3639C63E0
:1050D000002205211220FBF7D9FD1220FBF708FE64
:1050E000A9E700F005F9F0E70000024000040240E3
:1050F0006C3E00201064024000B583B0164B1A6B62
:1051000042F480021A631A6B02F480020092009A41
:105110001A6B42F400121A631B6B03F40013019321
:10512000019B002205210C20FBF7B0FD0C20FBF7B2
:10513000DFFD002205210E20FBF7A8FD0E20FBF766
:10514000D7FD002205213820FBF7A0FD3820FBF712
:10515000CFFD03B05DF804FB0038024008B54FF402
:105160007A70FEF783F9FA20FFF7A6FD43F6982040
:10517000FEF77CF9FFF7BAFDF8E7000008B504E098
:10518000FFF7B4FD0120FEF771F9054B1B88B3F55D
:10519000FA6FF5D8024B5B88B3F5FA6FF2D9EFE7F7
:1051A000983D002070B58AB0104C01212046FEF7D2
:1051B000CDF90F4B186005AD261D0FCE0FC5336816
:1051C0002B60002105A8FEF732F90A4B18606D46E6
:1051D00018340FCC0FC523682B6000216846FEF7FA
:1051E00026F9054B18600AB070BD00BFF05E0008DC
:1051F000883D0020CC3E0020D43E002030B58DB04C
:1052000000240794089409940A940B942E4B1A6B6B
:1052100042F004021A631A6B02F004020192019A2E
:105220001A6B42F080021A631A6B02F0800202923B
:10523000029A1A6B42F001021A631A6B02F0010221
:105240000392039A1A6B42F002021A631A6B02F07D
:1052500002020492049A1A6B42F010021A631A6B4B
:1052600002F010020592059A1A6B42F008021A63C6
:105270001B6B03F008030693069B144D22464FF464
:1052800015412846FCF798F84FF400530793104B4C
:105290000893099407A90F48FBF79EFF4FF41543A5
:1052A00007930123089309940A9407A92846FBF75A
:1052B00093FF224621462820FBF7E8FC2820FBF735
:1052C00017FD0DB030BD00BF003802400010024095
:1052D000000011100008024008B50268034B9A4212
:1052E00000D008BDFBF738F9FBE700BF0020004005
:1052F000FEE7000010B5B8B0342200212BA800F062
:10530000D4FD002426942794289429942A9490224A
:10531000214602A800F0C9FDFCF764F81F4B1A6C87
:1053200042F080521A641B6C03F080530093009B80
:105330001B4A136823F4404343F48043136013680B
:1053400003F440430193019B01232B934FF48033DB
:105350002C9331942BA8FCF74DF8C8B90F23269352
:10536000012327930021289129912A9126A8FCF74F
:1053700087FA78B94FF4C0730293002314931593FE
:1053800002A8FCF787FB38B9FCF71EFA38B010BD4D
:10539000FFF7AEFFFFF7ACFFFFF7AAFF00380240B0
:1053A0000070004008B5FBF7CBF8FFF7A3FFFFF74D
:1053B00025FFFFF7A1FE00F0C3FB00F067F900F046
:1053C000BDF900F015FA00F06DFA00F03BFC00F0BA
:1053D00009F8FFF7C1FD00F051FCFFF7E3FEFEF70F
:1053E00021F8FEE708B50E480E4B0360002343602A
:1053F00083604FF44072C260036143614FF40072F6
:1054000082610362436283620722C2620363436371
:10541000FCF742FE00B908BDFFF76AFFFBE700BFDB
:10542000D83E00200030014070B588B000230393BF
:10543000049305930693079302681D4B9A4201D08B
:1054400008B070BD03F584335A6C42F480525A643C
:105450005A6C02F480520092009A1A6B42F00102D8
:105460001A631A6B02F001020192019A1A6B42F060
:1054700002021A631B6B03F002030293029BA02338
:10548000039302260496032506950524079403A991
:105490000848FBF7A1FE102303930496002305930D
:1054A0000695079403A90448FBF796FEC8E700BFDA
:1054B00000300140000002400004024000B583B00B
:1054C0000D4B1A6C42F080521A641A6C02F0805232
:1054D0000092009A5A6C42F480425A645B6C03F466
:1054E00080430193019B00220F216FF00100FBF725
:1054F000CDFB03B05DF804FB0038024000B589B075
:10550000002201462D20FBF7C1FB2D20FBF7F0FB0D
:10551000144B1A6C42F480721A641B6C03F480738F
:105520000193019B02A903A8FCF782FAFCF760FA39
:105530000D4BA3FB00239B0C013B0C480C4A026063
:1055400040F2E732C2604360002303618360FDF7ED
:105550005BF818B1012009B05DF804FB0348FCF7C3
:10556000E5FEF8E70038024083DE1B433C3F0020A5
:105570000020004008B5FCF77BFA08BD08B50D4CCB
:1055800000212046FDF766FA04212046FDF762FA65
:1055900008212046FDF75EFA0C212046FDF75AFA55
:1055A0000548FBF769F9242204490548FDF73CFB4F
:1055B000FEE700BF3C400020243E0020645F00085E
:1055C0001C410020FEE7FEE7FEE7704708B50248F1
:1055D000FBF714FD08BD00BFBC40002008B5024821
:1055E000FBF70CFD08BD00BF9C41002008B5024838
:1055F000FBF77AF908BD00BF243E002008B5024839
:10560000FDF7BAFB08BD00BF1C41002008B54FF4F0
:105610000050FBF7D9FE08BD08B50248FCF7A0FE14
:1056200008BD00BF3C3F002008B50248FBF7E6FC80
:1056300008BD00BF6C3E00207047000010B40F4A48
:10564000D2F8883043F47003C2F888300C4B1968E4
:1056500041F001011960002098601C68094921404F
:10566000196009495960196821F480211960D860CE
:105670004FF0006393605DF8044B704700ED00E06D
:1056800000380240FFFFF6FE1030002400B595B050
:10569000242200210BA800F008FC002308930993A2
:1056A0000A9301930293039304930593069307933C
:1056B00021484FF080420260436083604FF4FA62F9
:1056C000C26003618361FCF7B8FF48BB03230B93FF
:1056D00000230C9301210D910E930F220F92109332
:1056E0001191129313920BA91348FCF7D9FFD0B96B
:1056F000002308930A9308A90F48FDF701FAA8B9F7
:10570000002301934FF47A720292039305930C22C3
:1057100001A90948FDF74AF858B915B05DF804FB2E
:10572000FFF7E6FDD2E7FFF7E3FDE1E7FFF7E0FD76
:10573000E6E7FFF7DDFDF0E77C40002000B595B01F
:10574000242200210BA800F0B0FB0023089309934A
:105750000A9301930293039304930593069307938B
:105760002148224A0260436083604FF4FA62C260BB
:1057700003618361FCF761FF48BB03230B930023A4
:105780000C9301210D910E930F220F921093119102
:10579000129313920BA91448FCF782FFD0B900238F
:1057A00008930A9308A91048FDF7AAF9A8B900239D
:1057B00001934FF47A720292039305930C2201A98C
:1057C0000948FCF7F3FF58B915B05DF804FBFFF783
:1057D0008FFDD2E7FFF78CFDE1E7FFF789FDE6E7F4
:1057E000FFF786FDF0E700BFFC3F0020000400400B
:1057F00000B595B0242200210BA800F056FB002331
:10580000089309930A9301930293039304930593D6
:10581000069307932148224A0260436083604FF455
:10582000FA62C26003618361FCF707FF48BB032390
:105830000B9300230C9301210D910E930F220F92D5
:1058400010931191129313920BA91448FCF728FF9F
:10585000D0B9002308930A9308A91048FDF750F91E
:10586000A8B9002301934FF47A720292039305932F
:105870000C2201A90948FCF799FF58B915B05DF849
:1058800004FBFFF735FDD2E7FFF732FDE1E7FFF755
:105890002FFDE6E7FFF72CFDF0E700BF7C3F00207F
:1058A0000008004000B595B0242200210BA800F0AC
:1058B000FCFA0023089309930A930193029303933C
:1058C00004930593069307932148224A026043609C
:1058D00083604FF4FA62C26003618361FCF7ADFE3E
:1058E00048BB03230B9300230C9301210D910E93CE
:1058F0000F220F9210931191129313920BA9144837
:10590000FCF7CEFED0B9002308930A9308A91048EB
:10591000FDF7F6F8A8B9002301934FF47A720292CA
:10592000039305930C2201A90948FCF73FFF58B9DE
:1059300015B05DF804FBFFF7DBFCD2E7FFF7D8FCFE
:10594000E1E7FFF7D5FCE6E7FFF7D2FCF0E700BFA1
:10595000BC3F0020000C00400268094B9A4200D076
:10596000704782B003F59C335A6C42F001025A64CE
:105970005B6C03F001030193019B02B0704700BF11
:105980000000014030B58FB0002309930A930B93B8
:105990000C930D930368B3F1804F0AD04B4A9342A6
:1059A0003BD04B4A934255D04A4A934270D00FB0F5
:1059B00030BD03F50E331A6C42F001021A641A6C02
:1059C00002F001020092009A1A6B42F001021A637F
:1059D0001A6B02F001020192019A1A6B42F0020264
:1059E0001A631B6B03F002030293029B4FF4004304
:1059F000099302250A9501240D9409A93648FBF75D
:105A0000EBFB082309930A9500230B930C930D9449
:105A100009A93248FBF7E0FBC9E7314B1A6C42F0A9
:105A200002021A641A6C02F002020392039A1A6BC1
:105A300042F004021A631B6B03F004030493049BFB
:105A4000C023099302230A930D9309A92548FBF764
:105A5000C3FBACE7224B1A6C42F004021A641A6CC6
:105A600002F004020592059A1A6B42F008021A63CA
:105A70001B6B03F008030693069B4FF440530993F6
:105A800002230A930D9309A91748FBF7A5FB8EE79C
:105A9000134B1A6C42F008021A641A6C02F00802E6
:105AA0000792079A1A6B42F001021A631B6B03F00C
:105AB00001030893089B0323099302230A930D9380
:105AC00009A90548FBF788FB71E700BF0004004007
:105AD00000080040000C00400000024000040240AA
