:020000040800F2
:1000000000000820F5540008D94D0008E14D000813
:10001000E34D0008E54D0008E74D00080000000032
:10002000000000000000000000000000F142000895
:10003000E94D00080000000091430008F543000866
:100040004555000845550008455500084555000828
:100050004555000845550008455500084555000818
:100060004555000845550008455500084555000808
:10007000ED4D000845550008FD4D000845550008A8
:1000800045550008455500080D4E00084555000827
:1000900045550008455500084555000845550008D8
:1000A00045550008455500084555000845550008C8
:1000B00045550008455500084555000845550008B8
:1000C00045550008455500084555000845550008A8
:1000D0004555000845550008455500081D4E0008C7
:1000E0002D4E0008455500084555000845550008A7
:1000F00045550008394E000845550008455500088B
:100100004555000845550008455500084555000867
:100110004555000845550008455500084555000857
:10012000494E00084555000845550008455500084A
:100130004555000845550008455500084555000837
:100140004555000845550008455500084555000827
:100150004555000845550008455500084555000817
:100160004555000845550008455500084555000807
:100170004555000845550008455500080000000099
:1001800045550008455500084555000845550008E7
:1001900045550008455500084555000845550008D7
:1001A00045550008455500084555000845550008C7
:1001B00045550008455500084555000845550008B7
:1001C0004555000845550008000000004555000849
:1001D0004555000845550008455500084555000897
:1001E0004555000845550008455500084555000887
:0801F0004555000845550008C3
:1002000010B5054C237833B9044B13B10448AFF350
:1002100000800123237010BD1000002000000000AA
:10022000B855000808B5034B1BB103490348AFF3A9
:10023000008008BD0000000014000020B855000830
:1002400053B94AB9002908BF00281CBF4FF0FF313D
:100250004FF0FF3000F072B9ADF1080C6DE904CE3B
:1002600000F006F8DDF804E0DDE9022304B0704791
:100270002DE9F047089E04468846002B4BD18A4260
:10028000154667D9B2FA82F24AB1C2F1200701FAE3
:1002900002F320FA07F7954047EA030894404FEA33
:1002A000154E230CB8FBFEF71FFA85FC0EFB1788D2
:1002B00043EA084307FB0CF1994209D9EB1807F10F
:1002C000FF3080F01B81994240F21881023F2B449D
:1002D0005B1AA4B2B3FBFEF00EFB103344EA0344F6
:1002E00000FB0CFCA44509D92C1900F1FF3380F068
:1002F0000781A44540F2048102382C4440EA0740BB
:10030000A4EB0C0400271EB1D4400023C6E900432F
:100310003946BDE8F0878B4209D9002E00F0EB800A
:100320000027C6E9000138463946BDE8F087B3FA30
:1003300083F7002F47D18B4202D3824200F2FA802A
:10034000841A61EB030301209846002EE0D0C6E931
:100350000048DDE702B9FFDEB2FA82F2002A40F07F
:100360008F80491B4FEA154E1FFA85F80127B1FB14
:10037000FEFC230C0EFB1C1143EA014308FB0CF1AD
:10038000994207D9EB180CF1FF3002D2994200F2E2
:10039000CD808446591AA3B2B1FBFEF00EFB1014B7
:1003A00043EA044408FB00F8A04507D92C1900F1E2
:1003B000FF3302D2A04500F2B6801846A4EB080431
:1003C00040EA0C409FE7C7F1200CBB4022FA0CFE2C
:1003D0004EEA030E01FA07F420FA0CF521FA0CF3A9
:1003E0004FEA1E482543B3FBF8F92C0C08FB1933E0
:1003F0001FFA8EFA44EA034309FB0AF49C4202FA0C
:1004000007F200FA07F10BD91EEB030309F1FF30E5
:1004100080F087809C4240F28480A9F102097344F5
:100420001B1BADB2B3FBF8F008FB103345EA0344E5
:1004300000FB0AFAA24508D91EEB040400F1FF33C1
:100440006BD2A24569D90238744440EA0940A0FB46
:100450000289A4EB0A044C45C2464B4654D351D002
:10046000002E69D0B1EB0A0564EB030404FA0CFC1E
:10047000FD40FC404CEA0505C6E90054002747E76B
:10048000C2F1200320FA03F7954001FA02F021FAA5
:1004900003F34FEA154E3843010CB3FBFEF71FFA86
:1004A00085F80EFB173341EA034107FB08F38B4243
:1004B00004FA02F407D9691807F1FF3C2FD28B42E6
:1004C0002DD9023F2944CB1A81B2B3FBFEF00EFBBB
:1004D000103341EA034100FB08F38B4207D9691846
:1004E00000F1FF3C17D28B4215D902382944C91AB2
:1004F00040EA07473BE73746304609E70746E7E665
:100500001846FBE64145ABD2B8EB020A69EB0E0296
:1005100001381346A4E76046E9E7184695E76746C1
:10052000D1E781467CE702382C4447E7ACF1020C66
:100530002B442FE7384608E73746E9E6704700BF07
:1005400008B5032000F05EFA002004F009FC04F076
:10055000E7FB002008BD0000034A1168034B1B782D
:100560000B441360704700BF783D0020000000205E
:10057000014B1868704700BF783D00204A4B5A680D
:1005800022F440325A605A6841680A435A6002684D
:10059000536823F48073536002685368016943EA27
:1005A000012353600268536823F04073536002686C
:1005B000536881680B4353600268936823F40063B7
:1005C000936002689368C1680B439360826A374BFB
:1005D0009A424BD00268936823F07063936002687C
:1005E0009368816A0B4393600268936823F04053D9
:1005F000936002689368C16A0B43936002689368D2
:1006000023F00203936002689368816943EA41031F
:10061000936090F82030002B33D10268536823F4A4
:10062000006353600268D36A23F47003D3620168E5
:10063000CB6AC269013A43EA0253CB62026893680B
:1006400023F4007393600268936890F8301043EAD3
:10065000412393600268936823F480639360026887
:100660009368416943EA8123936070470268936805
:1006700023F0706393600268936823F040539360A3
:10068000BCE70268536843F4006353600268536830
:1006900023F46043536001684B68426A013A43EABD
:1006A00042334B60BEE700BF002301400100000F52
:1006B00028B310B50446036C43B1236C13F0100F3C
:1006C0000BD00120002384F83C3010BD04F0BEF8AC
:1006D0000023636484F83C30EFE7226C094B13403D
:1006E00043F0020323642046FFF748FF00206064C4
:1006F000236C23F0030343F001032364E2E70120AA
:10070000704700BFFDEEFFFF7047704738B50446E5
:1007100001680A68C2F340024B68C3F340131A42EF
:100720002CD0036C13F0100F03D1036C43F400734F
:1007300003648B6813F0405F19D1A369BBB9CB6A1E
:1007400013F4700F03D08B6813F4806F0FD14B68D4
:1007500023F020034B60236C23F480732364236C09
:1007600013F4805F03D1236C43F00103236420461C
:1007700004F072FB23686FF012021A602368196894
:10078000C1F380015A68C2F3C012114234D0226C06
:1007900012F0100F03D1226C42F4005222649A68C6
:1007A00012F4401F21D19A6B12F4401F03D09A68B3
:1007B00012F4806F19D15A6812F4806F15D19A68BB
:1007C00012F0405F11D1A2697AB95A6822F0800212
:1007D0005A60236C23F480532364236C13F4807FCA
:1007E00003D1236C43F001032364204600F008F991
:1007F00023686FF00C021A60226811685368C3F313
:100800008013194203D0136813F0010F09D1216836
:100810000A68C2F340124B68C3F380631A420CD1DA
:1008200038BD236C43F4803323642046FFF76CFF0C
:1008300023686FF001021A60E9E7636C43F002037A
:1008400063646FF020050D602046FFF75EFF2368AC
:100850001D60E5E730B482B00023019390F83C308E
:10086000012B00F0C080012380F83C300B68092B7D
:1008700022D90568EA689BB203EB43031E3B0724B9
:1008800004FA03F322EA0303EB600B68574A93422E
:100890000BD00568EA688C689BB203EB43031E3BF0
:1008A00004FA03F31343EB601BE00268D3688C681F
:1008B00043EA0463D36014E005682A699BB203EB42
:1008C0004303072404FA03F322EA03032B610568B8
:1008D0002A698C680B8803EB430304FA03F3134380
:1008E0002B614B68062B24D805686A6B03EB8303E6
:1008F000053B1F2404FA03F322EA03036B63056834
:100900006A6B4B6803EB8303053B0C8804FA03F323
:1009100013436B630268364B9A423AD00268344BF9
:100920009A423FD0002380F83C30184602B030BCD9
:1009300070470C2B16D805682A6B03EB8303233B07
:100940001F2404FA03F322EA03032B6305682A6BCE
:100950004B6803EB8303233B0C8804FA03F3134334
:100960002B63D7E70568EA6A03EB8303413B1F2447
:1009700004FA03F322EA0303EB620568EA6A4B68B0
:1009800003EB8303413B0C8804FA03F31343EB624C
:10099000C0E70B68122BC1D1164A536843F4800399
:1009A0005360BBE70B68114A112B18BF9342B9D1B2
:1009B000104A536843F4000353600A680B4B9A4291
:1009C000B0D10D4B1B680D4AA2FB03239B0C03EB1C
:1009D00083035A00019202E0019B013B0193019BBA
:1009E000002BF9D19EE70220A0E700BF1200001003
:1009F00000200140002301400C00002083DE1B4347
:100A0000704700000649CB6823F4E0631B041B0C0D
:100A1000000200F4E0600343024A1A43CA607047D0
:100A200000ED00E00000FA0530B4154BDB68C3F3BD
:100A30000223C3F10704042C28BF04241D1D062D26
:100A400014D9033B4FF0FF3505FA04F421EA040101
:100A5000994005FA03F322EA03031943002807DB50
:100A60000901C9B2074B195430BC70470023E9E7AC
:100A700000F00F000901C9B2034B1954F4E700BF9D
:100A800000ED00E000E400E014ED00E0002807DBEA
:100A900000F01F02400901239340024A42F820302F
:100AA000704700BF00E100E030B405682C6824F412
:100AB00080242C60046863608368402B05D0036841
:100AC00099600368DA6030BC704703689A60036815
:100AD000D960F8E70268D3B2103B0949A1FB0313C0
:100AE0001B090849C95CC165032B04D8064B134098
:100AF0008365806D7047044B134004338365F8E7CA
:100B0000ABAAAAAAD055000800FCFFFF836A82693D
:100B100092B9012B0AD01BB1022B01D000207047E3
:100B2000C36A13F0807F2CD100207047C36AB3F1F1
:100B3000C07F28D000207047B2F5005F05D0022B9F
:100B400029D9032B15D000207047032B03D8DFE8E9
:100B500003F01C041C0A00207047C36A13F0807F56
:100B600015D100207047C36AB3F1C07F11D00020B7
:100B70007047C36A13F0807F01D0012070470020C6
:100B80007047012070470120704701207047012005
:100B900070470120704701207047000070B504467F
:100BA000FFF7E6FC002C5BD00546002384F83430C8
:100BB000022384F835302268136823F001031360A0
:100BC00023681A6812F0010F0AD0FFF7D1FC401B0E
:100BD0000528F5D920236365032084F8350070BD0E
:100BE0001A68204810406168A2680A43E1680A4315
:100BF00021690A4361690A43A1690A43E1690A4319
:100C0000216A0A430243616A04291ED01A602668D9
:100C1000756925F00705636A1D43042B07D1A36A94
:100C20001D43E36A1BB12046FFF770FF90B9756161
:100C30002046FFF74FFFE26D3F2393408360002083
:100C40006065012384F83530C9E7E16A206B014310
:100C50000A43DBE740236365012084F83500BEE7E3
:100C60000120BCE73F8010E038B5856D90F8344036
:100C7000012C31D0012480F8344090F83540E4B2A2
:100C8000012C04D0002380F83430022038BD044603
:100C9000022084F83500002060652046FFF704FF3D
:100CA000E26D3F239340AB602268136843F0160364
:100CB00013602268536943F080035361236C23B1AE
:100CC0002268136843F0080313602268136843F036
:100CD000010313600020D9E70220D7E790F83530F0
:100CE000DBB2022B03D0802343650120704705232C
:100CF00080F835300268136823F001031360002088
:100D000070470000F0B583B0044600230193724B96
:100D10001D68724BA3FB0535AD0A876D3E68C26D39
:100D200008239340334210D003681A6812F0040F6E
:100D30000BD01A6822F004021A60C26D0823934097
:100D4000BB60436D43F001034365E26D01239340B3
:100D5000334209D02268526912F0800F04D0BB6080
:100D6000636D43F002036365E26D042393403342F5
:100D700009D02268126812F0020F04D0BB60636DC4
:100D800043F004036365E26D10239340334224D0A3
:100D90002268126812F0080F1FD0BB6023681A681F
:100DA00012F4802F0DD01B6813F4002F04D1236C94
:100DB0009BB12046984710E0A36C73B1204698473A
:100DC0000BE01A6812F4807F03D11A6822F008023F
:100DD0001A60236C0BB120469847E26D20239340A4
:100DE000334255D02268126812F0100F50D0BB6009
:100DF00094F83530DBB2052B0ED023681A6812F454
:100E0000802F33D01B6813F4002F2AD1636C002B82
:100E10003ED0204698473BE02268136823F0160333
:100E200013602268536923F080035361236CA3B1DC
:100E30002268136823F008031360E26D3F23934098
:100E4000BB60002384F83430012384F83530236DEF
:100E5000002B3FD0204698473CE0A36C002BE7D105
:100E6000EBE7E36BA3B12046984711E01A6812F450
:100E7000807F09D11A6822F010021A60002384F8DA
:100E80003430012384F83530E36B0BB120469847AA
:100E9000636DFBB1636D13F0010F17D0052384F868
:100EA00035302268136823F001031360019B01337E
:100EB0000193AB4204D823681B6813F0010FF5D1EE
:100EC000002384F83430012384F83530E36C0BB10F
:100ED0002046984703B0F0BD0C000020B5814E1BA2
:100EE00000230F2B00F2E280F0B482B039E0092237
:100EF00000E00022B2403A4302346D4E46F824200E
:100F00006C4A1468EA4302EA04064F6817F4803F0B
:100F100001D045EA0406674C2660646802EA0406CC
:100F20004F6817F4003F01D045EA0406614C666043
:100F3000A46802EA04064F6817F4801F01D045EA4E
:100F400004065C4CA660E46822404E6816F4001F5C
:100F500001D045EA0402574CE26001330F2B00F246
:100F6000A28001229A400C6804EA0205AA42F4D148
:100F70004C68122C18BF022C10D1DE08083650F82D
:100F800026C003F00704A7000F24BC402CEA040C81
:100F90000C69BC4044EA0C0440F8264004685F0039
:100FA0000326BE40F64306EA040C4C6804F0030432
:100FB000BC4044EA0C0404604C6804F1FF3C112C72
:100FC00018BFBCF1010F01D9122C11D1846806EAB7
:100FD000040CCC68BC4044EA0C048460446824EAF5
:100FE000020C4C68C4F300129A4042EA0C024260C0
:100FF000C26816408A68BA403243C2604A6812F03A
:10100000805FAAD02C4A546C44F480445464526CDF
:1010100002F480420192019A9C08A61C244A52F8CC
:10102000267003F0030296000F22B24027EA02075F
:10103000224A90423FF45DAF02F58062904222D096
:1010400002F58062904220D002F5806290421ED06C
:1010500002F5806290421CD002F5806290421AD064
:1010600002F58062904218D002F58062904216D05C
:1010700002F58062904214D002F5806290423FF403
:1010800036AF0A2236E7012234E7022232E7032292
:1010900030E704222EE705222CE706222AE7072262
:1010A00028E7082226E702B0F0BC7047704700BF6F
:1010B00000380140003C014000380240000002407E
:1010C00012B909048161704781617047704700005F
:1010D00008B5054B5B69034200D108BD024B58615E
:1010E000FFF7F4FFF9E700BF003C0140024A136834
:1010F00043F480731360704700700040002800F0D4
:10110000DC8170B582B00446036813F0010F29D06A
:10111000A24B9B6803F00C03042B1AD09F4B9B68D7
:1011200003F00C03082B0FD06368B3F5803F40D069
:10113000002B54D1994B1A6822F480321A601A6835
:1011400022F480221A6039E0944B5B6813F4800F1C
:10115000EAD0924B1B6813F4003F03D06368002B66
:1011600000F0AD81236813F0020F75D08B4B9B68A4
:1011700013F00C0F5ED0894B9B6803F00C03082B17
:1011800053D0E368002B00F08A80844A136843F050
:1011900001031360FFF7ECF90546804B1B6813F061
:1011A000020F73D1FFF7E4F9401B0228F5D90320A1
:1011B00088E17A4A136843F48033136063682BB381
:1011C000FFF7D6F90546754B1B6813F4003FC9D1EC
:1011D000FFF7CEF9401B6428F5D9032072E1B3F57F
:1011E000A02F09D06D4B1A6822F480321A601A6859
:1011F00022F480221A60E1E7684B1A6842F48022E8
:101200001A601A6842F480321A60D7E7FFF7B0F923
:101210000546624B1B6813F4003FA3D0FFF7A8F903
:10122000401B6428F5D903204CE15C4B5B6813F448
:10123000800FA6D1594B1B6813F0020F04D0E3684E
:10124000012B01D001203DE1544A136823F0F8033B
:10125000216943EAC1031360236813F0080F46D0E5
:10126000636983B34D4A536F43F001035367FFF73C
:101270007FF90546494B5B6F13F0020F37D1FFF73B
:1012800077F9401B0228F5D903201BE1434A136874
:1012900023F0F803216943EAC1031360DCE73F4A06
:1012A000136823F001031360FFF762F905463B4B17
:1012B0001B6813F0020FCFD0FFF75AF9401B02282A
:1012C000F5D90320FEE0354A536F23F0010353673D
:1012D000FFF74EF90546314B5B6F13F0020F06D056
:1012E000FFF746F9401B0228F5D90320EAE02368FE
:1012F00013F0040F7ED0294B1B6C13F0805F1ED1BE
:10130000264B1A6C42F080521A641B6C03F0805317
:101310000193019B0125224B1B6813F4807F10D0A1
:10132000A368012B21D0002B3CD11C4B1A6F22F05B
:1013300001021A671A6F22F004021A671AE00025E8
:10134000E9E7174A136843F480731360FFF710F955
:101350000646134B1B6813F4807FE1D1FFF708F9B1
:10136000801B6428F5D90320ACE00C4A136F43F0CE
:1013700001031367A3685BB3FFF7FAF80646074B50
:101380001B6F13F0020F34D1FFF7F2F8801B41F20C
:1013900088339842F3D9032094E000BF003802401C
:1013A00000700040052B09D0484B1A6F22F0010253
:1013B0001A671A6F22F004021A67DBE7434B1A6FB1
:1013C00042F004021A671A6F42F001021A67D1E76D
:1013D000FFF7CEF806463D4B1B6F13F0020F08D007
:1013E000FFF7C6F8801B41F288339842F3D90320F7
:1013F00068E0F5B9A369002B63D0344A926802F023
:101400000C02082A60D0022B19D0304A136823F04E
:1014100080731360FFF7ACF804462C4B1B6813F085
:10142000007F48D0FFF7A4F8001B0228F5D903205D
:1014300048E0264A136C23F080531364DAE7234A0A
:10144000136823F080731360FFF792F805461F4B73
:101450001B6813F0007F06D0FFF78AF8401B0228B4
:10146000F5D903202EE0E369226A1343626A43EA56
:101470008213A26A5208013A43EA0243E26A43EA4B
:101480000263226B43EA0273104A5360136843F00D
:1014900080731360FFF76CF804460C4B1B6813F065
:1014A000007F06D1FFF764F8001B0228F5D903205E
:1014B00008E0002006E0002004E001207047012041
:1014C00000E0002002B070BD0120FBE700380240C0
:1014D000024A136843F40023136070470038024047
:1014E000264B9B6803F00C03042B44D0082B01D03F
:1014F000234870472DE9F04B204B5A6802F03F0219
:101500005B6813F4800F13D01C4B5968C1F388112A
:1015100000231C48A1FB0001FEF792FE174B5B68FD
:10152000C3F3014301335B00B0FBF3F0BDE8F08B84
:10153000124B5B68C3F388131E4600275C0100252D
:10154000E41A65EB0705A90141EA9461A001001BBB
:1015500061EB0501CB0043EA5073C400A01943EBD3
:1015600007018B0243EA9053840220461946002368
:10157000FEF766FED2E70348704700BF003802401E
:101580000024F40040787D01002800F0A28070B5AE
:101590000446524B1B6803F00F038B420CD24F4A98
:1015A000136823F00F030B431360136803F00F035A
:1015B0008B4201D0012070BD236813F0020F17D0B9
:1015C00013F0040F04D0464A936843F4E053936049
:1015D000236813F0080F04D0414A936843F4604332
:1015E00093603F4A936823F0F003A068034393603D
:1015F0000D46236813F0010F31D06368012B20D012
:10160000022B25D0364A126812F0020F63D03449FB
:101610008A6822F0030213438B60FEF7A9FF064697
:101620002F4B9B6803F00C036268B3EB820F16D05C
:10163000FEF79EFF801B41F288339842F0D90320C9
:10164000B9E7274A126812F4003FE0D10120B2E75F
:10165000234A126812F0007FD9D10120ABE71F4B5B
:101660001B6803F00F03AB420CD91C4A136823F02C
:101670000F032B431360136803F00F03AB4201D039
:10168000012098E7236813F0040F06D0144A9368EA
:1016900023F4E053E1680B439360236813F0080FD1
:1016A00007D00F4A936823F46043216943EAC103DA
:1016B0009360FFF715FF0A4B9B68C3F30313094AB6
:1016C000D35CD840084B1860002003F049FB002091
:1016D00071E70120704701206DE700BF003C024028
:1016E00000380240005600080C000020014B18682A
:1016F000704700BF0C00002008B5FFF7F7FF044B50
:101700009B68C3F38223034AD35CD84008BD00BF63
:10171000003802401056000808B5FFF7E7FF044BF9
:101720009B68C3F34233034AD35CD84008BD00BF73
:1017300000380240105600080F2303600B4B9A68D4
:1017400002F0030242609A6802F0F00282609A6836
:1017500002F4E052C2609B68DB0803F4E0530361CB
:10176000034B1B6803F00F030B6070470038024007
:10177000003C02407047000008B5064BDB6813F0E0
:10178000800F00D108BDFFF7F5FF034B80221A70D0
:10179000F8E700BF003802400E380240F0B583B0D1
:1017A0000446036813F0010F0CD0B54B9A6822F47D
:1017B00000029A609A68416B0A439A60436BC3B116
:1017C000002600E00026236813F4002F15D0AC4A51
:1017D000D2F88C3023F44013E16B0B43C2F88C3009
:1017E000E36BB3F5801F06D0002B00F04581002588
:1017F00004E00126E7E70126F6E70025236813F455
:10180000801F0FD09E4AD2F88C3023F44003216C05
:101810000B43C2F88C30236CB3F5800F00F02E819F
:1018200003B90125236813F0807F00D0012613F04F
:10183000200F40F02781236813F0100F0CD0904B3D
:10184000D3F88C2022F08072C3F88C20D3F88C203F
:10185000A16B0A43C3F88C20236813F4804F08D08F
:10186000874AD2F8903023F44033616E0B43C2F8BC
:101870009030236813F4004F08D0814AD2F890309A
:1018800023F44023A16E0B43C2F89030236813F475
:10189000803F08D07A4AD2F8903023F44013E16EAA
:1018A0000B43C2F89030236813F4003F08D0744A09
:1018B000D2F8903023F44003216F0B43C2F89030EC
:1018C000236813F0400F08D06D4AD2F8903023F00F
:1018D0000303616C0B43C2F89030236813F0800F50
:1018E00008D0674AD2F8903023F00C03A16C0B4368
:1018F000C2F89030236813F4807F08D0604AD2F891
:10190000903023F03003E16C0B43C2F89030236831
:1019100013F4007F08D05A4AD2F8903023F0C00365
:10192000216D0B43C2F89030236813F4806F08D008
:10193000534AD2F8903023F44073616D0B43C2F8E0
:101940009030236813F4006F08D04D4AD2F89030DD
:1019500023F44063A16D0B43C2F89030236813F465
:10196000805F08D0464AD2F8903023F44053E16DAE
:101970000B43C2F89030236813F4005F08D0404A4C
:10198000D2F8903023F44043216E0B43C2F89030DC
:10199000236813F4800F08D0394AD2F8903023F02E
:1019A0008063A16F0B43C2F89030236813F4001FCB
:1019B0000DD0334AD2F8903023F00063E16F0B432F
:1019C000C2F89030E36FB3F1006F00F0C18023687C
:1019D00013F0080F00D0012513F4802F08D0284AF7
:1019E000D2F8903023F04073616F0B43C2F890300F
:1019F000236813F4000F09D0214AD2F8903023F065
:101A00008053D4F880100B43C2F89030236813F051
:101A1000806F09D01A4AD2F8903023F00053D4F8DE
:101A200084100B43C2F89030236813F0006F09D084
:101A3000134AD2F88C3023F00073D4F888100B438B
:101A4000C2F88C30236813F0805F09D00C4AD2F8BA
:101A50008C3023F08063D4F88C100B43C2F88C30A8
:101A6000002E77D12368B3F1007F73D0002D40F0B2
:101A70000481002003B0F0BD0125BFE60126CFE6BA
:101A800000380240B74B1A6C42F080521A641B6C4B
:101A900003F080530193019BB34A136843F48073AE
:101AA0001360FEF765FD0746AF4B1B6813F4807F9C
:101AB00006D1FEF75DFDC01B6428F5D90320D9E7E8
:101AC000A84B1B6F13F4407315D0226B02F44072C5
:101AD0009A4210D0A34B1A6F22F44072196F41F44E
:101AE00080311967196F21F4803119671A671B6FEC
:101AF00013F0010F12D1236B03F44072B2F5407F53
:101B00001DD0984A936823F4F813936095490B6F9E
:101B1000226BC2F30B0213430B678CE6FEF728FD22
:101B20000746904B1B6F13F0020FE4D1FEF720FD28
:101B3000C01B41F288339842F3D903209AE78948C1
:101B4000826822F4F812894919400A438260DDE76D
:101B500001253CE7834A136823F080631360FEF796
:101B600007FD06467F4B1B6813F0006F06D0FEF79B
:101B7000FFFC801B6428F5D903207BE7236813F062
:101B8000010F13D0636B8BB9764AD2F88430D2F848
:101B90008410606803F4403343EA801301F07061FD
:101BA0000B43A16843EA0173C2F88430236813F43D
:101BB000002F03D0E26BB2F5801F06D013F4801F14
:101BC0001ED0236CB3F5800F1AD1664AD2F8843048
:101BD000D2F88410606803F4403343EA8013E0686D
:101BE00043EA006301F0E0410B43C2F88430D2F8CD
:101BF0008C3023F01F03616A01390B43C2F88C302B
:101C0000236813F0807F11D0564AD2F88400D2F8AE
:101C10008410666823691B0443EA861300F0706031
:101C2000034301F0E0410B43C2F88430236813F012
:101C3000007F0DD0626823691B0443EA8213E268C7
:101C400043EA0263A26843EA0273464AC2F8843058
:101C5000444A136843F080631360FEF789FC06462C
:101C6000404B1B6813F0006F7FF400AFFEF780FC61
:101C7000801B6428F4D90320FCE63A4A136823F059
:101C800080531360FEF774FC0546364B1B6813F057
:101C9000005F06D0FEF76CFC401B6428F5D90320DA
:101CA000E8E6236813F4002F01D0E26B22B113F4AD
:101CB000801F1DD0236CDBB92A4AD2F88830D2F8B5
:101CC0008810606903F4403343EA8013A06943EA53
:101CD000006301F0E0410B43C2F88830D2F88C3049
:101CE00023F4F853A16A013943EA0123C2F88C3086
:101CF000236813F4001F03D0E36FB3F1006F37D0F4
:101D0000236813F0080F19D0164AD2F88810D2F8B9
:101D10008830606903F4403343EA801301F0706156
:101D20000B43E16943EA0173C2F88830D2F88C3082
:101D300023F44033E16A0B43C2F88C30094A13683C
:101D400043F080531360FEF713FC0446054B1B68F9
:101D500013F0005F1FD1FEF70BFC001B6428F5D9C0
:101D6000032087E60038024000700040FFFCFF0FB0
:101D70000A4AD2F88800D2F888106569236A1B04E1
:101D800043EA851300F07060034301F0E0410B4328
:101D9000C2F88830B4E700206CE600BF003802408B
:101DA000002858D010B504460023836290F85D30B7
:101DB000002B45D0022384F85D302268136823F09D
:101DC00040031360E368B3F5E06F3ED90022B3F53A
:101DD000706F18BFB3F5E06F01D00021A162216BD5
:101DE00021B9B3F5E06F33D9022323636368A16897
:101DF0000B4321690B4361690B43A16901F4007135
:101E00000B43E1690B43216A0B43A06A216803433A
:101E10000B60638B03F00403616A0B43616B0B433C
:101E2000E1680B43216813434B602268D36923F4B4
:101E30000063D36100202066012384F85D3010BD6B
:101E400080F85C3002F022FFB4E74FF48052BEE726
:101E500001232363CAE701207047000070B4036ABE
:101E600023F001030362036A42688569124C2C4027
:101E70000D68254323F002048B6823430F4C104E5A
:101E8000B04218BFA0420CBF0124002405D123F0AA
:101E90000803CE68334323F004032CB122F44072CC
:101EA0004C6914438A692243426085614A684263EF
:101EB000036270BC704700BF8CFFFEFF0000014052
:101EC0000004014070B4036A23F480730362036A60
:101ED0004268C569144C2C400E68264323F40073F5
:101EE0008C6843EA0423114C114DA84218BFA0424C
:101EF0000CBF0124002406D123F40063CD6843EA1B
:101F0000052323F480633CB122F440524C6942EA39
:101F100004128C6942EA04124260C6614A68C263D4
:101F2000036270BC704700BF8CFFFEFF00000140E1
:101F30000004014070B4036A23F480530362036A0F
:101F40004468C5690D4A2A400D6842EA052223F417
:101F500000538D6843EA0533094E0A4DA84218BF65
:101F6000B04204D124F480444D6944EA85144460AD
:101F7000C2614A680264036270BC7047FF8CFFFE56
:101F8000000001400004014070B4036A23F4803370
:101F90000362036A4268446D0D4D25400C682C4372
:101FA00023F400338D6843EA05430A4E0A4DA842E4
:101FB00018BFB04204D122F480324D6942EA0522B2
:101FC000426044654A688265036270BC704700BF26
:101FD0008FFFFEFF000001400004014070B4036A5F
:101FE00023F480130362036A4468456D0D4A2A4056
:101FF0000D6842EA052223F400138D6843EA055375
:10200000094E0A4DA84218BFB04204D124F48024DE
:102010004D6944EA8524446042654A68C2650362AA
:1020200070BC7047FF8FFFFE0000014000040140BC
:10203000704700000268D36843F00103D360026870
:102040009168064B0B40062B18BFB3F5803F03D0B9
:10205000136843F00103136000207047070001007C
:10206000704770477047704710B5044603681A6997
:1020700012F0020F11D0DA6812F0020F0DD06FF0DB
:1020800002021A610123037703689B6913F0030FAF
:1020900079D0FFF7E6FF0023237723681A6912F04F
:1020A000040F12D0DA6812F0040F0ED06FF00402A1
:1020B0001A610223237723689B6913F4407F68D059
:1020C0002046FFF7CEFF0023237723681A6912F01A
:1020D000080F12D0DA6812F0080F0ED06FF0080265
:1020E0001A61042323772368DB6913F0030F57D0A9
:1020F0002046FFF7B6FF0023237723681A6912F002
:10210000100F12D0DA6812F0100F0ED06FF010021C
:102110001A61082323772368DB6913F4407F46D0D4
:102120002046FFF79EFF0023237723681A6912F0E9
:10213000010F03D0DA6812F0010F3FD123681A694A
:1021400012F0800F03D0DA6812F0800F3DD12368BF
:102150001A6912F4807F03D0DA6812F0800F3BD145
:1021600023681A6912F0400F03D0DA6812F0400FAA
:1021700039D123681A6912F0200F03D0DA6812F0FF
:10218000200F37D110BDFFF76BFF2046FFF76AFF26
:1021900081E72046FFF764FF2046FFF763FF92E7E1
:1021A0002046FFF75DFF2046FFF75CFFA3E72046D0
:1021B000FFF756FF2046FFF755FFB4E76FF0010227
:1021C0001A61204602F0BAFCB8E76FF080021A618B
:1021D000204600F06AFABAE76FF480721A6120466E
:1021E00000F064FABCE76FF040021A612046FFF786
:1021F0003AFFBEE76FF020021A61204600F054FA61
:10220000C0E7000070B403683A4CA04214BF002439
:102210000124B0F1804F14BF224644F00102AAB954
:10222000354DA84214BF00250125344EB0420DD0D3
:1022300065B905F1804505F58235A84214BF002532
:10224000012506F50066B04200D01DB123F07003F1
:102250004D682B43002A33D1274A904214BF0022F5
:102260000122264DA8422BD052BB02F1804202F53A
:102270008232904214BF0022012205F50065A84277
:102280001ED0EAB91E4A904214BF0022012205F571
:102290009A35A84214D09AB91A4A904214BF002223
:1022A000012205F50065A8420AD04AB9164A9042B3
:1022B00014BF00220122A5F59635A84200D01AB11C
:1022C00023F44073CA68134323F080034A6913431D
:1022D00003608A68C2620A6882620C4B984214BF2B
:1022E000234644F001030BB10B69036301234361EF
:1022F00070BC70470000014000080040000400402E
:10230000004401400018004000200040000401404B
:10231000A8B110B5044690F83D305BB1022384F8B3
:102320003D30211D2068FFF76DFF012384F83D300B
:10233000002010BD80F83C30FFF77AFEEEE7012068
:102340007047A8B110B5044690F83D305BB1022348
:1023500084F83D30211D2068FFF754FF012384F8E5
:102360003D30002010BD80F83C3002F073FEEEE7F7
:1023700001207047002843D0F8B505460C4690F878
:102380003D30002B37D0022385F83D30294651F8E7
:10239000042B90681B4B034093602868FFF732FFC3
:1023A000286881688369026A26680E43164F1F40B9
:1023B000A368A16943EA01231F43144B3B40E16832
:1023C000E76941EA072119432769236A1B0343EAA6
:1023D00007130B4322F0AA016268646942EA0412FF
:1023E0000A43866029688B612B681A62012385F88D
:1023F0003D300020F8BD80F83C3002F041FEC2E7DD
:1024000001207047F8BFFEFFFCFCFFFF0303FFFF46
:1024100070B4036A23F010030362036A426885699B
:10242000144C2C400D6844EA052523F020038C68E9
:1024300043EA0413104C114EB04218BFA0420CBF27
:102440000124002406D123F08003CE6843EA06135A
:1024500023F040033CB122F440624C6942EA84021A
:102460008C6942EA8402426085614A688263036241
:1024700070BC7047FF8CFFFE00000140000401406B
:1024800038B590F83C30012B00F092800D460446A0
:10249000012380F83C30022380F83D30142A1ED8F6
:1024A000DFE802F00B1D1D1D241D1D1D381D1D1D07
:1024B0004B1D1D1D5F1D1D1D72000068FFF7CEFC2A
:1024C0002268936943F0080393612268936923F0BB
:1024D000040393612268936929690B439361012383
:1024E00084F83D30002084F83C0038BD0068FFF7D8
:1024F0008FFF2268936943F40063936122689369B4
:1025000023F48063936122689369296943EA012374
:102510009361E4E70068FFF7D5FC2268D36943F0D4
:102520000803D3612268D36923F00403D3612268CE
:10253000D36929690B43D361D1E70068FFF7FAFC3F
:102540002268D36943F40063D3612268D36923F41A
:102550008063D3612268D369296943EA0123D36187
:10256000BDE70068FFF710FD2268536D43F00803D4
:1025700053652268536D23F0040353652268536D3D
:1025800029690B435365AAE70068FFF727FD226816
:10259000536D43F4006353652268536D23F48063E5
:1025A00053652268536D296943EA0123536596E711
:1025B00002209AE790F83C30012B27D070B4012319
:1025C00080F83C30022380F83D3003685A689D68EB
:1025D0000F4E104CA34218BFB34203D122F4700235
:1025E0004C68224322F070020C68224325F08004DC
:1025F000896821435A6003689960012380F83D305F
:10260000002380F83C30184670BC704702207047A9
:10261000000001400004014090F83C30012B3CD008
:1026200030B4012380F83C30CB6823F440738A68CF
:10263000134323F480634A68134323F400630A6856
:10264000134323F480530A69134323F400534A6964
:10265000134323F480438A6A134323F470238A6963
:1026600043EA024302680E4D0E4CA24218BFAA4232
:102670000CD123F470034C6A43EA045323F08073B3
:10268000CC69234323F00073096A0B43536400238E
:1026900080F83C30184630BC70470220704700BFBD
:1026A0000000014000040140704770477047026815
:1026B000136823F0C0031360202343677047026848
:1026C000136823F4907313600268936823F0010386
:1026D00093602023836700230366704738B5846FB7
:1026E000202C47D1B2FA82F56D09002908BF0125D7
:1026F000002D41D190F87030012B3FD01346044695
:10270000012280F870204165A0F858300022C2678D
:1027100022228267C26E8AB11949D163C26E1949F9
:102720001164C26E1849D164C26E0021116501683E
:10273000426D2431C06EFEF797FA90B9002084F8FC
:1027400070002268136843F48073136022689368F2
:1027500043F0010393602268936843F04003936061
:1027600009E01023E367002384F8703020236367B7
:10277000012000E0022038BD0120FCE70220FAE73A
:10278000A7270008E5270008F127000808B5016819
:102790000A6822F040020A60202242670022426654
:1027A00002F05CFB08BD08B5836BC269B2F5807F9F
:1027B00013D00022A3F85A2019680A6822F4807204
:1027C0000A6019688A6822F001028A6019688A68BA
:1027D00022F040028A6020229A67184602F046FBE7
:1027E00008BD704708B5806BFFF7FBFF08BD704759
:1027F00038B5846B626FA56F23689B6813F0800FF8
:1028000001D0212A0ED023689B6813F0400F01D01D
:10281000222D0ED0E36F43F01003E3672046FFF74D
:10282000E6FF38BD0023A4F852302046FFF73FFFF3
:10283000E9E70023A4F85A302046FFF740FFE9E714
:1028400038B504460268D3691568906813F00F0123
:102850000CD113F0200F09D015F0200F06D0236EF5
:10286000002B00F086802046984782E000296FD038
:1028700010F0010002D115F4907F69D013F0010F20
:1028800007D015F4807F04D001211162E26F0A4362
:10289000E26713F0020F07D030B122680221116203
:1028A000E26F42F00402E26713F0040F07D030B188
:1028B000226804211162E26F42F00202E26713F023
:1028C000080F09D015F0200F00D128B12268082187
:1028D0001162E26F0A43E267E26F002A49D013F007
:1028E000200F06D015F0200F03D0236E0BB1204629
:1028F0009847E26F23689B6813F0400F02D112F0F3
:10290000080F1FD02046FFF7DAFE23689A6812F0FE
:10291000400F13D09A6822F040029A60E36E4BB1E8
:10292000164A1A65E06EFEF7D9F910B3E06E036D32
:1029300098471EE02046FFF75AFF1AE02046FFF7AF
:1029400056FF16E02046FFF752FF0023E36710E032
:1029500013F0800F07D015F0800F04D0636E43B1E1
:102960002046984705E013F0400F02D015F0400FC5
:1029700000D138BD2046FFF709FFFAE7812900089A
:1029800008B5806B0023A0F85A30A0F85230FFF74A
:102990002EFF08BD10B504468368026913434269DF
:1029A0001343C269134301680868994A02401343FC
:1029B0000B602268536823F44053E1680B43536073
:1029C000A269236A1A4321688B6823F43063134396
:1029D0008B6023688F4A934218D08F4A934228D045
:1029E0008E4A93423DD08E4A934250D08D4A9342B4
:1029F00062D08D4A934277D08C4A934200F08C800B
:102A00008B4A934200F0A0801023B6E0894BD3F8A4
:102A1000903003F00303032B09D8DFE803F002042E
:102A2000AD060123A9E00423A7E00823A5E01023B5
:102A3000A3E0804BD3F8903003F00C030C2B0ED89E
:102A4000DFE803F0070D0D0D090D0D0DA90D0D0D9E
:102A50000B00002391E004238FE008238DE0102376
:102A60008BE0744BD3F8903003F03003102B0AD076
:102A700006D9202B00F09180302B06D108237CE072
:102A80001BB9002379E0042377E0102375E0694B3C
:102A9000D3F8903003F0C003402B09D005D9802B28
:102AA0007DD0C02B06D1082367E01BB9002364E06A
:102AB000042362E0102360E05E4BD3F8903003F40F
:102AC0004073B3F5807F0BD007D9B3F5007F68D092
:102AD000B3F5407F06D108234FE01BB900234CE03B
:102AE00004234AE0102348E0524BD3F8903003F41B
:102AF0004063B3F5806F0BD007D9B3F5006F52D0A8
:102B0000B3F5406F06D1082337E01BB9012334E049
:102B1000042332E0102330E0464BD3F8903003F426
:102B20004053B3F5805F0BD007D9B3F5005F3CD0BD
:102B3000B3F5405F06D108231FE01BB900231CE05A
:102B400004231AE0102318E03A4BD3F8903003F432
:102B50004043B3F5804F0BD007D9B3F5004F26D0D3
:102B6000B3F5404F06D1082307E01BB9002304E06A
:102B7000042302E0102300E00223E269B2F5004FD3
:102B800017D0082B00F2B380DFE803F0768B95B105
:102B90009EB1B1B1A8000223EFE70223EDE70223C3
:102BA000EBE70223E9E70223E7E70223E5E7022355
:102BB000E3E7082B5DD8DFE803F0051F3F5C485CC6
:102BC0005C5C5300FEF798FD6268530803EB40031A
:102BD000B3FBF2F39BB20020A3F110014FF6EF72AA
:102BE000914200F287809AB222F00F02C3F34203AF
:102BF00013432268D36050E0FEF78EFD62685308ED
:102C000003EB4003B3FBF2F39BB20020E4E700BF09
:102C1000F369FFEF0010014000440040004800400D
:102C2000004C00400050004000140140007800407B
:102C3000007C0040003802406268304B03EB5203D6
:102C4000B3FBF2F39BB20020C6E7FEF749FC6268D3
:102C5000530803EB4003B3FBF2F39BB20020BBE746
:102C60006268530803F58033B3FBF2F39BB2002094
:102C7000B2E701200023AFE7FEF73EFD626800EBFC
:102C80005203B3FBF2F39BB20020A3F110014FF605
:102C9000EF72914230D82268D360002323666366C6
:102CA00010BDFEF739FD626800EB5203B3FBF2F38F
:102CB0009BB20020E9E76268114B03EB5203B3FBC0
:102CC000F2F39BB20020E0E7FEF70AFC626800EB3B
:102CD0005203B3FBF2F39BB20020D6E762685308BD
:102CE00003F50043B3FBF2F39BB20020CDE70120D4
:102CF0000023CAE70120D0E70120CEE70048E80121
:102D00000024F400436A13F0010F06D002685368F0
:102D100023F40033816A0B435360436A13F0020FBC
:102D200006D00268536823F48033C16A0B435360B2
:102D3000436A13F0040F06D00268536823F480231B
:102D4000016B0B435360436A13F0080F06D002680F
:102D5000536823F40043416B0B435360436A13F001
:102D6000100F06D00268936823F48053816B0B43E5
:102D70009360436A13F0200F06D00268936823F42F
:102D80000053C16B0B439360436A13F0400F0AD0AA
:102D90000268536823F48013016C0B435360036C87
:102DA000B3F5801F0BD0436A13F0800F06D0026882
:102DB000536823F40023816C0B435360704702680F
:102DC000536823F4C003416C0B435360EBE72DE9D8
:102DD000F04105460F4616469846069C2B68DB696F
:102DE00037EA03030CBF01230023B3421CD1B4F123
:102DF000FF3FF3D0FDF7BCFBA0EB0800A04201D8D9
:102E0000002CEBD12A68136823F4D07313602A686E
:102E1000936823F00103936020236B67AB67002363
:102E200085F87030032000E00020BDE8F08110B587
:102E300082B004460023C367FDF79AFB226812683C
:102E400012F0080F07D120236367A367002084F8DE
:102E5000700002B010BD6FF07E4300930346002265
:102E60004FF400112046FFF7B2FF0028EBD00320FB
:102E7000EFE768B310B50446436F03B324236367D9
:102E80002268136823F0010313602046FFF782FDD8
:102E9000012813D0636ABBB92268536823F49043B6
:102EA00053602268936823F02A03936022681368B2
:102EB00043F0010313602046FFF7B9FF10BD80F80F
:102EC000703002F075FAD9E72046FFF71BFFE3E701
:102ED00001207047842801D00330704700207047DC
:102EE000EFF30580003018BF0120704708B500F0EF
:102EF000F1FD002008BDF0B585B00F4644680568B7
:102F00000669B0F90800FFF7E5FF03AB01930090F5
:102F10003B46B2B22946204600F0AAFD012802D164
:102F2000039805B0F0BD0020FBE708B5034600B9E3
:102F30000123184600F018FF002008BD10B5012934
:102F40000DD103220021012000F0B6F9044620B182
:102F500000231A46194600F0D5F9204610BD00247A
:102F6000FBE7000030B583B00023019350B30C465B
:102F70000546B1F1FF3F02D019B91C4601E04FF000
:102F8000FF34FFF7ADFF90B101AA0021284600F001
:102F9000B7FB012818D1019BC3B10D4B4FF08052F4
:102FA0001A60BFF34F8FBFF36F8F002006E02146FA
:102FB000284600F0CFFA012802D1002003B030BD2E
:102FC000FF20FBE78020F9E7FF20F7E70020F5E787
:102FD00004ED00E010B582B0044600230193FFF732
:102FE0007FFF88B101A9204600F052FA012816D1CE
:102FF000019BB3B10D4B4FF080521A60BFF34F8F5E
:10300000BFF36F8F002008E000231A4619462046C0
:1030100000F078F9012806D1002002B010BDFF2091
:10302000FBE70020F9E7FF20F7E700BF04ED00E031
:1030300000F1080343604FF0FF328260C360036118
:1030400000230360704700230361704743684B60AF
:103050009A688A609A6851609960086103680133D0
:103060000360704730B40D68B5F1FF3F02D000F146
:10307000080202E0026904E01A4653681C68AC4288
:10308000FAD953684B6099608A605160086103689F
:103090000133036030BC7047036942688168916006
:1030A0008268416851605A68824206D000220261FB
:1030B0001A68013A1A601868704782685A60F5E722
:1030C000436A23B1036B1868C0F107007047002002
:1030D000704710B5044601F01DF9A26BE36B9A42EC
:1030E00004D0002401F03CF9204610BD0124F9E78A
:1030F00010B5044601F00EF9A36B23B1002401F0D2
:103100002FF9204610BD0124F9E770B50446164694
:10311000856B026C5AB903681BB100200135A563A9
:1031200070BD406800F0BAFF00236360F6E76EB937
:10313000806802F02DFA226CA3681344A3606268D1
:10314000934219D32368A3600020E7E7C06802F028
:103150001FFA226C5242E3681344E36021688B42F9
:1031600002D263681A44E260022E01D00020D5E743
:1031700025B1013D0020D1E70020CFE70020CDE7B9
:10318000026C72B110B5C3681344C3604468A342B3
:1031900001D30368C3600C46C168204602F0F8F909
:1031A00010BD704738B5054601F0B4F895F84540B4
:1031B00064B203E000F0F8FE013C64B2002C08DDCC
:1031C0006B6A33B105F1240000F05CFE0028F3D0F7
:1031D000F0E7FF2385F8453001F0C2F801F09AF8D6
:1031E00095F8444064B203E000F0DEFE013C64B2B6
:1031F000002C08DD2B6933B105F1100000F042FE10
:103200000028F3D0F0E7FF2385F8443001F0A8F858
:1032100038BD000038B550B94FF0500372B683F393
:103220001188BFF36F8FBFF34F8F62B6FEE704467E
:103230000D4601F06FF82168E26B236C03FB02106E
:1032400060600020A063A160013A02FB0313E36009
:10325000FF2384F8443084F84530A5B923691BB9AD
:1032600001F07EF8012038BD04F1100000F00AFEE4
:103270000028F5D0084B4FF080521A60BFF34F8FF3
:10328000BFF36F8FECE704F11000FFF7D1FE04F1FC
:103290002400FFF7CDFEE3E704ED00E010B5029B4C
:1032A0000C4639B11A60D8631C6401211846FFF737
:1032B000B1FF10BD1B60F6E750B94FF0500372B676
:1032C00083F31188BFF36F8FBFF34F8F62B6FEE7B2
:1032D000F0B583B0054611B101FB00F000E000201D
:1032E00017460C46483001F09DF9064638B100906B
:1032F0003B4600F1480221462846FFF7CFFF304603
:1033000003B0F0BDF0B585B0019270B10446B9B913
:10331000026CAAB14FF0500372B683F31188BFF369
:103320006F8FBFF34F8F62B6FEE74FF0500372B658
:1033300083F31188BFF36F8FBFF34F8F62B6FEE741
:10334000022B0DD1E26B012A0AD04FF0500372B666
:1033500083F31188BFF36F8FBFF34F8F62B6FEE721
:103360001E460F4600F028FE60B9019B63B14FF086
:10337000500372B683F31188BFF36F8FBFF34F8F83
:1033800062B6FEE700253AE0002538E032463946CD
:103390002046FFF7BAFE636A4BB9A8B13B4B4FF02A
:1033A00080521A60BFF34F8FBFF36F8F0CE004F1B0
:1033B000240000F067FD38B1344B4FF080521A60A2
:1033C000BFF34F8FBFF36F8F00F0CAFF012005B02E
:1033D000F0BD00F0C5FF0020F9E702A800F096FD5F
:1033E000012519E0002384F8443021E0002384F80B
:1033F000453023E02046FFF7D5FE00F03BFC00F00F
:1034000089FFA26BE36B9A42C0D3022EBED0019B10
:10341000002BDED0002DE0D000F0A2FF00F098FBE2
:1034200000F078FF94F844305BB2B3F1FF3FD9D09D
:1034300094F845305BB2B3F1FF3FD7D000F090FF76
:1034400001A902A800F06CFDC8B92046FFF741FEB3
:103450000028CFD0019904F1100000F0F7FC2046BD
:10346000FFF7A0FE00F006FC0028C8D1074B4FF084
:1034700080521A60BFF34F8FBFF36F8FBFE72046B4
:10348000FFF790FE00F0F6FB0020A0E704ED00E05F
:1034900070B170B50446036CABB14FF0500372B617
:1034A00083F31188BFF36F8FBFF34F8F62B6FEE7D0
:1034B0004FF0500372B683F31188BFF36F8FBFF3E1
:1034C0004F8F62B6FEE703683BB30E4601F02AF861
:1034D000EFF311854FF0500372B683F31188BFF3F9
:1034E0006F8FBFF34F8F62B6A26BE36B934228D905
:1034F00094F845305BB20132A263B3F1FF3F1AD1B9
:10350000636A03B304F1240000F0BCFCE8B1F6B137
:103510000120306085F3118870BD4368002BD4D042
:103520004FF0500372B683F31188BFF36F8FBFF370
:103530004F8F62B6FEE701335BB284F8453001205D
:10354000E8E70020E6E70120E4E70120E2E70120C8
:10355000E0E7000070B584B0019150B94FF050031E
:1035600072B683F31188BFF36F8FBFF34F8F62B6CC
:10357000FEE70446036C53B14FF0500372B683F379
:103580001188BFF36F8FBFF34F8F62B6FEE700F075
:1035900013FD60B9019B6BB14FF0500372B683F31A
:1035A0001188BFF36F8FBFF34F8F62B6FEE7002520
:1035B0002E4653E000252E4650E0013BA3632368CE
:1035C00013B900F02DFE6060236963B104F11000AF
:1035D00000F058FC38B1494B4FF080521A60BFF3ED
:1035E0004F8FBFF36F8F00F0BBFE0125284604B05C
:1035F00070BD55B14FF0500372B683F31188BFF31D
:103600006F8FBFF34F8F62B6FEE700F0A9FEEDE7C4
:1036100002A800F07BFC01262AE0002384F8443055
:1036200032E0002384F8453034E000F073FE606837
:1036300000F0D2FC054600F093FE3BE02046FFF789
:10364000B1FD00F017FB09E02046FFF7ABFD00F0ED
:1036500011FB2046FFF74CFD002840D100F05AFE38
:10366000A36B002BA9D1019B002BC2D0002ECFD081
:1036700000F076FE00F06CFA00F04CFE94F8443056
:103680005BB2B3F1FF3FC8D094F845305BB2B3F101
:10369000FF3FC6D000F064FE01A902A800F040FC84
:1036A0000028D1D12046FFF723FD0028C6D023688B
:1036B000002BBAD0019904F1240000F0C7FB20468A
:1036C000FFF770FD00F0D6FA0028C7D10B4B4FF082
:1036D00080521A60BFF34F8FBFF36F8FBEE7002D8C
:1036E00084D000F017FE2046FFF7EAFC0146606830
:1036F00000F030FD00F034FE002577E704ED00E037
:103700002DE9F84370B10446B9B9036CABB14FF081
:10371000500372B683F31188BFF36F8FBFF34F8FDF
:1037200062B6FEE74FF0500372B683F31188BFF321
:103730006F8FBFF34F8F62B6FEE71746894600F0E2
:10374000F1FEEFF311864FF0500372B683F3118848
:10375000BFF36F8FBFF34F8F62B6D4F83880B8F1E4
:10376000000F1DD094F844506DB249462046FFF733
:1037700007FD08F1FF33A363B5F1FF3F05D06B1CD4
:103780005BB284F8443001200BE023696BB104F193
:10379000100000F077FB50B15FB10120386000E00D
:1037A000002086F31188BDE8F8830120F9E70120A5
:1037B000F7E70120F5E70000074B9B6A1B6833B170
:1037C000054B9A6AD268D2685268DA627047024B37
:1037D0004FF0FF32DA6270472C00002010B504462B
:1037E000006B00F09FFF204600F09CFF10BD2DE90C
:1037F000F04780469946089D099F0A9C266B6FF00A
:103800004043134406EB830626F0070600230F2BE4
:1038100007D8C85CE21882F83400CA5C0AB10133E8
:10382000F5E7002384F84330062D00D90625E5622C
:1038300065644FF0000AC4F848A0201DFFF703FCA0
:1038400004F11800FFF7FFFB2461C5F10705A5612E
:103850006462C4F84CA084F850A04A464146304601
:1038600000F030FD206007B13C60BDE8F08700004B
:1038700070B5002407E004EB84029300104818445C
:10388000FFF7D6FB0134062CF5D90E4C04F1BC062B
:103890003046FFF7CDFB04F1D0052846FFF7C8FB03
:1038A00004F11400FFF7C4FB04F1E400FFF7C0FBD0
:1038B0002046FFF7BDFBA662C4F8F85070BD00BFFC
:1038C0005C0000202C00002038B5054600F022FDE9
:1038D000264BD3F8FC200132C3F8FC20D3F800318A
:1038E00073B1224BD3F804318BB9204BD3F800319C
:1038F000DA6AEB6A9A420AD81C4BC3F8005106E018
:103900001A4BC3F80051D3F8FC30012B2AD0174CC6
:10391000D4F808310133C4F80831EB6A01229A4027
:10392000D4F80C110A43C4F80C2104F1300003EB65
:1039300083039A00291D1044FFF788FB00F010FD57
:10394000D4F804316BB1D4F80031DA6AEB6A9A42E8
:1039500007D2074B4FF080521A60BFF34F8FBFF36F
:103960006F8F38BDFFF784FFD1E700BF2C00002028
:1039700004ED00E038B517E000F0CCFC0D4CD4F8B5
:10398000F030DD68281DFFF787FBD4F8FC30013BE1
:10399000C4F8FC30D4F81031013BC4F8103100F009
:1039A000DFFC2846FFF71AFF024BD3F81031002B3B
:1039B000E2D138BD2C00002008B5FFF7DBFF064B35
:1039C0001B6B012BF9D9054B4FF080521A60BFF3E6
:1039D0004F8FBFF36F8FF0E72C00002004ED00E065
:1039E00070B504460E46214BD3F81451D3F80001AC
:1039F0000430FFF751FB60B91C4BD3F80021D16AAA
:103A0000012202FA01F1D3F80C2122EA0102C3F8E3
:103A10000C21B4F1FF3F14BF00230123002E08BF87
:103A2000002393B92C44114BD3F800315C60A542BC
:103A300012D80E4DA86AD5F800110431FFF712FB19
:103A4000EB6AA34210D9EC620EE00848D0F80011EE
:103A50000431FFF7FBFA07E0044BD3F8F800D3F882
:103A600000110431FFF7FEFA70BD00BF2C000020EA
:103A70002DE9F04385B007468846154699469000E3
:103A800000F0D0FDF8B10646542000F0CBFD04460E
:103A9000A8B10663D4B10023039302940D9B019354
:103AA0000C9B00934B462A4641463846FFF79FFE43
:103AB0002046FFF709FF012005B0BDE8F08330463E
:103AC00000F030FEE6E74FF0FF30F5E74FF0FF3053
:103AD000F2E7000000B583B0194B01930023009377
:103AE000802218491848FFF7C3FF012805D0B0F11C
:103AF000FF3F19D003B05DF804FB4FF0500372B6DE
:103B000083F31188BFF36F8FBFF34F8F62B60F4BF4
:103B10004FF0FF32DA620122C3F804210022C3F819
:103B2000142100F09BFCE5E74FF0500372B683F3DD
:103B30001188BFF36F8FBFF34F8F62B6FEE700BFF0
:103B40004801002018560008B93900082C00002050
:103B5000034AD2F818310133C2F81831704700BF58
:103B60002C0000202DE9F041414BD3F81831002BF7
:103B70006ED13F4BD3F814510135C3F81451DDB960
:103B80009B6A1B6853B14FF0500372B683F31188E0
:103B9000BFF36F8FBFF34F8F62B6FEE7344B9A6A65
:103BA000D3F8F8109962C3F8F820D3F82021013235
:103BB000C3F82021FFF700FE2D4BDB6AAB423DD955
:103BC00000242B4AD2F80031DB6A03EB830399000F
:103BD0000A44136B012B42D9012440E00124244BF9
:103BE0009B6A1B6863B3224B9B6ADB68DE68736861
:103BF0009D422AD306F104084046FFF74DFAB36A06
:103C00001BB106F11800FFF747FAF36A01229A4048
:103C1000174FD7F80C110A43C7F80C2107F13000F1
:103C200003EB83039A0041461044FFF70FFAF26A50
:103C3000D7F80031DB6A9A42D0D2D0E70024CEE731
:103C40000B4B4FF0FF32DA62BBE7094AD362B8E7A9
:103C5000074AD2F824310133C2F824310024044B3E
:103C6000D3F8283103B101242046BDE8F08100BF1C
:103C70002C0000203A4BD3F8183153B94FF05003C1
:103C800072B683F31188BFF36F8FBFF34F8F62B6A5
:103C9000FEE770B500F03EFB314BD3F81821013A36
:103CA000C3F81821D3F81831002B54D12C4BD3F87A
:103CB000FC3023B9002400F053FB204670BD0024E3
:103CC000274B5B692BB3264D2B6ADC6804F1180087
:103CD000FFF7E2F9261D3046FFF7DEF9E36A01221D
:103CE0009A40D5F80C110A43C5F80C2105F13000B3
:103CF00003EB83039A0031461044FFF7A7F9E26A09
:103D0000D5F80031DB6A9A42DAD30122C5F82821BE
:103D1000D6E70CB1FFF750FD114BD3F8244164B145
:103D2000FFF720FF18B10E4B0122C3F82821013CF8
:103D3000F6D10B4B0022C3F82421094BD3F82831CC
:103D40005BB1084B4FF080521A60BFF34F8FBFF347
:103D50006F8F0124AFE70024ADE70024ABE700BF7D
:103D60002C00002004ED00E010B5C0B10446104B5B
:103D7000D3F8183153B14FF0500372B683F3118862
:103D8000BFF36F8FBFF34F8F62B6FEE7FFF7E0FE22
:103D900000212046FFF724FEFFF76CFF38B9054BE2
:103DA0004FF080521A60BFF34F8FBFF36F8F10BD7B
:103DB0002C00002004ED00E0234BD3F8183123B190
:103DC000214B0122C3F8282170471F4A0023C2F863
:103DD0002831D2F80C31B3FA83F3DBB2C3F11F03FD
:103DE00003EB830081000A44126B52B94FF0500379
:103DF00072B683F31188BFF36F8FBFF34F8F62B634
:103E0000FEE710B4104A9900CC18A0001044446B8F
:103E10006468446330321944880008300244944294
:103E20000BD0094903EB83039A000A44536BDB6808
:103E3000C1F800315DF8044B7047616802481422F4
:103E400002FB03025163ECE72C00002050B94FF055
:103E5000500372B683F31188BFF36F8FBFF34F8F98
:103E600062B6FEE710B50C46054BD3F800111831C9
:103E7000FFF7F8F801212046FFF7B2FD10BD00BFA3
:103E80002C00002038B5C368DC6854B94FF05003EB
:103E900072B683F31188BFF36F8FBFF34F8F62B693
:103EA000FEE704F118052846FFF7F6F8154BD3F89E
:103EB000183103BB251D2846FFF7EEF8E36A012100
:103EC0009940104AD2F80C010143C2F80C1130326B
:103ED00003EB8303980029461044FFF7B7F8E26A22
:103EE000084BD3F80031DB6A9A4209D90120054B0F
:103EF000C3F8280138BD29460348FFF7A7F8EEE7C5
:103F00000020F7E72C00002040000020034BD3F8EE
:103F100020210260D3F81431436070472C00002048
:103F2000F8B560B10546A9B94FF0500372B683F3F6
:103F30001188BFF36F8FBFF34F8F62B6FEE74FF06C
:103F4000500372B683F31188BFF36F8FBFF34F8FA7
:103F500062B6FEE70C4600F0DDF9124BD3F81411FF
:103F600068680A1A2368B3F1FF3F17D02F680D4E17
:103F7000D6F82061B74201D0884211D9934203D8C4
:103F800000232360012405E09B1A23602846FFF7E5
:103F9000BDFF002400F0E4F92046F8BD0024F9E755
:103FA0000124F7E72C000020024B0122C3F828214E
:103FB000704700BF2C000020064BD3F804313BB102
:103FC000044BD3F818310BB1002070470220704722
:103FD000012070472C000020002859D038B5044635
:103FE000C26A2C49D1F80011C96A8A4245D2816956
:103FF000002906DB2749D1F80011C96AC1F1070180
:104000008161606902EB82029100234A0A44904276
:1040100006D0204AD2F80021D26AE262012038BDDF
:10402000251D2846FFF738F880B9E26A02EB8203C3
:104030009900184B0B441B6B43B90123934015495E
:10404000D1F80C2122EA0302C1F80C211148D0F862
:104050000031DB6AE362012404FA03F2D0F80C11A8
:104060000A43C0F80C21303003EB83039A00294641
:104070001044FEF7EBFF2046D1E7426C054BD3F826
:104080000031DB6A9A4201D20120C8E70020C6E76E
:10409000002070472C0000205C000020002851D038
:1040A00038B504462A4AD2F8002182420AD04FF09D
:1040B000500372B683F31188BFF36F8FBFF34F8F36
:1040C00062B6FEE7826C52B94FF0500372B683F3CA
:1040D0001188BFF36F8FBFF34F8F62B6FEE7013ACF
:1040E0008264C06A616C88422ED07ABB251D284646
:1040F000FEF7D2FF78B9E26A1549142303FB0213D5
:104100001B6B43B9012303FA02F2D1F80C3123EA05
:104110000203C1F80C31626CE262C2F10703A361D1
:10412000012404FA02F10A4BD3F80C010143C3F84D
:104130000C1130332946142000FB0230FEF786FFB5
:10414000204638BD002070470020FAE70020F8E73D
:104150002C00002000285DD038B50346806C50B993
:104160004FF0500372B683F31188BFF36F8FBFF324
:104170004F8F62B6FEE75A6C8A4200D20A46D96A6D
:10418000914201D0012800D038BD2348D0F8000169
:1041900098420AD14FF0500372B683F31188BFF3EF
:1041A0006F8FBFF34F8F62B6FEE7DA62986900281F
:1041B00002DBC2F107029A615A691848142404FB11
:1041C00001018A42E0D11C461D1D2846FEF764FF0E
:1041D00078B9E26A1049142303FB02131B6B43B93D
:1041E000012303FA02F2D1F80C3123EA0203C1F8E9
:1041F0000C31E06A01228240074BD3F80C110A43CC
:10420000C3F80C2130332946142202FB0030FEF79C
:104210001DFFB9E7704700BF2C0000205C000020A4
:10422000064BD3F800312BB1044BD3F80021936C2B
:1042300001339364014BD3F8000170472C00002038
:1042400082B0002301930F4B1B68B3F1FF3F0AD0EC
:104250004FF0500372B683F31188BFF36F8FBFF333
:104260004F8F62B6FEE74FF0500372B683F31188AA
:10427000BFF36F8FBFF34F8F62B6019B002BFCD053
:1042800002B070470800002008480068006880F30A
:1042900008884FF0000080F3148862B661B6BFF35F
:1042A0004F8FBFF36F8F00DF00BF000008ED00E00D
:1042B000DFF80C00016841F47001016070470000F4
:1042C00088ED00E04FF0807340F8043C21F00101DC
:1042D00040F8081C054B40F80C3C40F8202C6FF0CF
:1042E000020340F8243C4438704700BF41420008B4
:1042F000074B19680868B0E8F04F80F30988BFF3EE
:104300006F8F4FF0000080F311887047AFF300808B
:104310002C0100204FF0500372B683F31188BFF3D5
:104320006F8FBFF34F8F62B60B4A13680133136070
:10433000012B00D07047094B1B6813F0FF0FF9D019
:104340004FF0500372B683F31188BFF36F8FBFF342
:104350004F8F62B6FEE700BF0800002004ED00E0CA
:104360000A4B1B6853B94FF0500372B683F31188A0
:10437000BFF36F8FBFF34F8F62B6FEE7013B034A77
:1043800013600BB983F31188704700BF0800002049
:10439000EFF30980BFF36F8F154B1A681EF0100FF3
:1043A00008BF20ED108A20E9F04F10602DE90900C8
:1043B0004FF0500072B680F31188BFF34F8FBFF3F8
:1043C0006F8F62B6FFF7F8FC4FF0000080F31188A2
:1043D00009BC19680868B0E8F04F1EF0100F08BF5C
:1043E000B0EC108A80F30988BFF36F8F704700BF6D
:1043F0002C01002008B54FF0500372B683F31188EA
:10440000BFF36F8FBFF34F8F62B6FFF7ABFB18B1EF
:10441000034B4FF080521A60002383F3118808BDCC
:1044200004ED00E0084A0023136008490B60084BC4
:104430001B680849A1FB03139B09013B06490B605C
:1044400007231360704700BF10E000E018E000E0B1
:104450000C000020D34D621014E000E010B582B0D3
:104460002B4B1A78D2B20192FF221A701B78DBB262
:104470008DF803309DF8033003F05003254A137084
:104480000723536009E0234A5368013B53609DF8BA
:1044900003305B00DBB28DF803309DF8033013F07E
:1044A000800FF0D11B4B5B68032B0AD04FF05003F9
:1044B00072B683F31188BFF36F8FBFF34F8F62B66D
:1044C000FEE71B0203F4E063124A5360019BDBB278
:1044D0000F4A1370104B1A6842F470021A601A687F
:1044E00042F070421A60FFF79DFF00240B4B1C60E6
:1044F000FFF7DEFE0A4A136843F040431360FFF7FC
:10450000C3FEFFF759FCFFF79BFE204602B010BD2B
:1045100000E400E05801002020ED00E00800002049
:1045200034EF00E0EFF305830F2B11D9124A9B5CA7
:10453000DBB2124A12789A420AD94FF0500372B68F
:1045400083F31188BFF36F8FBFF34F8F62B6FEE71F
:104550000B4B1B6803F4E063084A526893420AD984
:104560004FF0500372B683F31188BFF36F8FBFF320
:104570004F8F62B6FEE77047F0E300E0580100207D
:104580000CED00E0104A12F0070F1AD0D11D21F0F7
:104590000701C1F5705313440A460C490A60002014
:1045A00048601344083B23F007038B605860186091
:1045B000981A50601360C86008614FF000434B6167
:1045C00070474FF47053E8E7780100206001002045
:1045D00010B4134B1A6882421BD359685C1884428A
:1045E00003D1406801445960184641684418A2420A
:1045F00013D10B4CA468A2420DD052681144416003
:104600001A6812680260984200D018605DF8044B86
:1046100070471346DEE70460F5E70260F3E700BF8A
:104620006001002070B50446FFF792FA3C4B9B688E
:10463000CBB13B4B5B691C4268D1BCB1083414F070
:10464000070F13D024F00704083404F007036BB1FC
:104650004FF0500372B683F31188BFF36F8FBFF32F
:104660004F8F62B6FEE7FFF78DFFE2E7002C4FD0D9
:104670002B4B1B69A3424DD3294B1D6801E02B46F0
:1046800015466A68A24202D22A68002AF7D1244A53
:104690009268AA4240D01E6808362A681A606B6881
:1046A0001B1B102B12D9281910F0070F0AD04FF03E
:1046B000500372B683F31188BFF36F8FBFF34F8F30
:1046C00062B6FEE743606C60FFF782FF6968144AD8
:1046D00013695B1A1361D268934201D2104AD36006
:1046E0000F4B5B690B436B6000232B60FFF7C2FA33
:1046F00016F0070F12D04FF0500372B683F31188F3
:10470000BFF36F8FBFF34F8F62B6FEE70026EDE772
:104710000026EBE70026E9E70026E7E7304670BD14
:1047200060010020002834D038B50446A0F1080507
:1047300050F8042C174949690A420AD14FF0500336
:1047400072B683F31188BFF36F8FBFF34F8F62B6DA
:10475000FEE750F8080C50B14FF0500372B683F3E7
:104760001188BFF36F8FBFF34F8F62B6FEE722EA67
:10477000010244F8042CFFF7EBF954F8041C054A35
:1047800013690B4413612846FFF722FFFFF772FA03
:1047900038BD70476001002000B585B0002300934C
:1047A0000193029303932648264A02604360836084
:1047B00001220261826180F82030C3622249816255
:1047C000C3600421C16180F830204361FBF770FFB2
:1047D00038BB092300930123019307230293694601
:1047E0001748FCF737F8F8B9082300930223019320
:1047F00069461348FCF72EF8C8B9032300930193C8
:1048000069460F48FCF726F8A0B902230093042359
:10481000019369460A48FCF71DF870B905B05DF8C8
:1048200004FB00F097F9D4E700F094F9DCE700F01E
:1048300091F9E2E700F08EF9E7E700F08BF9EDE798
:104840007C3D0020002001400100000F30B589B000
:10485000002303930493059306930793026803F1DF
:10486000804303F590339A4201D009B030BD04462D
:1048700003F58C335A6C42F480725A645A6C02F419
:1048800080720092009A1A6B42F001021A631A6B4E
:1048900002F001020192019A1A6B42F002021A63BD
:1048A0001B6B03F002030293029B0C23039303256B
:1048B00004950DEB03011848FCF712FB03950495D2
:1048C0000025059503A91548FCF70AFB1448154B6C
:1048D000036045608560C5604FF4806303614FF4F9
:1048E000006343614FF4005383614FF48073C361ED
:1048F00005624562FCF752F958B9094BA3639C6302
:10490000002205211220FCF78FF81220FCF7BEF8D8
:10491000ABE700F01FF9F0E700000240000402409E
:10492000C43D00201064024000B583B0164B1A6BE2
:1049300042F480021A631A6B02F480020092009A19
:104940001A6B42F400121A631B6B03F400130193F9
:10495000019B002205210C20FCF766F80C20FCF7D7
:1049600095F8002205210E20FCF75EF80E20FCF7DA
:104970008DF8002205213820FCF756F83820FCF786
:1049800085F803B05DF804FB0038024008B501204B
:10499000FEF7CBFAFBE7000000B583B002A90023C5
:1049A00001F8013D01220B48FDF798FE02E00120CD
:1049B000FEF7BBFA0121084B1868FEF7D3FAC0B224
:1049C0000028F4D101220DF107010248FDF786FE0F
:1049D000EDE700BF7C4000202C3E0020F0B58FB0FA
:1049E00000270EA840F8047D0121FEF7A7FA164B18
:1049F00018600EA840F8087D0121FEF79FFA134BBE
:104A000018600EA840F80C7D0121FEF797FA104BB4
:104A10001860104C06AD26460FCE0FC533682B60CC
:104A2000394606A8FEF767FA0B4B186001AD14343F
:104A30000FCC0FC523682B60394601A8FEF75BFA3F
:104A4000064B18600FB0F0BD2C3E0020283E002021
:104A5000343E0020D8550008243E0020303E00207F
:104A600030B58DB000240794089409940A940B94EF
:104A70002E4B1A6B42F004021A631A6B02F0040206
:104A80000192019A1A6B42F080021A631A6B02F0CB
:104A900080020292029A1A6B42F001021A631A6BA8
:104AA00002F001020392039A1A6B42F002021A63A7
:104AB0001A6B02F002020492049A1A6B42F010027E
:104AC0001A631A6B02F010020592059A1A6B42F0F3
:104AD00008021A631B6B03F008030693069B144D30
:104AE00022464FF415412846FCF7EAFA4FF40053EA
:104AF0000793104B0893099407A90F48FCF7F0F9A6
:104B00004FF4154307930123089309940A9407A9C6
:104B10002846FCF7E5F9224621462820FBF784FFCA
:104B20002820FBF7B3FF0DB030BD00BF00380240B6
:104B300000100240000011100008024008B5026891
:104B4000034B9A4200D008BDFBF706FDFBE700BF10
:104B500000200040FEE7000010B5B8B0342200216C
:104B60002BA800F020FD0024269427942894299453
:104B70002A949022214602A800F015FDFCF7B6FA0F
:104B80001F4B1A6C42F080521A641B6C03F0805366
:104B90000093009B1B4A136823F4404343F4804373
:104BA0001360136803F440430193019B01232B938B
:104BB0004FF480332C9331942BA8FCF79FFAC8B99B
:104BC0000F232693012327930021289129912A91CD
:104BD00026A8FCF7D9FC78B94FF4C07302930023E0
:104BE0001493159302A8FCF7D9FD38B9FCF770FCB3
:104BF00038B010BDFFF7AEFFFFF7ACFFFFF7AAFF1D
:104C0000003802400070004008B5FBF799FCFFF740
:104C1000A3FFFFF725FFFFF787FE00F00FFB00F073
:104C200055F900F087F900F0B5F900F0E3F900F06C
:104C300087FB00F009F8FFF7AFFD00F09DFBFFF7E1
:104C4000CDFEFEF753F9FEE708B50E480E4B0360A4
:104C50000023436083604FF44072C260036143618C
:104C60004FF4007282610362436283620722C26270
:104C700003634363FDF794F800B908BDFFF76AFFCB
:104C8000FBE700BF383E00200030014070B588B01F
:104C900000230393049305930693079302681D4B27
:104CA0009A4201D008B070BD03F584335A6C42F4C7
:104CB00080525A645A6C02F480520092009A1A6B25
:104CC00042F001021A631A6B02F001020192019A8A
:104CD0001A6B42F002021A631B6B03F00203029389
:104CE000029BA02303930226049603250695052420
:104CF000079403A90848FCF7F3F8102303930496DC
:104D0000002305930695079403A90448FCF7E8F8E7
:104D1000C8E700BF0030014000000240000402402C
:104D200000B583B00D4B1A6C42F080521A641A6CB5
:104D300002F080520092009A5A6C42F480425A6407
:104D40005B6C03F480430193019B00220F216FF001
:104D50000100FBF769FE03B05DF804FB0038024078
:104D600000B589B0002201462D20FBF75DFE2D2005
:104D7000FBF78CFE144B1A6C42F480721A641B6CA5
:104D800003F480730193019B02A903A8FCF7D4FCF0
:104D9000FCF7B2FC0D4BA3FB00239B0C013B0C4822
:104DA0000C4A026040F2E732C260436000230361B4
:104DB0008360FDF7ADFA18B1012009B05DF804FB7E
:104DC0000348FDF737F9F8E70038024083DE1B435C
:104DD0009C3E00200020004008B5FCF7CDFC08BD3B
:104DE000FEE7FEE7FEE7FEE77047000008B5024871
:104DF000FBF788FF08BD00BF1C40002008B5024833
:104E0000FBF780FF08BD00BFFC40002008B502484A
:104E1000FBF77CFC08BD00BF7C3D002008B50248C4
:104E2000FDF70EFD08BD00BF7C40002008B54FF423
:104E30000050FCF74DF908BD08B50248FDF714F91C
:104E400008BD00BF9C3E002008B50248FBF75AFF92
:104E500008BD00BFC43D00207047000008B5024BEC
:104E60001868FEF7B7F808BD283E002008B5024BC9
:104E70001868FEF7AFF808BD2C3E002010B40F4AAA
:104E8000D2F8883043F47003C2F888300C4B1968AC
:104E900041F001011960002098601C680949214017
:104EA000196009495960196821F480211960D86096
:104EB0004FF0006393605DF8044B704700ED00E035
:104EC00000380240FFFFF6FE1030002400B58DB020
:104ED000002304930693079308930A930093019386
:104EE000029313484FF0804202604360836040F2B7
:104EF0009312C260036183610123039305930993B5
:104F00000F230B9303A9FDF735FA50B90023009343
:104F1000029369460648FDF74DFB28B90DB05DF8D0
:104F200004FBFFF717FEF1E7FFF714FEF6E700BFFB
:104F3000DC3F002000B58DB02022002104A800F045
:104F400032FB00230093019302931048104A026041
:104F500043608360C360036183610123039305930E
:104F6000099303A9FDF706FA50B9002300930293B1
:104F700069460648FDF71EFB28B90DB05DF804FB35
:104F8000FFF7E8FDF1E7FFF7E5FDF6E75C3F0020FE
:104F90000004004000B58DB02022002104A800F0DC
:104FA00002FB00230093019302931048104A026011
:104FB00043608360C36003618361012303930593AE
:104FC000099303A9FDF7D6F950B900230093029382
:104FD00069460648FDF7EEFA28B90DB05DF804FB06
:104FE000FFF7B8FDF1E7FFF7B5FDF6E7DC3E00207F
:104FF0000008004000B58DB02022002104A800F078
:10500000D2FA00230093019302931048104A0260E1
:1050100043608360C360036183610123039305934D
:10502000099303A9FDF7A6F950B900230093029351
:1050300069460648FDF7BEFA28B90DB05DF804FBD5
:10504000FFF788FDF1E7FFF785FDF6E71C3F00203D
:10505000000C00400268094B9A4200D0704782B0B1
:1050600003F59C335A6C42F001025A645B6C03F006
:1050700001030193019B02B0704700BF0000014093
:1050800030B58FB0002309930A930B930C930D93C3
:105090000368B3F1804F0AD04B4A93423BD04B4A4E
:1050A000934255D04A4A934270D00FB030BD03F5B9
:1050B0000E331A6C42F001021A641A6C02F00102FB
:1050C0000092009A1A6B42F001021A631A6B02F006
:1050D00001020192019A1A6B42F002021A631B6BE1
:1050E00003F002030293029B4FF40043099302254D
:1050F0000A9501240D9409A93648FBF7F1FE08230F
:1051000009930A9500230B930C930D9409A9324837
:10511000FBF7E6FEC9E7314B1A6C42F002021A6453
:105120001A6C02F002020392039A1A6B42F0040214
:105130001A631B6B03F004030493049BC0230993BD
:1051400002230A930D9309A92548FBF7C9FEACE792
:10515000224B1A6C42F004021A641A6C02F0040228
:105160000592059A1A6B42F008021A631B6B03F052
:1051700008030693069B4FF44053099302230A93B6
:105180000D9309A91748FBF7ABFE8EE7134B1A6C7A
:1051900042F008021A641A6C02F008020792079A99
:1051A0001A6B42F001021A631B6B03F001030893B0
:1051B000089B0323099302230A930D9309A9054829
:1051C000FBF78EFE71E700BF0004004000080040BE
:1051D000000C004000000240000402400038024081
:1051E00000080240000C024000B587B00023019384
:1051F000029303930493059302680E4B9A4202D0E4
:1052000007B05DF804FB03F59C331A6B42F0100203
:105210001A631B6B03F010030093009B4FF4D443FD
:105220000193022302930123059301A90248FBF78E
:1052300057FEE5E7000001400010024010B596B0AF
:1052400000241394149415940C940D940E940F94BC
:105250001094119412942C22214601A800F0A3F975
:105260003548364B036013234360846040F2E733D4
:10527000C360046144618461FDF763F8002845D18F
:10528000002313931493159313A92B48FDF792F958
:1052900000283ED160230C9300220D920E920F92B3
:1052A0001092119212920CA92348FDF7E9F80028F8
:1052B00032D104220CA92048FDF7E2F800282ED1B3
:1052C00008220CA91C48FDF7DBF858BB0C220CA9DE
:1052D0001948FDF7D5F840BB0023019302930393CF
:1052E000049305934FF400520692079308934FF0EE
:1052F000007209920A930B9301A90F48FDF78CF9EC
:10530000B0B90D48FFF770FF16B010BDFFF722FCD3
:10531000B6E7FFF71FFCBDE7FFF71CFCC9E7FFF787
:1053200019FCCDE7FFF716FCD0E7FFF713FCD3E736
:10533000FFF710FCE5E700BF9C3F002000000140A4
:1053400008B50B480B4B03604FF4E1334360002377
:105350008360C36003610C2242618361C3610362A5
:105360004362FDF786FD00B908BDFFF7F3FBFBE7DD
:105370005C4100200044004008B50B480B4B036023
:105380004FF4E133436000238360C36003610C2268
:1053900042618361C36103624362FDF76AFD00B944
:1053A00008BDFFF7D7FBFBE77C400020004800402A
:1053B00010B58AB0002305930693079308930993C9
:1053C0000368434A934205D00446424A934221D09F
:1053D0000AB010BD404B1A6C42F400321A641A6CC9
:1053E00002F400320192019A1A6B42F008021A6329
:1053F0001B6B03F008030293029B602305930223B7
:105400000693032308930723099305A93348FBF761
:1054100067FDDDE7304B1A6C42F480221A641A6C87
:1054200002F480220392039A1A6B42F002021A637A
:105430001B6B03F002030493049B4FF4406305933A
:1054400002230693032308930723099305A92448FD
:10545000FBF746FD2348244B03604FF00063436095
:1054600000238360C3604FF4806202614361836103
:10547000C36103624362FBF791FB18BB194BE36600
:105480009C631A481A4B03604FF00063436040234B
:1054900083600023C3604FF48062026143618361D3
:1054A000C36103624362FBF779FB70B90F4BA366DC
:1054B0009C63002205212720FBF7B6FA2720FBF783
:1054C000E5FA85E7FFF746FBD8E7FFF743FBEDE793
:1054D000004400400048004000380240000C0240F8
:1054E000000402401C40002028600240FC400020D4
:1054F00058600240DFF834D0002103E00C4B5B58C9
:10550000435004310B480C4B42189A42F6D30B4AD5
:1055100002E0002342F8043B094B9A42F9D3FFF71B
:10552000ADFC00F011F8FFF76FFB7047000008209A
:105530004856000800000020100000201000002045
:10554000DC410020FEE7000070B50D4E0D4CA41BA1
:10555000A4100025A54209D10B4E0C4C00F02CF8EC
:10556000A41BA4100025A54205D170BD56F8253016
:1055700098470135EEE756F8253098470135F2E7B0
:10558000405600084056000840560008445600089F
:1055900010B5431E0A44914200D110BD11F8014BD1
:1055A00003F8014FF7E702440346934200D17047E6
:1055B00003F8011BF9E70000F8B500BFF8BC08BC10
:1055C0009E467047F8B500BFF8BC08BC9E467047C1
:1055D00000061016000610162C5600088D4900080B
:1055E00000000000000000008000000020560008BD
:1055F000994900080300000000000000800000003E
:105600000000000000000000010203040607080972
:10561000000000000102030449444C450000000062
:105620006D656E755461736B0000000064656661A2
:08563000756C745461736B008A
:0856380038ACFF7F0100000007
:045640002502000837
:045644000102000857
:105648000100000010000000AAAAAAAA0024F40081
:04000005080054F5A6
:00000001FF
